ARM GAS  /tmp/cceTjG3L.s 			page 1


   1              		.syntax unified
   2              		.cpu cortex-m3
   3              		.fpu softvfp
   4              		.eabi_attribute 20, 1
   5              		.eabi_attribute 21, 1
   6              		.eabi_attribute 23, 3
   7              		.eabi_attribute 24, 1
   8              		.eabi_attribute 25, 1
   9              		.eabi_attribute 26, 1
  10              		.eabi_attribute 30, 2
  11              		.eabi_attribute 18, 4
  12              		.thumb
  13              		.file	"hal_lld.c"
  14              		.section	.debug_abbrev,"",%progbits
  15              	.Ldebug_abbrev0:
  16              		.section	.debug_info,"",%progbits
  17              	.Ldebug_info0:
  18              		.section	.debug_line,"",%progbits
  19              	.Ldebug_line0:
  20 0000 62010000 		.text
  20      02003101 
  20      00000201 
  20      FB0E0D00 
  20      01010101 
  21              	.Ltext0:
  22              		.cfi_sections	.debug_frame
  23              		.section	.text.hal_lld_init,"ax",%progbits
  24              		.align	2
  25              		.p2align 4,,15
  26              		.global	hal_lld_init
  27              		.thumb
  28              		.thumb_func
  29              		.type	hal_lld_init, %function
  30              	hal_lld_init:
  31              	.LFB36:
  32              		.file 1 "/home/jairom/Documentos/Proyectos/Embebidos/Robocop/Source/code/matrix-creator-mcu/third_
  33              		.loc 1 66 0
  34              		.cfi_startproc
  35              		@ args = 0, pretend = 0, frame = 0
  36              		@ frame_needed = 0, uses_anonymous_args = 0
  37 0000 08B5     		push	{r3, lr}
  38              	.LCFI0:
  39              		.cfi_def_cfa_offset 8
  40              		.loc 1 68 0
  41              		.cfi_offset 14, -4
  42              		.cfi_offset 3, -8
  43 0002 FFF7FEFF 		bl	SystemCoreClockUpdate
  44              		.loc 1 71 0
  45 0006 0B20     		movs	r0, #11
  46 0008 0821     		movs	r1, #8
  47 000a FFF7FEFF 		bl	nvicSetSystemHandlerPriority
  48              		.loc 1 72 0
  49 000e 074B     		ldr	r3, .L2
  50 0010 0748     		ldr	r0, .L2+4
  51 0012 1A68     		ldr	r2, [r3, #0]
  52 0014 074B     		ldr	r3, .L2+8
  53 0016 A0FB0201 		umull	r0, r1, r0, r2
ARM GAS  /tmp/cceTjG3L.s 			page 2


  54 001a 8A09     		lsrs	r2, r1, #6
  55 001c 511E     		subs	r1, r2, #1
  56              		.loc 1 73 0
  57 001e 0020     		movs	r0, #0
  58              		.loc 1 74 0
  59 0020 0722     		movs	r2, #7
  60              		.loc 1 72 0
  61 0022 5960     		str	r1, [r3, #4]
  62              		.loc 1 73 0
  63 0024 9860     		str	r0, [r3, #8]
  64              		.loc 1 74 0
  65 0026 1A60     		str	r2, [r3, #0]
  66              		.loc 1 77 0
  67 0028 08BD     		pop	{r3, pc}
  68              	.L3:
  69 002a 00BF     		.align	2
  70              	.L2:
  71 002c 00000000 		.word	SystemCoreClock
  72 0030 D34D6210 		.word	274877907
  73 0034 10E000E0 		.word	-536813552
  74              		.cfi_endproc
  75              	.LFE36:
  76              		.size	hal_lld_init, .-hal_lld_init
  77 0038 AFF30080 		.section	.text.at91sam3_clock_init,"ax",%progbits
  77      AFF30080 
  78              		.align	2
  79              		.p2align 4,,15
  80              		.global	at91sam3_clock_init
  81              		.thumb
  82              		.thumb_func
  83              		.type	at91sam3_clock_init, %function
  84              	at91sam3_clock_init:
  85              	.LFB37:
  86              		.loc 1 92 0
  87              		.cfi_startproc
  88              		@ args = 0, pretend = 0, frame = 0
  89              		@ frame_needed = 0, uses_anonymous_args = 0
  90              		@ link register save eliminated.
  91              		.loc 1 94 0
  92              		.loc 1 93 0
  93 0000 FFF7FEBF 		b	SystemInit
  94              		.cfi_endproc
  95              	.LFE37:
  96              		.size	at91sam3_clock_init, .-at91sam3_clock_init
  97 0004 AFF30080 		.text
  97      AFF30080 
  97      AFF30080 
  98              	.Letext0:
