ARM GAS  /tmp/ccYtzVqj.s 			page 1


   1              		.syntax unified
   2              		.cpu cortex-m3
   3              		.fpu softvfp
   4              		.eabi_attribute 20, 1
   5              		.eabi_attribute 21, 1
   6              		.eabi_attribute 23, 3
   7              		.eabi_attribute 24, 1
   8              		.eabi_attribute 25, 1
   9              		.eabi_attribute 26, 1
  10              		.eabi_attribute 30, 2
  11              		.eabi_attribute 18, 4
  12              		.thumb
  13              		.file	"main.c"
  14              		.section	.debug_abbrev,"",%progbits
  15              	.Ldebug_abbrev0:
  16              		.section	.debug_info,"",%progbits
  17              	.Ldebug_info0:
  18              		.section	.debug_line,"",%progbits
  19              	.Ldebug_line0:
  20 0000 89040000 		.text
  20      02001B04 
  20      00000201 
  20      FB0E0D00 
  20      01010101 
  21              	.Ltext0:
  22              		.cfi_sections	.debug_frame
  23              		.section	.text.Thread1,"ax",%progbits
  24              		.align	2
  25              		.p2align 4,,15
  26              		.thumb
  27              		.thumb_func
  28              		.type	Thread1, %function
  29              	Thread1:
  30              	.LFB36:
  31              		.file 1 "main.c"
  32              		.loc 1 16 0
  33              		.cfi_startproc
  34              		@ args = 0, pretend = 0, frame = 0
  35              		@ frame_needed = 0, uses_anonymous_args = 0
  36              	.LVL0:
  37 0000 70B5     		push	{r4, r5, r6, lr}
  38              	.LCFI0:
  39              		.cfi_def_cfa_offset 16
  40              		.loc 1 19 0
  41 0002 4FF40035 		mov	r5, #131072
  42              		.cfi_offset 14, -4
  43              		.cfi_offset 6, -8
  44              		.cfi_offset 5, -12
  45              		.cfi_offset 4, -16
  46 0006 064C     		ldr	r4, .L4
  47 0008 2E46     		mov	r6, r5
  48              	.LVL1:
  49              	.L2:
  50              		.loc 1 20 0 discriminator 1
  51 000a 4FF4FA70 		mov	r0, #500
  52              		.loc 1 19 0 discriminator 1
  53 000e 6663     		str	r6, [r4, #52]
ARM GAS  /tmp/ccYtzVqj.s 			page 2


  54              		.loc 1 20 0 discriminator 1
  55 0010 FFF7FEFF 		bl	chThdSleep
  56              		.loc 1 22 0 discriminator 1
  57 0014 4FF4FA70 		mov	r0, #500
  58              		.loc 1 21 0 discriminator 1
  59 0018 2563     		str	r5, [r4, #48]
  60              		.loc 1 22 0 discriminator 1
  61 001a FFF7FEFF 		bl	chThdSleep
  62 001e F4E7     		b	.L2
  63              	.L5:
  64              		.align	2
  65              	.L4:
  66 0020 00120E40 		.word	1074663936
  67              		.cfi_endproc
  68              	.LFE36:
  69              		.size	Thread1, .-Thread1
  70 0024 AFF30080 		.section	.text.main,"ax",%progbits
  70      AFF30080 
  70      AFF30080 
  71              		.align	2
  72              		.p2align 4,,15
  73              		.global	main
  74              		.thumb
  75              		.thumb_func
  76              		.type	main, %function
  77              	main:
  78              	.LFB37:
  79              		.loc 1 30 0
  80              		.cfi_startproc
  81              		@ args = 0, pretend = 0, frame = 0
  82              		@ frame_needed = 0, uses_anonymous_args = 0
  83              	.LVL2:
  84 0000 30B5     		push	{r4, r5, lr}
  85              	.LCFI1:
  86              		.cfi_def_cfa_offset 12
  87 0002 83B0     		sub	sp, sp, #12
  88              	.LCFI2:
  89              		.cfi_def_cfa_offset 24
  90              		.loc 1 34 0
  91              		.cfi_offset 14, -4
  92              		.cfi_offset 5, -8
  93              		.cfi_offset 4, -12
  94 0004 FFF7FEFF 		bl	halInit
  95              		.loc 1 35 0
  96 0008 FFF7FEFF 		bl	chSysInit
  97              		.loc 1 36 0
  98 000c 4148     		ldr	r0, .L13
  99 000e 0021     		movs	r1, #0
 100 0010 FFF7FEFF 		bl	sdStart
 101              		.loc 1 41 0
 102 0014 0024     		movs	r4, #0
 103 0016 4022     		movs	r2, #64
 104 0018 3F4B     		ldr	r3, .L13+4
 105 001a 4FF49871 		mov	r1, #304
 106 001e 3F48     		ldr	r0, .L13+8
 107 0020 0094     		str	r4, [sp, #0]
 108 0022 FFF7FEFF 		bl	chThdCreateStatic
ARM GAS  /tmp/ccYtzVqj.s 			page 3


 109              		.loc 1 47 0
 110 0026 0521     		movs	r1, #5
 111 0028 3D48     		ldr	r0, .L13+12
 112 002a FFF7FEFF 		bl	PIO_Configure
 113              		.loc 1 50 0
 114 002e 3D48     		ldr	r0, .L13+16
 115 0030 FFF7FEFF 		bl	BOARD_ConfigurePSRAM
 116              		.loc 1 58 0
 117 0034 3C4D     		ldr	r5, .L13+20
 118              	.L12:
 119              	.LVL3:
 120              		.loc 1 54 0 discriminator 1
 121 0036 FF2C     		cmp	r4, #255
 122 0038 65D9     		bls	.L8
 123 003a 4FF0C644 		mov	r4, #1660944384
 124              	.LVL4:
 125              	.L9:
 126              		.loc 1 60 0 discriminator 1
 127 003e 2278     		ldrb	r2, [r4, #0]	@ zero_extendqisi2
 128 0040 3448     		ldr	r0, .L13
 129 0042 3A49     		ldr	r1, .L13+24
 130 0044 FFF7FEFF 		bl	chprintf
 131              	.LVL5:
 132 0048 2279     		ldrb	r2, [r4, #4]	@ zero_extendqisi2
 133 004a 3248     		ldr	r0, .L13
 134 004c 3749     		ldr	r1, .L13+24
 135 004e FFF7FEFF 		bl	chprintf
 136              	.LVL6:
 137 0052 227A     		ldrb	r2, [r4, #8]	@ zero_extendqisi2
 138 0054 2F48     		ldr	r0, .L13
 139 0056 3549     		ldr	r1, .L13+24
 140 0058 FFF7FEFF 		bl	chprintf
 141              	.LVL7:
 142 005c 227B     		ldrb	r2, [r4, #12]	@ zero_extendqisi2
 143 005e 2D48     		ldr	r0, .L13
 144 0060 3249     		ldr	r1, .L13+24
 145 0062 FFF7FEFF 		bl	chprintf
 146              	.LVL8:
 147 0066 227C     		ldrb	r2, [r4, #16]	@ zero_extendqisi2
 148 0068 2A48     		ldr	r0, .L13
 149 006a 3049     		ldr	r1, .L13+24
 150 006c FFF7FEFF 		bl	chprintf
 151              	.LVL9:
 152 0070 227D     		ldrb	r2, [r4, #20]	@ zero_extendqisi2
 153 0072 2848     		ldr	r0, .L13
 154 0074 2D49     		ldr	r1, .L13+24
 155 0076 FFF7FEFF 		bl	chprintf
 156              	.LVL10:
 157 007a 227E     		ldrb	r2, [r4, #24]	@ zero_extendqisi2
 158 007c 2548     		ldr	r0, .L13
 159 007e 2B49     		ldr	r1, .L13+24
 160 0080 FFF7FEFF 		bl	chprintf
 161 0084 227F     		ldrb	r2, [r4, #28]	@ zero_extendqisi2
 162 0086 2348     		ldr	r0, .L13
 163 0088 2849     		ldr	r1, .L13+24
 164 008a FFF7FEFF 		bl	chprintf
 165 008e 94F82020 		ldrb	r2, [r4, #32]	@ zero_extendqisi2
ARM GAS  /tmp/ccYtzVqj.s 			page 4


 166 0092 2048     		ldr	r0, .L13
 167 0094 2549     		ldr	r1, .L13+24
 168 0096 FFF7FEFF 		bl	chprintf
 169 009a 94F82420 		ldrb	r2, [r4, #36]	@ zero_extendqisi2
 170 009e 1D48     		ldr	r0, .L13
 171 00a0 2249     		ldr	r1, .L13+24
 172 00a2 FFF7FEFF 		bl	chprintf
 173 00a6 94F82820 		ldrb	r2, [r4, #40]	@ zero_extendqisi2
 174 00aa 1A48     		ldr	r0, .L13
 175 00ac 1F49     		ldr	r1, .L13+24
 176 00ae FFF7FEFF 		bl	chprintf
 177 00b2 94F82C20 		ldrb	r2, [r4, #44]	@ zero_extendqisi2
 178 00b6 1748     		ldr	r0, .L13
 179 00b8 1C49     		ldr	r1, .L13+24
 180 00ba FFF7FEFF 		bl	chprintf
 181 00be 94F83020 		ldrb	r2, [r4, #48]	@ zero_extendqisi2
 182 00c2 1448     		ldr	r0, .L13
 183 00c4 1949     		ldr	r1, .L13+24
 184 00c6 FFF7FEFF 		bl	chprintf
 185 00ca 94F83420 		ldrb	r2, [r4, #52]	@ zero_extendqisi2
 186 00ce 1148     		ldr	r0, .L13
 187 00d0 1649     		ldr	r1, .L13+24
 188 00d2 FFF7FEFF 		bl	chprintf
 189 00d6 94F83820 		ldrb	r2, [r4, #56]	@ zero_extendqisi2
 190 00da 0E48     		ldr	r0, .L13
 191 00dc 1349     		ldr	r1, .L13+24
 192 00de FFF7FEFF 		bl	chprintf
 193              	.LVL11:
 194 00e2 94F83C20 		ldrb	r2, [r4, #60]	@ zero_extendqisi2
 195 00e6 0B48     		ldr	r0, .L13
 196 00e8 1049     		ldr	r1, .L13+24
 197 00ea FFF7FEFF 		bl	chprintf
 198              	.LVL12:
 199              		.loc 1 62 0 discriminator 1
 200 00ee 4034     		adds	r4, r4, #64
 201 00f0 0848     		ldr	r0, .L13
 202 00f2 0F49     		ldr	r1, .L13+28
 203 00f4 FFF7FEFF 		bl	chprintf
 204              		.loc 1 58 0 discriminator 1
 205 00f8 AC42     		cmp	r4, r5
 206 00fa A0D1     		bne	.L9
 207              		.loc 1 65 0
 208 00fc 4FF4FA70 		mov	r0, #500
 209 0100 FFF7FEFF 		bl	chThdSleep
 210              		.loc 1 54 0
 211 0104 0024     		movs	r4, #0
 212              	.LVL13:
 213              	.L8:
 214              		.loc 1 55 0 discriminator 2
 215 0106 A000     		lsls	r0, r4, #2
 216 0108 00F1C643 		add	r3, r0, #1660944384
 217 010c 1C60     		str	r4, [r3, #0]
 218              		.loc 1 54 0 discriminator 2
 219 010e 0134     		adds	r4, r4, #1
 220 0110 91E7     		b	.L12
 221              	.L14:
 222 0112 00BF     		.align	2
ARM GAS  /tmp/ccYtzVqj.s 			page 5


 223              	.L13:
 224 0114 00000000 		.word	SD1
 225 0118 00000000 		.word	Thread1
 226 011c 00000000 		.word	.LANCHOR0
 227 0120 00000000 		.word	.LANCHOR1
 228 0124 00000E40 		.word	1074659328
 229 0128 00040063 		.word	1660945408
 230 012c 00000000 		.word	.LC0
 231 0130 08000000 		.word	.LC1
 232              		.cfi_endproc
 233              	.LFE37:
 234              		.size	main, .-main
 235              		.global	pinPsram
 236 0134 AFF30080 		.section	.rodata.pinPsram,"a",%progbits
 236      AFF30080 
 236      AFF30080 
 237              		.align	2
 238              		.set	.LANCHOR1,. + 0
 239              		.type	pinPsram, %object
 240              		.size	pinPsram, 60
 241              	pinPsram:
 242 0000 FF000000 		.word	255
 243 0004 00120E40 		.word	1074663936
 244 0008 0D       		.byte	13
 245 0009 00       		.byte	0
 246 000a 01       		.byte	1
 247 000b 00       		.space	1
 248 000c 00080000 		.word	2048
 249 0010 00120E40 		.word	1074663936
 250 0014 0D       		.byte	13
 251 0015 00       		.byte	0
 252 0016 01       		.byte	1
 253 0017 00       		.space	1
 254 0018 00010000 		.word	256
 255 001c 00120E40 		.word	1074663936
 256 0020 0D       		.byte	13
 257 0021 00       		.byte	0
 258 0022 01       		.byte	1
 259 0023 00       		.space	1
 260 0024 00100000 		.word	4096
 261 0028 00120E40 		.word	1074663936
 262 002c 0D       		.byte	13
 263 002d 00       		.byte	0
 264 002e 01       		.byte	1
 265 002f 00       		.space	1
 266 0030 0000FCFF 		.word	-262144
 267 0034 00120E40 		.word	1074663936
 268 0038 0D       		.byte	13
 269 0039 00       		.byte	0
 270 003a 01       		.byte	1
 271 003b 00       		.space	1
 272              		.section	.bss.waThread1,"aw",%nobits
 273              		.align	3
 274              		.set	.LANCHOR0,. + 0
 275              		.type	waThread1, %object
 276              		.size	waThread1, 304
 277              	waThread1:
ARM GAS  /tmp/ccYtzVqj.s 			page 6


 278 0000 00000000 		.space	304
 278      00000000 
 278      00000000 
 278      00000000 
 278      00000000 
 279              		.section	.rodata.str1.4,"aMS",%progbits,1
 280              		.align	2
 281              	.LC0:
 282 0000 2C257820 		.ascii	",%x \011\000"
 282      0900
 283 0006 0000     		.space	2
 284              	.LC1:
 285 0008 0A0D00   		.ascii	"\012\015\000"
 286 000b 00       		.text
 287              	.Letext0:
