ARM GAS  /tmp/ccZwcdmm.s 			page 1


   1              		.syntax unified
   2              		.cpu cortex-m3
   3              		.fpu softvfp
   4              		.eabi_attribute 20, 1
   5              		.eabi_attribute 21, 1
   6              		.eabi_attribute 23, 3
   7              		.eabi_attribute 24, 1
   8              		.eabi_attribute 25, 1
   9              		.eabi_attribute 26, 1
  10              		.eabi_attribute 30, 2
  11              		.eabi_attribute 18, 4
  12              		.thumb
  13              		.file	"pmc.c"
  14              		.section	.debug_abbrev,"",%progbits
  15              	.Ldebug_abbrev0:
  16              		.section	.debug_info,"",%progbits
  17              	.Ldebug_info0:
  18              		.section	.debug_line,"",%progbits
  19              	.Ldebug_line0:
  20 0000 27030000 		.text
  20      0200A301 
  20      00000201 
  20      FB0E0D00 
  20      01010101 
  21              	.Ltext0:
  22              		.cfi_sections	.debug_frame
  23              		.section	.text.PMC_EnablePeripheral,"ax",%progbits
  24              		.align	2
  25              		.p2align 4,,15
  26              		.global	PMC_EnablePeripheral
  27              		.thumb
  28              		.thumb_func
  29              		.type	PMC_EnablePeripheral, %function
  30              	PMC_EnablePeripheral:
  31              	.LFB0:
  32              		.file 1 "/home/jairom/Documentos/Proyectos/Embebidos/Robocop/Source/code/matrix-creator-mcu/third_
  33              		.loc 1 62 0
  34              		.cfi_startproc
  35              		@ args = 0, pretend = 0, frame = 0
  36              		@ frame_needed = 0, uses_anonymous_args = 0
  37              	.LVL0:
  38              		.loc 1 63 0
  39 0000 2228     		cmp	r0, #34
  40              		.loc 1 62 0
  41 0002 08B5     		push	{r3, lr}
  42              	.LCFI0:
  43              		.cfi_def_cfa_offset 8
  44              		.loc 1 63 0
  45 0004 1AD8     		bhi	.L6
  46              		.cfi_offset 14, -4
  47              		.cfi_offset 3, -8
  48              		.loc 1 65 0
  49 0006 1F28     		cmp	r0, #31
  50 0008 0AD8     		bhi	.L3
  51              		.loc 1 67 0
  52 000a 0123     		movs	r3, #1
  53 000c 13FA00F0 		lsls	r0, r3, r0
ARM GAS  /tmp/ccZwcdmm.s 			page 2


  54              	.LVL1:
  55 0010 0D4B     		ldr	r3, .L7
  56 0012 9969     		ldr	r1, [r3, #24]
  57 0014 00EA0102 		and	r2, r0, r1
  58 0018 9042     		cmp	r0, r2
  59 001a 0ED0     		beq	.L1
  60              		.loc 1 73 0
  61 001c 1861     		str	r0, [r3, #16]
  62 001e 08BD     		pop	{r3, pc}
  63              	.LVL2:
  64              	.L3:
  65              		.loc 1 78 0
  66 0020 2038     		subs	r0, r0, #32
  67              	.LVL3:
  68              		.loc 1 79 0
  69 0022 0123     		movs	r3, #1
  70 0024 13FA00F0 		lsls	r0, r3, r0
  71              	.LVL4:
  72 0028 0749     		ldr	r1, .L7
  73 002a D1F80821 		ldr	r2, [r1, #264]
  74 002e 00EA020C 		and	ip, r0, r2
  75 0032 6045     		cmp	r0, ip
  76              		.loc 1 85 0
  77 0034 18BF     		it	ne
  78 0036 C1F80001 		strne	r0, [r1, #256]
  79              	.L1:
  80 003a 08BD     		pop	{r3, pc}
  81              	.LVL5:
  82              	.L6:
  83              		.loc 1 63 0 discriminator 1
  84 003c 0348     		ldr	r0, .L7+4
  85              	.LVL6:
  86 003e 3F21     		movs	r1, #63
  87 0040 034A     		ldr	r2, .L7+8
  88 0042 044B     		ldr	r3, .L7+12
  89 0044 FFF7FEFF 		bl	__assert_func
  90              	.L8:
  91              		.align	2
  92              	.L7:
  93 0048 00040E40 		.word	1074660352
  94 004c 00000000 		.word	.LC0
  95 0050 00000000 		.word	.LANCHOR0
  96 0054 88000000 		.word	.LC1
  97              		.cfi_endproc
  98              	.LFE0:
  99              		.size	PMC_EnablePeripheral, .-PMC_EnablePeripheral
 100 0058 AFF30080 		.section	.text.PMC_DisablePeripheral,"ax",%progbits
 100      AFF30080 
 101              		.align	2
 102              		.p2align 4,,15
 103              		.global	PMC_DisablePeripheral
 104              		.thumb
 105              		.thumb_func
 106              		.type	PMC_DisablePeripheral, %function
 107              	PMC_DisablePeripheral:
 108              	.LFB1:
 109              		.loc 1 99 0
ARM GAS  /tmp/ccZwcdmm.s 			page 3


 110              		.cfi_startproc
 111              		@ args = 0, pretend = 0, frame = 0
 112              		@ frame_needed = 0, uses_anonymous_args = 0
 113              	.LVL7:
 114              		.loc 1 100 0
 115 0000 2228     		cmp	r0, #34
 116              		.loc 1 99 0
 117 0002 08B5     		push	{r3, lr}
 118              	.LCFI1:
 119              		.cfi_def_cfa_offset 8
 120              		.loc 1 100 0
 121 0004 1AD8     		bhi	.L13
 122              		.cfi_offset 14, -4
 123              		.cfi_offset 3, -8
 124              		.loc 1 102 0
 125 0006 1F28     		cmp	r0, #31
 126 0008 0DD9     		bls	.L14
 127              	.LVL8:
 128              		.loc 1 115 0
 129 000a 2038     		subs	r0, r0, #32
 130              	.LVL9:
 131              		.loc 1 116 0
 132 000c 0123     		movs	r3, #1
 133 000e 13FA00F0 		lsls	r0, r3, r0
 134              	.LVL10:
 135 0012 0D49     		ldr	r1, .L15
 136 0014 D1F80821 		ldr	r2, [r1, #264]
 137 0018 00EA020C 		and	ip, r0, r2
 138 001c 6045     		cmp	r0, ip
 139              		.loc 1 122 0
 140 001e 08BF     		it	eq
 141 0020 C1F80401 		streq	r0, [r1, #260]
 142              	.L9:
 143 0024 08BD     		pop	{r3, pc}
 144              	.LVL11:
 145              	.L14:
 146              		.loc 1 104 0
 147 0026 0123     		movs	r3, #1
 148 0028 13FA00F0 		lsls	r0, r3, r0
 149              	.LVL12:
 150 002c 064B     		ldr	r3, .L15
 151 002e 9969     		ldr	r1, [r3, #24]
 152 0030 00EA0102 		and	r2, r0, r1
 153 0034 9042     		cmp	r0, r2
 154 0036 F5D1     		bne	.L9
 155              		.loc 1 110 0
 156 0038 5861     		str	r0, [r3, #20]
 157 003a 08BD     		pop	{r3, pc}
 158              	.LVL13:
 159              	.L13:
 160              		.loc 1 100 0 discriminator 1
 161 003c 0348     		ldr	r0, .L15+4
 162              	.LVL14:
 163 003e 6421     		movs	r1, #100
 164 0040 034A     		ldr	r2, .L15+8
 165 0042 044B     		ldr	r3, .L15+12
 166 0044 FFF7FEFF 		bl	__assert_func
ARM GAS  /tmp/ccZwcdmm.s 			page 4


 167              	.L16:
 168              		.align	2
 169              	.L15:
 170 0048 00040E40 		.word	1074660352
 171 004c 00000000 		.word	.LC0
 172 0050 00000000 		.word	.LANCHOR1
 173 0054 88000000 		.word	.LC1
 174              		.cfi_endproc
 175              	.LFE1:
 176              		.size	PMC_DisablePeripheral, .-PMC_DisablePeripheral
 177 0058 AFF30080 		.section	.text.PMC_EnableAllPeripherals,"ax",%progbits
 177      AFF30080 
 178              		.align	2
 179              		.p2align 4,,15
 180              		.global	PMC_EnableAllPeripherals
 181              		.thumb
 182              		.thumb_func
 183              		.type	PMC_EnableAllPeripherals, %function
 184              	PMC_EnableAllPeripherals:
 185              	.LFB2:
 186              		.loc 1 131 0
 187              		.cfi_startproc
 188              		@ args = 0, pretend = 0, frame = 0
 189              		@ frame_needed = 0, uses_anonymous_args = 0
 190              		@ link register save eliminated.
 191              		.loc 1 132 0
 192 0000 0A49     		ldr	r1, .L22
 193 0002 6FF00303 		mvn	r3, #3
 194 0006 0B61     		str	r3, [r1, #16]
 195              	.L18:
 196              		.loc 1 133 0 discriminator 1
 197 0008 8B69     		ldr	r3, [r1, #24]
 198 000a 084A     		ldr	r2, .L22
 199 000c 23F00300 		bic	r0, r3, #3
 200 0010 10F1040F 		cmn	r0, #4
 201 0014 F8D1     		bne	.L18
 202              		.loc 1 135 0
 203 0016 4FF0FF31 		mov	r1, #-1
 204 001a C2F80011 		str	r1, [r2, #256]
 205              	.L19:
 206              		.loc 1 136 0 discriminator 1
 207 001e D2F80801 		ldr	r0, [r2, #264]
 208 0022 B0F1FF3F 		cmp	r0, #-1
 209 0026 FAD1     		bne	.L19
 210              		.loc 1 139 0
 211 0028 7047     		bx	lr
 212              	.L23:
 213 002a 00BF     		.align	2
 214              	.L22:
 215 002c 00040E40 		.word	1074660352
 216              		.cfi_endproc
 217              	.LFE2:
 218              		.size	PMC_EnableAllPeripherals, .-PMC_EnableAllPeripherals
 219              		.section	.text.PMC_DisableAllPeripherals,"ax",%progbits
 220              		.align	2
 221              		.p2align 4,,15
 222              		.global	PMC_DisableAllPeripherals
ARM GAS  /tmp/ccZwcdmm.s 			page 5


 223              		.thumb
 224              		.thumb_func
 225              		.type	PMC_DisableAllPeripherals, %function
 226              	PMC_DisableAllPeripherals:
 227              	.LFB3:
 228              		.loc 1 145 0
 229              		.cfi_startproc
 230              		@ args = 0, pretend = 0, frame = 0
 231              		@ frame_needed = 0, uses_anonymous_args = 0
 232              		@ link register save eliminated.
 233              		.loc 1 146 0
 234 0000 0849     		ldr	r1, .L29
 235 0002 6FF00303 		mvn	r3, #3
 236 0006 4B61     		str	r3, [r1, #20]
 237              	.L25:
 238              		.loc 1 147 0 discriminator 1
 239 0008 8869     		ldr	r0, [r1, #24]
 240 000a 064A     		ldr	r2, .L29
 241 000c 30F00300 		bics	r0, r0, #3
 242 0010 FAD1     		bne	.L25
 243              		.loc 1 149 0
 244 0012 4FF0FF31 		mov	r1, #-1
 245 0016 C2F80411 		str	r1, [r2, #260]
 246              	.L26:
 247              		.loc 1 150 0 discriminator 1
 248 001a D2F80831 		ldr	r3, [r2, #264]
 249 001e 002B     		cmp	r3, #0
 250 0020 FBD1     		bne	.L26
 251              		.loc 1 153 0
 252 0022 7047     		bx	lr
 253              	.L30:
 254              		.align	2
 255              	.L29:
 256 0024 00040E40 		.word	1074660352
 257              		.cfi_endproc
 258              	.LFE3:
 259              		.size	PMC_DisableAllPeripherals, .-PMC_DisableAllPeripherals
 260 0028 AFF30080 		.section	.text.PMC_IsPeriphEnabled,"ax",%progbits
 260      AFF30080 
 261              		.align	2
 262              		.p2align 4,,15
 263              		.global	PMC_IsPeriphEnabled
 264              		.thumb
 265              		.thumb_func
 266              		.type	PMC_IsPeriphEnabled, %function
 267              	PMC_IsPeriphEnabled:
 268              	.LFB4:
 269              		.loc 1 161 0
 270              		.cfi_startproc
 271              		@ args = 0, pretend = 0, frame = 0
 272              		@ frame_needed = 0, uses_anonymous_args = 0
 273              	.LVL15:
 274              		.loc 1 162 0
 275 0000 2228     		cmp	r0, #34
 276              		.loc 1 161 0
 277 0002 08B5     		push	{r3, lr}
 278              	.LCFI2:
ARM GAS  /tmp/ccZwcdmm.s 			page 6


 279              		.cfi_def_cfa_offset 8
 280              		.loc 1 162 0
 281 0004 11D8     		bhi	.L35
 282              		.cfi_offset 14, -4
 283              		.cfi_offset 3, -8
 284              		.loc 1 164 0
 285 0006 1F28     		cmp	r0, #31
 286 0008 08D9     		bls	.L36
 287              		.loc 1 169 0
 288 000a 2038     		subs	r0, r0, #32
 289              	.LVL16:
 290 000c 0122     		movs	r2, #1
 291 000e 12FA00F0 		lsls	r0, r2, r0
 292              	.LVL17:
 293 0012 0949     		ldr	r1, .L37
 294 0014 D1F80831 		ldr	r3, [r1, #264]
 295 0018 1840     		ands	r0, r0, r3
 296              		.loc 1 171 0
 297 001a 08BD     		pop	{r3, pc}
 298              	.LVL18:
 299              	.L36:
 300              		.loc 1 166 0
 301 001c 0122     		movs	r2, #1
 302 001e 12FA00F0 		lsls	r0, r2, r0
 303              	.LVL19:
 304 0022 0549     		ldr	r1, .L37
 305 0024 8B69     		ldr	r3, [r1, #24]
 306 0026 1840     		ands	r0, r0, r3
 307 0028 08BD     		pop	{r3, pc}
 308              	.LVL20:
 309              	.L35:
 310              		.loc 1 162 0 discriminator 1
 311 002a 0448     		ldr	r0, .L37+4
 312              	.LVL21:
 313 002c A221     		movs	r1, #162
 314 002e 044A     		ldr	r2, .L37+8
 315 0030 044B     		ldr	r3, .L37+12
 316 0032 FFF7FEFF 		bl	__assert_func
 317              	.L38:
 318 0036 00BF     		.align	2
 319              	.L37:
 320 0038 00040E40 		.word	1074660352
 321 003c 00000000 		.word	.LC0
 322 0040 00000000 		.word	.LANCHOR2
 323 0044 88000000 		.word	.LC1
 324              		.cfi_endproc
 325              	.LFE4:
 326              		.size	PMC_IsPeriphEnabled, .-PMC_IsPeriphEnabled
 327 0048 AFF30080 		.section	.text.PmcMasterClockSelection,"ax",%progbits
 327      AFF30080 
 328              		.align	2
 329              		.p2align 4,,15
 330              		.global	PmcMasterClockSelection
 331              		.thumb
 332              		.thumb_func
 333              		.type	PmcMasterClockSelection, %function
 334              	PmcMasterClockSelection:
ARM GAS  /tmp/ccZwcdmm.s 			page 7


 335              	.LFB5:
 336              		.loc 1 175 0
 337              		.cfi_startproc
 338              		@ args = 0, pretend = 0, frame = 0
 339              		@ frame_needed = 0, uses_anonymous_args = 0
 340              		@ link register save eliminated.
 341              	.LVL22:
 342 0000 30B4     		push	{r4, r5}
 343              	.LCFI3:
 344              		.cfi_def_cfa_offset 8
 345              		.loc 1 178 0
 346 0002 0328     		cmp	r0, #3
 347 0004 0FD8     		bhi	.L39
 348 0006 DFE800F0 		tbb	[pc, r0]
 349              		.cfi_offset 5, -4
 350              		.cfi_offset 4, -8
 351              	.L43:
 352 000a 45       		.byte	(.L41-.L43)/2
 353 000b 45       		.byte	(.L41-.L43)/2
 354 000c 10       		.byte	(.L42-.L43)/2
 355 000d 10       		.byte	(.L42-.L43)/2
 356              		.align	1
 357              	.LVL23:
 358              	.L66:
 359              		.loc 1 192 0 discriminator 2
 360 000e B3F1FF3F 		cmp	r3, #-1
 361 0012 08D0     		beq	.L39
 362              	.LVL24:
 363              		.loc 1 192 0 is_stmt 0
 364 0014 916E     		ldr	r1, [r2, #104]
 365 0016 0233     		adds	r3, r3, #2
 366 0018 11F0080F 		tst	r1, #8
 367 001c 03D1     		bne	.L39
 368              	.L46:
 369              	.LVL25:
 370              		.loc 1 192 0 discriminator 1
 371 001e 906E     		ldr	r0, [r2, #104]
 372 0020 10F0080F 		tst	r0, #8
 373 0024 F3D0     		beq	.L66
 374              	.LVL26:
 375              	.L39:
 376              		.loc 1 210 0 is_stmt 1
 377 0026 30BC     		pop	{r4, r5}
 378 0028 7047     		bx	lr
 379              	.LVL27:
 380              	.L42:
 381              		.loc 1 198 0
 382 002a 2D4C     		ldr	r4, .L70
 383              		.loc 1 176 0
 384 002c 0023     		movs	r3, #0
 385              		.loc 1 198 0
 386 002e 256B     		ldr	r5, [r4, #48]
 387              		.loc 1 201 0
 388 0030 2246     		mov	r2, r4
 389              		.loc 1 198 0
 390 0032 25F07005 		bic	r5, r5, #112
 391 0036 2943     		orrs	r1, r1, r5
ARM GAS  /tmp/ccZwcdmm.s 			page 8


 392              	.LVL28:
 393 0038 2163     		str	r1, [r4, #48]
 394              		.loc 1 201 0
 395 003a 06E0     		b	.L48
 396              	.LVL29:
 397              	.L67:
 398              		.loc 1 201 0 is_stmt 0 discriminator 2
 399 003c 946E     		ldr	r4, [r2, #104]
 400 003e 0133     		adds	r3, r3, #1
 401              	.LVL30:
 402 0040 14F0080F 		tst	r4, #8
 403 0044 05D1     		bne	.L47
 404              	.LVL31:
 405              		.loc 1 201 0
 406 0046 0133     		adds	r3, r3, #1
 407              	.LVL32:
 408 0048 03D0     		beq	.L47
 409              	.LVL33:
 410              	.L48:
 411              		.loc 1 201 0 discriminator 1
 412 004a 916E     		ldr	r1, [r2, #104]
 413 004c 11F0080F 		tst	r1, #8
 414 0050 F4D0     		beq	.L67
 415              	.L47:
 416              		.loc 1 204 0 is_stmt 1
 417 0052 2349     		ldr	r1, .L70
 418 0054 13F0010F 		tst	r3, #1
 419 0058 0C6B     		ldr	r4, [r1, #48]
 420              		.loc 1 207 0
 421 005a 0A46     		mov	r2, r1
 422              		.loc 1 204 0
 423 005c 24F00304 		bic	r4, r4, #3
 424 0060 40EA0400 		orr	r0, r0, r4
 425              	.LVL34:
 426 0064 0863     		str	r0, [r1, #48]
 427 0066 10D1     		bne	.L49
 428              		.loc 1 207 0
 429 0068 886E     		ldr	r0, [r1, #104]
 430 006a 10F0080F 		tst	r0, #8
 431 006e DAD1     		bne	.L39
 432              	.LVL35:
 433 0070 916E     		ldr	r1, [r2, #104]
 434 0072 0133     		adds	r3, r3, #1
 435              	.LVL36:
 436 0074 11F0080F 		tst	r1, #8
 437 0078 D5D1     		bne	.L39
 438              	.L68:
 439              	.LVL37:
 440              		.loc 1 207 0 is_stmt 0 discriminator 2
 441 007a B3F1FF3F 		cmp	r3, #-1
 442 007e D2D0     		beq	.L39
 443              	.LVL38:
 444              		.loc 1 207 0
 445 0080 906E     		ldr	r0, [r2, #104]
 446 0082 0233     		adds	r3, r3, #2
 447 0084 10F0080F 		tst	r0, #8
 448 0088 CDD1     		bne	.L39
ARM GAS  /tmp/ccZwcdmm.s 			page 9


 449              	.L49:
 450              	.LVL39:
 451              		.loc 1 207 0 discriminator 1
 452 008a 916E     		ldr	r1, [r2, #104]
 453 008c 11F0080F 		tst	r1, #8
 454 0090 F3D0     		beq	.L68
 455 0092 C8E7     		b	.L39
 456              	.LVL40:
 457              	.L41:
 458              		.loc 1 183 0 is_stmt 1
 459 0094 124C     		ldr	r4, .L70
 460              		.loc 1 176 0
 461 0096 0023     		movs	r3, #0
 462              		.loc 1 183 0
 463 0098 256B     		ldr	r5, [r4, #48]
 464              		.loc 1 186 0
 465 009a 2246     		mov	r2, r4
 466              		.loc 1 183 0
 467 009c 25F00305 		bic	r5, r5, #3
 468 00a0 2843     		orrs	r0, r0, r5
 469              	.LVL41:
 470 00a2 2063     		str	r0, [r4, #48]
 471              		.loc 1 186 0
 472 00a4 06E0     		b	.L45
 473              	.LVL42:
 474              	.L69:
 475              		.loc 1 186 0 is_stmt 0 discriminator 2
 476 00a6 946E     		ldr	r4, [r2, #104]
 477 00a8 0133     		adds	r3, r3, #1
 478              	.LVL43:
 479 00aa 14F0080F 		tst	r4, #8
 480 00ae 05D1     		bne	.L44
 481              	.LVL44:
 482              		.loc 1 186 0
 483 00b0 0133     		adds	r3, r3, #1
 484              	.LVL45:
 485 00b2 03D0     		beq	.L44
 486              	.LVL46:
 487              	.L45:
 488              		.loc 1 186 0 discriminator 1
 489 00b4 906E     		ldr	r0, [r2, #104]
 490 00b6 10F0080F 		tst	r0, #8
 491 00ba F4D0     		beq	.L69
 492              	.L44:
 493              		.loc 1 189 0 is_stmt 1
 494 00bc 0848     		ldr	r0, .L70
 495 00be 13F0010F 		tst	r3, #1
 496 00c2 046B     		ldr	r4, [r0, #48]
 497              		.loc 1 192 0
 498 00c4 0246     		mov	r2, r0
 499              		.loc 1 189 0
 500 00c6 24F07004 		bic	r4, r4, #112
 501 00ca 41EA0401 		orr	r1, r1, r4
 502              	.LVL47:
 503 00ce 0163     		str	r1, [r0, #48]
 504 00d0 A5D1     		bne	.L46
 505              		.loc 1 192 0
ARM GAS  /tmp/ccZwcdmm.s 			page 10


 506 00d2 816E     		ldr	r1, [r0, #104]
 507 00d4 11F0080F 		tst	r1, #8
 508 00d8 A5D1     		bne	.L39
 509              	.LVL48:
 510 00da 0133     		adds	r3, r3, #1
 511              	.LVL49:
 512 00dc 9FE7     		b	.L46
 513              	.L71:
 514 00de 00BF     		.align	2
 515              	.L70:
 516 00e0 00040E40 		.word	1074660352
 517              		.cfi_endproc
 518              	.LFE5:
 519              		.size	PmcMasterClockSelection, .-PmcMasterClockSelection
 520 00e4 AFF30080 		.section	.text.ConfigurePck,"ax",%progbits
 520      AFF30080 
 520      AFF30080 
 521              		.align	2
 522              		.p2align 4,,15
 523              		.global	ConfigurePck
 524              		.thumb
 525              		.thumb_func
 526              		.type	ConfigurePck, %function
 527              	ConfigurePck:
 528              	.LFB6:
 529              		.loc 1 213 0
 530              		.cfi_startproc
 531              		@ args = 0, pretend = 0, frame = 0
 532              		@ frame_needed = 0, uses_anonymous_args = 0
 533              		@ link register save eliminated.
 534              	.LVL50:
 535              		.loc 1 215 0
 536 0000 084B     		ldr	r3, .L75
 537              		.loc 1 219 0
 538 0002 0143     		orrs	r1, r1, r0
 539              	.LVL51:
 540              		.loc 1 215 0
 541 0004 0848     		ldr	r0, .L75+4
 542              	.LVL52:
 543              		.loc 1 217 0
 544 0006 4FF48062 		mov	r2, #1024
 545              		.loc 1 213 0
 546 000a 10B4     		push	{r4}
 547              	.LCFI4:
 548              		.cfi_def_cfa_offset 4
 549              		.loc 1 215 0
 550 000c C3F8E400 		str	r0, [r3, #228]
 551              		.loc 1 223 0
 552 0010 1C46     		mov	r4, r3
 553              		.cfi_offset 4, -4
 554              		.loc 1 217 0
 555 0012 5A60     		str	r2, [r3, #4]
 556              		.loc 1 219 0
 557 0014 9964     		str	r1, [r3, #72]
 558              		.loc 1 221 0
 559 0016 1A60     		str	r2, [r3, #0]
 560              	.L73:
ARM GAS  /tmp/ccZwcdmm.s 			page 11


 561              		.loc 1 223 0 discriminator 1
 562 0018 A26E     		ldr	r2, [r4, #104]
 563 001a 12F4806F 		tst	r2, #1024
 564 001e FBD0     		beq	.L73
 565              		.loc 1 224 0
 566 0020 10BC     		pop	{r4}
 567 0022 7047     		bx	lr
 568              	.L76:
 569              		.align	2
 570              	.L75:
 571 0024 00040E40 		.word	1074660352
 572 0028 00434D50 		.word	1347240704
 573              		.cfi_endproc
 574              	.LFE6:
 575              		.size	ConfigurePck, .-ConfigurePck
 576 002c AFF30080 		.section	.text.PmcMainClockSwitchMainOsc,"ax",%progbits
 577              		.align	2
 578              		.p2align 4,,15
 579              		.global	PmcMainClockSwitchMainOsc
 580              		.thumb
 581              		.thumb_func
 582              		.type	PmcMainClockSwitchMainOsc, %function
 583              	PmcMainClockSwitchMainOsc:
 584              	.LFB7:
 585              		.loc 1 228 0
 586              		.cfi_startproc
 587              		@ args = 0, pretend = 0, frame = 0
 588              		@ frame_needed = 0, uses_anonymous_args = 0
 589              		@ link register save eliminated.
 590              		.loc 1 232 0
 591 0000 0A4B     		ldr	r3, .L84
 592 0002 0B49     		ldr	r1, .L84+4
 593              		.loc 1 235 0
 594 0004 0022     		movs	r2, #0
 595              		.loc 1 232 0
 596 0006 1962     		str	r1, [r3, #32]
 597              	.LVL53:
 598              		.loc 1 235 0
 599 0008 0BE0     		b	.L79
 600              	.LVL54:
 601              	.L83:
 602              		.loc 1 235 0 is_stmt 0 discriminator 2
 603 000a B2F1FF3F 		cmp	r2, #-1
 604 000e 0CD0     		beq	.L77
 605              	.LVL55:
 606              		.loc 1 235 0
 607 0010 996E     		ldr	r1, [r3, #104]
 608 0012 0332     		adds	r2, r2, #3
 609              	.LVL56:
 610 0014 11F4803F 		tst	r1, #65536
 611 0018 07D1     		bne	.L77
 612              	.LVL57:
 613 001a 986E     		ldr	r0, [r3, #104]
 614 001c 10F4803F 		tst	r0, #65536
 615 0020 03D1     		bne	.L77
 616              	.LVL58:
 617              	.L79:
ARM GAS  /tmp/ccZwcdmm.s 			page 12


 618              		.loc 1 235 0 discriminator 1
 619 0022 986E     		ldr	r0, [r3, #104]
 620 0024 10F4803F 		tst	r0, #65536
 621 0028 EFD0     		beq	.L83
 622              	.LVL59:
 623              	.L77:
 624 002a 7047     		bx	lr
 625              	.L85:
 626              		.align	2
 627              	.L84:
 628 002c 00040E40 		.word	1074660352
 629 0030 09083701 		.word	20383753
 630              		.cfi_endproc
 631              	.LFE7:
 632              		.size	PmcMainClockSwitchMainOsc, .-PmcMainClockSwitchMainOsc
 633 0034 AFF30080 		.section	.text.PmcConfigurePllClock,"ax",%progbits
 633      AFF30080 
 633      AFF30080 
 634              		.align	2
 635              		.p2align 4,,15
 636              		.global	PmcConfigurePllClock
 637              		.thumb
 638              		.thumb_func
 639              		.type	PmcConfigurePllClock, %function
 640              	PmcConfigurePllClock:
 641              	.LFB8:
 642              		.loc 1 240 0 is_stmt 1
 643              		.cfi_startproc
 644              		@ args = 0, pretend = 0, frame = 0
 645              		@ frame_needed = 0, uses_anonymous_args = 0
 646              		@ link register save eliminated.
 647              	.LVL60:
 648 0000 10B4     		push	{r4}
 649              	.LCFI5:
 650              		.cfi_def_cfa_offset 4
 651              		.loc 1 243 0
 652 0002 F8B9     		cbnz	r0, .L87
 653              		.cfi_offset 4, -4
 654              		.loc 1 246 0
 655 0004 1E4C     		ldr	r4, .L99
 656 0006 0B04     		lsls	r3, r1, #16
 657 0008 42F0005C 		orr	ip, r2, #536870912
 658 000c 03EA0404 		and	r4, r3, r4
 659 0010 4CF4F852 		orr	r2, ip, #7936
 660              	.LVL61:
 661 0014 1B4B     		ldr	r3, .L99+4
 662 0016 42EA0404 		orr	r4, r2, r4
 663 001a 9C62     		str	r4, [r3, #40]
 664              		.loc 1 249 0
 665 001c 69B9     		cbnz	r1, .L89
 666              	.LVL62:
 667              	.L86:
 668              		.loc 1 268 0
 669 001e 10BC     		pop	{r4}
 670 0020 7047     		bx	lr
 671              	.LVL63:
 672              	.L97:
ARM GAS  /tmp/ccZwcdmm.s 			page 13


 673              		.loc 1 252 0 discriminator 2
 674 0022 B0F1FF3F 		cmp	r0, #-1
 675 0026 FAD0     		beq	.L86
 676              	.LVL64:
 677              		.loc 1 252 0 is_stmt 0
 678 0028 9A6E     		ldr	r2, [r3, #104]
 679 002a 0330     		adds	r0, r0, #3
 680              	.LVL65:
 681 002c 12F0020F 		tst	r2, #2
 682 0030 F5D1     		bne	.L86
 683              	.LVL66:
 684 0032 9A6E     		ldr	r2, [r3, #104]
 685 0034 12F0020F 		tst	r2, #2
 686 0038 F1D1     		bne	.L86
 687              	.LVL67:
 688              	.L89:
 689              		.loc 1 252 0 discriminator 1
 690 003a 996E     		ldr	r1, [r3, #104]
 691 003c 11F0020F 		tst	r1, #2
 692 0040 EFD0     		beq	.L97
 693 0042 ECE7     		b	.L86
 694              	.LVL68:
 695              	.L87:
 696              		.loc 1 256 0 is_stmt 1
 697 0044 0128     		cmp	r0, #1
 698 0046 EAD1     		bne	.L86
 699              		.loc 1 259 0
 700 0048 0D48     		ldr	r0, .L99
 701              	.LVL69:
 702 004a 42F00052 		orr	r2, r2, #536870912
 703              	.LVL70:
 704 004e 0C04     		lsls	r4, r1, #16
 705 0050 42F4F85C 		orr	ip, r2, #7936
 706 0054 04EA0003 		and	r3, r4, r0
 707 0058 0A4A     		ldr	r2, .L99+4
 708 005a 4CEA0300 		orr	r0, ip, r3
 709 005e D062     		str	r0, [r2, #44]
 710              		.loc 1 262 0
 711 0060 0029     		cmp	r1, #0
 712 0062 DCD0     		beq	.L86
 713              		.loc 1 262 0 is_stmt 0 discriminator 1
 714 0064 0023     		movs	r3, #0
 715 0066 05E0     		b	.L90
 716              	.LVL71:
 717              	.L98:
 718              		.loc 1 265 0 is_stmt 1 discriminator 2
 719 0068 906E     		ldr	r0, [r2, #104]
 720 006a 10F0040F 		tst	r0, #4
 721 006e D6D1     		bne	.L86
 722              		.loc 1 265 0 is_stmt 0
 723 0070 013B     		subs	r3, r3, #1
 724 0072 D4D0     		beq	.L86
 725              	.L90:
 726              		.loc 1 265 0 discriminator 1
 727 0074 916E     		ldr	r1, [r2, #104]
 728 0076 013B     		subs	r3, r3, #1
 729 0078 11F0040F 		tst	r1, #4
ARM GAS  /tmp/ccZwcdmm.s 			page 14


 730 007c F4D0     		beq	.L98
 731 007e CEE7     		b	.L86
 732              	.L100:
 733              		.align	2
 734              	.L99:
 735 0080 0000FF07 		.word	134152192
 736 0084 00040E40 		.word	1074660352
 737              		.cfi_endproc
 738              	.LFE8:
 739              		.size	PmcConfigurePllClock, .-PmcConfigurePllClock
 740 0088 AFF30080 		.section	.rodata.__func__.4648,"a",%progbits
 740      AFF30080 
 741              		.align	2
 742              		.set	.LANCHOR2,. + 0
 743              		.type	__func__.4648, %object
 744              		.size	__func__.4648, 20
 745              	__func__.4648:
 746 0000 504D435F 		.ascii	"PMC_IsPeriphEnabled\000"
 746      49735065 
 746      72697068 
 746      456E6162 
 746      6C656400 
 747              		.section	.rodata.__func__.4622,"a",%progbits
 748              		.align	2
 749              		.set	.LANCHOR0,. + 0
 750              		.type	__func__.4622, %object
 751              		.size	__func__.4622, 21
 752              	__func__.4622:
 753 0000 504D435F 		.ascii	"PMC_EnablePeripheral\000"
 753      456E6162 
 753      6C655065 
 753      72697068 
 753      6572616C 
 754 0015 000000   		.section	.rodata.str1.4,"aMS",%progbits,1
 755              		.align	2
 756              	.LC0:
 757 0000 2F686F6D 		.ascii	"/home/jairom/Documentos/Proyectos/Embebidos/Robocop"
 757      652F6A61 
 757      69726F6D 
 757      2F446F63 
 757      756D656E 
 758 0033 2F536F75 		.ascii	"/Source/code/matrix-creator-mcu/third_party/ChibiOS"
 758      7263652F 
 758      636F6465 
 758      2F6D6174 
 758      7269782D 
 759 0066 2F6F732F 		.ascii	"/os/hal/platforms/AT91SAM3S/pmc.c\000"
 759      68616C2F 
 759      706C6174 
 759      666F726D 
 759      732F4154 
 760              	.LC1:
 761 0088 64774964 		.ascii	"dwId < 35\000"
 761      203C2033 
 761      3500
 762 0092 0000     		.section	.rodata.__func__.4626,"a",%progbits
 763              		.align	2
ARM GAS  /tmp/ccZwcdmm.s 			page 15


 764              		.set	.LANCHOR1,. + 0
 765              		.type	__func__.4626, %object
 766              		.size	__func__.4626, 22
 767              	__func__.4626:
 768 0000 504D435F 		.ascii	"PMC_DisablePeripheral\000"
 768      44697361 
 768      626C6550 
 768      65726970 
 768      68657261 
 769 0016 0000     		.text
 770              	.Letext0:
