ARM GAS  /tmp/ccqFOja6.s 			page 1


   1              		.syntax unified
   2              		.cpu cortex-m3
   3              		.fpu softvfp
   4              		.eabi_attribute 20, 1
   5              		.eabi_attribute 21, 1
   6              		.eabi_attribute 23, 3
   7              		.eabi_attribute 24, 1
   8              		.eabi_attribute 25, 1
   9              		.eabi_attribute 26, 1
  10              		.eabi_attribute 30, 2
  11              		.eabi_attribute 18, 4
  12              		.thumb
  13              		.file	"serial_lld.c"
  14              		.section	.debug_abbrev,"",%progbits
  15              	.Ldebug_abbrev0:
  16              		.section	.debug_info,"",%progbits
  17              	.Ldebug_info0:
  18              		.section	.debug_line,"",%progbits
  19              	.Ldebug_line0:
  20 0000 51050000 		.text
  20      02001104 
  20      00000201 
  20      FB0E0D00 
  20      01010101 
  21              	.Ltext0:
  22              		.cfi_sections	.debug_frame
  23              		.section	.text.notify1,"ax",%progbits
  24              		.align	2
  25              		.p2align 4,,15
  26              		.thumb
  27              		.thumb_func
  28              		.type	notify1, %function
  29              	notify1:
  30              	.LFB40:
  31              		.file 1 "/home/jairom/Documentos/Proyectos/Embebidos/Robocop/Source/code/matrix-creator-mcu/third_
  32              		.loc 1 174 0
  33              		.cfi_startproc
  34              		@ args = 0, pretend = 0, frame = 0
  35              		@ frame_needed = 0, uses_anonymous_args = 0
  36              		@ link register save eliminated.
  37              	.LVL0:
  38              		.loc 1 177 0
  39 0000 014B     		ldr	r3, .L2
  40 0002 0222     		movs	r2, #2
  41 0004 9A60     		str	r2, [r3, #8]
  42              		.loc 1 178 0
  43 0006 7047     		bx	lr
  44              	.L3:
  45              		.align	2
  46              	.L2:
  47 0008 00060E40 		.word	1074660864
  48              		.cfi_endproc
  49              	.LFE40:
  50              		.size	notify1, .-notify1
  51 000c AFF30080 		.section	.text.notify2,"ax",%progbits
  52              		.align	2
  53              		.p2align 4,,15
ARM GAS  /tmp/ccqFOja6.s 			page 2


  54              		.thumb
  55              		.thumb_func
  56              		.type	notify2, %function
  57              	notify2:
  58              	.LFB41:
  59              		.loc 1 183 0
  60              		.cfi_startproc
  61              		@ args = 0, pretend = 0, frame = 0
  62              		@ frame_needed = 0, uses_anonymous_args = 0
  63              		@ link register save eliminated.
  64              	.LVL1:
  65              		.loc 1 186 0
  66 0000 014B     		ldr	r3, .L5
  67 0002 0222     		movs	r2, #2
  68 0004 9A60     		str	r2, [r3, #8]
  69              		.loc 1 187 0
  70 0006 7047     		bx	lr
  71              	.L6:
  72              		.align	2
  73              	.L5:
  74 0008 00080E40 		.word	1074661376
  75              		.cfi_endproc
  76              	.LFE41:
  77              		.size	notify2, .-notify2
  78 000c AFF30080 		.section	.text.serve_interrupt,"ax",%progbits
  79              		.align	2
  80              		.p2align 4,,15
  81              		.thumb
  82              		.thumb_func
  83              		.type	serve_interrupt, %function
  84              	serve_interrupt:
  85              	.LFB39:
  86              		.loc 1 136 0
  87              		.cfi_startproc
  88              		@ args = 0, pretend = 0, frame = 0
  89              		@ frame_needed = 0, uses_anonymous_args = 0
  90              	.LVL2:
  91 0000 70B5     		push	{r4, r5, r6, lr}
  92              	.LCFI0:
  93              		.cfi_def_cfa_offset 16
  94              		.loc 1 138 0
  95 0002 056F     		ldr	r5, [r0, #112]
  96              		.cfi_offset 14, -4
  97              		.cfi_offset 6, -8
  98              		.cfi_offset 5, -12
  99              		.cfi_offset 4, -16
 100              	.LVL3:
 101              		.loc 1 136 0
 102 0004 0646     		mov	r6, r0
 103              		.loc 1 141 0
 104 0006 6C69     		ldr	r4, [r5, #20]
 105              	.LVL4:
 106              		.loc 1 144 0
 107 0008 14F0010F 		tst	r4, #1
 108 000c 2BD1     		bne	.L18
 109              	.LVL5:
 110              	.L8:
ARM GAS  /tmp/ccqFOja6.s 			page 3


 111              		.loc 1 151 0
 112 000e 2B69     		ldr	r3, [r5, #16]
 113              	.LVL6:
 114 0010 13F0020F 		tst	r3, #2
 115 0014 02D0     		beq	.L9
 116              		.loc 1 151 0 is_stmt 0 discriminator 1
 117 0016 14F0020F 		tst	r4, #2
 118 001a 2FD1     		bne	.L19
 119              	.LVL7:
 120              	.L9:
 121              		.loc 1 167 0 is_stmt 1
 122 001c 14F0E004 		ands	r4, r4, #224
 123              	.LVL8:
 124 0020 20D0     		beq	.L7
 125              	.LVL9:
 126              	.LBB17:
 127              	.LBB18:
 128              		.loc 1 120 0
 129 0022 A4B2     		uxth	r4, r4
 130              	.LVL10:
 131 0024 14F0200C 		ands	ip, r4, #32
 132              		.loc 1 121 0
 133 0028 18BF     		it	ne
 134 002a 4FF0800C 		movne	ip, #128
 135              	.LVL11:
 136              		.loc 1 122 0
 137 002e 14F0800F 		tst	r4, #128
 138              		.loc 1 123 0
 139 0032 18BF     		it	ne
 140 0034 4CF0200C 		orrne	ip, ip, #32
 141              	.LVL12:
 142              		.loc 1 124 0
 143 0038 14F0400F 		tst	r4, #64
 144              		.loc 1 125 0
 145 003c 18BF     		it	ne
 146 003e 4CF0400C 		orrne	ip, ip, #64
 147              	.LVL13:
 148              	.LBB19:
 149              		.loc 1 126 0
 150 0042 2023     		movs	r3, #32
 151              	.LVL14:
 152              	@ 126 "/home/jairom/Documentos/Proyectos/Embebidos/Robocop/Source/code/matrix-creator-mcu/third_par
 153 0044 83F31188 		msr     BASEPRI, r3
 154              	@ 0 "" 2
 155              	.LVL15:
 156              		.thumb
 157              	.LBE19:
 158              		.loc 1 127 0
 159 0048 B168     		ldr	r1, [r6, #8]
 160 004a 301D     		adds	r0, r6, #4
 161 004c 41EA0C02 		orr	r2, r1, ip
 162 0050 B260     		str	r2, [r6, #8]
 163 0052 0021     		movs	r1, #0
 164 0054 FFF7FEFF 		bl	chEvtBroadcastFlagsI
 165              	.LVL16:
 166              	.LBB20:
 167              		.loc 1 128 0
ARM GAS  /tmp/ccqFOja6.s 			page 4


 168 0058 0023     		movs	r3, #0
 169              	.LVL17:
 170              	@ 128 "/home/jairom/Documentos/Proyectos/Embebidos/Robocop/Source/code/matrix-creator-mcu/third_par
 171 005a 83F31188 		msr     BASEPRI, r3
 172              	@ 0 "" 2
 173              	.LVL18:
 174              		.thumb
 175              	.LBE20:
 176              	.LBE18:
 177              	.LBE17:
 178              		.loc 1 169 0
 179 005e 4FF48073 		mov	r3, #256
 180              	.LVL19:
 181 0062 2B60     		str	r3, [r5, #0]
 182              	.LVL20:
 183              	.L7:
 184 0064 70BD     		pop	{r4, r5, r6, pc}
 185              	.LVL21:
 186              	.L18:
 187              	.LBB21:
 188              		.loc 1 145 0
 189 0066 2023     		movs	r3, #32
 190              	.LVL22:
 191              	@ 145 "/home/jairom/Documentos/Proyectos/Embebidos/Robocop/Source/code/matrix-creator-mcu/third_par
 192 0068 83F31188 		msr     BASEPRI, r3
 193              	@ 0 "" 2
 194              	.LVL23:
 195              		.thumb
 196              	.LBE21:
 197              		.loc 1 146 0
 198 006c A969     		ldr	r1, [r5, #24]
 199 006e C9B2     		uxtb	r1, r1
 200 0070 FFF7FEFF 		bl	sdIncomingDataI
 201              	.LVL24:
 202              	.LBB22:
 203              		.loc 1 147 0
 204 0074 0023     		movs	r3, #0
 205              	@ 147 "/home/jairom/Documentos/Proyectos/Embebidos/Robocop/Source/code/matrix-creator-mcu/third_par
 206 0076 83F31188 		msr     BASEPRI, r3
 207              	@ 0 "" 2
 208              	.LVL25:
 209              		.thumb
 210 007a C8E7     		b	.L8
 211              	.LVL26:
 212              	.L19:
 213              	.LBE22:
 214              	.LBB23:
 215              	.LBB24:
 216              		.loc 1 154 0
 217 007c 2023     		movs	r3, #32
 218              	.LVL27:
 219              	@ 154 "/home/jairom/Documentos/Proyectos/Embebidos/Robocop/Source/code/matrix-creator-mcu/third_par
 220 007e 83F31188 		msr     BASEPRI, r3
 221              	@ 0 "" 2
 222              	.LVL28:
 223              		.thumb
 224              	.LBE24:
ARM GAS  /tmp/ccqFOja6.s 			page 5


 225              		.loc 1 155 0
 226 0082 06F13000 		add	r0, r6, #48
 227 0086 FFF7FEFF 		bl	chOQGetI
 228              	.LVL29:
 229              		.loc 1 156 0
 230 008a 0028     		cmp	r0, #0
 231 008c 04DB     		blt	.L20
 232              		.loc 1 161 0
 233 008e E861     		str	r0, [r5, #28]
 234              	.LVL30:
 235              	.L11:
 236              	.LBB25:
 237              		.loc 1 162 0
 238 0090 0023     		movs	r3, #0
 239              	@ 162 "/home/jairom/Documentos/Proyectos/Embebidos/Robocop/Source/code/matrix-creator-mcu/third_par
 240 0092 83F31188 		msr     BASEPRI, r3
 241              	@ 0 "" 2
 242              	.LVL31:
 243              		.thumb
 244 0096 C1E7     		b	.L9
 245              	.LVL32:
 246              	.L20:
 247              	.LBE25:
 248              		.loc 1 157 0
 249 0098 B168     		ldr	r1, [r6, #8]
 250 009a 301D     		adds	r0, r6, #4
 251              	.LVL33:
 252 009c 41F00802 		orr	r2, r1, #8
 253 00a0 B260     		str	r2, [r6, #8]
 254 00a2 0021     		movs	r1, #0
 255 00a4 FFF7FEFF 		bl	chEvtBroadcastFlagsI
 256              		.loc 1 158 0
 257 00a8 0220     		movs	r0, #2
 258 00aa E860     		str	r0, [r5, #12]
 259 00ac F0E7     		b	.L11
 260              	.LBE23:
 261              		.cfi_endproc
 262              	.LFE39:
 263              		.size	serve_interrupt, .-serve_interrupt
 264 00ae 00BF     		.section	.text.Vector60,"ax",%progbits
 265              		.align	2
 266              		.p2align 4,,15
 267              		.global	Vector60
 268              		.thumb
 269              		.thumb_func
 270              		.type	Vector60, %function
 271              	Vector60:
 272              	.LFB42:
 273              		.loc 1 201 0
 274              		.cfi_startproc
 275              		@ args = 0, pretend = 0, frame = 0
 276              		@ frame_needed = 0, uses_anonymous_args = 0
 277 0000 10B5     		push	{r4, lr}
 278              	.LCFI1:
 279              		.cfi_def_cfa_offset 8
 280              		.loc 1 205 0
 281 0002 0348     		ldr	r0, .L22
ARM GAS  /tmp/ccqFOja6.s 			page 6


 282              		.cfi_offset 14, -4
 283              		.cfi_offset 4, -8
 284 0004 FFF7FEFF 		bl	serve_interrupt
 285              		.loc 1 208 0
 286 0008 BDE81040 		pop	{r4, lr}
 287              		.loc 1 207 0
 288 000c FFF7FEBF 		b	_port_irq_epilogue
 289              	.L23:
 290              		.align	2
 291              	.L22:
 292 0010 00000000 		.word	.LANCHOR0
 293              		.cfi_endproc
 294              	.LFE42:
 295              		.size	Vector60, .-Vector60
 296 0014 AFF30080 		.section	.text.Vector64,"ax",%progbits
 296      AFF30080 
 296      AFF30080 
 297              		.align	2
 298              		.p2align 4,,15
 299              		.global	Vector64
 300              		.thumb
 301              		.thumb_func
 302              		.type	Vector64, %function
 303              	Vector64:
 304              	.LFB43:
 305              		.loc 1 218 0
 306              		.cfi_startproc
 307              		@ args = 0, pretend = 0, frame = 0
 308              		@ frame_needed = 0, uses_anonymous_args = 0
 309 0000 10B5     		push	{r4, lr}
 310              	.LCFI2:
 311              		.cfi_def_cfa_offset 8
 312              		.loc 1 222 0
 313 0002 0348     		ldr	r0, .L25
 314              		.cfi_offset 14, -4
 315              		.cfi_offset 4, -8
 316 0004 FFF7FEFF 		bl	serve_interrupt
 317              		.loc 1 225 0
 318 0008 BDE81040 		pop	{r4, lr}
 319              		.loc 1 224 0
 320 000c FFF7FEBF 		b	_port_irq_epilogue
 321              	.L26:
 322              		.align	2
 323              	.L25:
 324 0010 00000000 		.word	.LANCHOR1
 325              		.cfi_endproc
 326              	.LFE43:
 327              		.size	Vector64, .-Vector64
 328 0014 AFF30080 		.section	.text.sd_lld_init,"ax",%progbits
 328      AFF30080 
 328      AFF30080 
 329              		.align	2
 330              		.p2align 4,,15
 331              		.global	sd_lld_init
 332              		.thumb
 333              		.thumb_func
 334              		.type	sd_lld_init, %function
ARM GAS  /tmp/ccqFOja6.s 			page 7


 335              	sd_lld_init:
 336              	.LFB44:
 337              		.loc 1 238 0
 338              		.cfi_startproc
 339              		@ args = 0, pretend = 0, frame = 0
 340              		@ frame_needed = 0, uses_anonymous_args = 0
 341 0000 F8B5     		push	{r3, r4, r5, r6, r7, lr}
 342              	.LCFI3:
 343              		.cfi_def_cfa_offset 24
 344              		.loc 1 241 0
 345 0002 0D4D     		ldr	r5, .L28
 346              		.cfi_offset 14, -4
 347              		.cfi_offset 7, -8
 348              		.cfi_offset 6, -12
 349              		.cfi_offset 5, -16
 350              		.cfi_offset 4, -20
 351              		.cfi_offset 3, -24
 352 0004 0021     		movs	r1, #0
 353 0006 2846     		mov	r0, r5
 354 0008 0C4A     		ldr	r2, .L28+4
 355 000a FFF7FEFF 		bl	sdObjectInit
 356              		.loc 1 248 0
 357 000e 0C4C     		ldr	r4, .L28+8
 358              		.loc 1 243 0
 359 0010 0C4B     		ldr	r3, .L28+12
 360              		.loc 1 242 0
 361 0012 0D4F     		ldr	r7, .L28+16
 362              		.loc 1 243 0
 363 0014 4FF4C066 		mov	r6, #1536
 364 0018 5E60     		str	r6, [r3, #4]
 365              		.loc 1 248 0
 366 001a 0021     		movs	r1, #0
 367 001c 0B4A     		ldr	r2, .L28+20
 368              		.loc 1 242 0
 369 001e 2F67     		str	r7, [r5, #112]
 370              		.loc 1 248 0
 371 0020 2046     		mov	r0, r4
 372              		.loc 1 244 0
 373 0022 1E66     		str	r6, [r3, #96]
 374              		.loc 1 248 0
 375 0024 FFF7FEFF 		bl	sdObjectInit
 376              		.loc 1 250 0
 377 0028 094B     		ldr	r3, .L28+24
 378              		.loc 1 249 0
 379 002a 0A49     		ldr	r1, .L28+28
 380              		.loc 1 250 0
 381 002c 0C22     		movs	r2, #12
 382 002e 5A60     		str	r2, [r3, #4]
 383              		.loc 1 249 0
 384 0030 2167     		str	r1, [r4, #112]
 385              		.loc 1 251 0
 386 0032 1A66     		str	r2, [r3, #96]
 387              		.loc 1 254 0
 388 0034 F8BD     		pop	{r3, r4, r5, r6, r7, pc}
 389              	.L29:
 390 0036 00BF     		.align	2
 391              	.L28:
ARM GAS  /tmp/ccqFOja6.s 			page 8


 392 0038 00000000 		.word	.LANCHOR0
 393 003c 00000000 		.word	notify1
 394 0040 00000000 		.word	.LANCHOR1
 395 0044 000E0E40 		.word	1074662912
 396 0048 00060E40 		.word	1074660864
 397 004c 00000000 		.word	notify2
 398 0050 00100E40 		.word	1074663424
 399 0054 00080E40 		.word	1074661376
 400              		.cfi_endproc
 401              	.LFE44:
 402              		.size	sd_lld_init, .-sd_lld_init
 403 0058 AFF30080 		.section	.text.sd_lld_start,"ax",%progbits
 403      AFF30080 
 404              		.align	2
 405              		.p2align 4,,15
 406              		.global	sd_lld_start
 407              		.thumb
 408              		.thumb_func
 409              		.type	sd_lld_start, %function
 410              	sd_lld_start:
 411              	.LFB45:
 412              		.loc 1 266 0
 413              		.cfi_startproc
 414              		@ args = 0, pretend = 0, frame = 0
 415              		@ frame_needed = 0, uses_anonymous_args = 0
 416              	.LVL34:
 417 0000 38B5     		push	{r3, r4, r5, lr}
 418              	.LCFI4:
 419              		.cfi_def_cfa_offset 16
 420              		.loc 1 271 0
 421 0002 037B     		ldrb	r3, [r0, #12]	@ zero_extendqisi2
 422              		.cfi_offset 14, -4
 423              		.cfi_offset 5, -8
 424              		.cfi_offset 4, -12
 425              		.cfi_offset 3, -16
 426              		.loc 1 269 0
 427 0004 204D     		ldr	r5, .L37
 428              		.loc 1 266 0
 429 0006 0446     		mov	r4, r0
 430              		.loc 1 269 0
 431 0008 0029     		cmp	r1, #0
 432 000a 18BF     		it	ne
 433 000c 0D46     		movne	r5, r1
 434              	.LVL35:
 435              		.loc 1 271 0
 436 000e 012B     		cmp	r3, #1
 437 0010 16D0     		beq	.L35
 438              	.LVL36:
 439              	.L32:
 440              		.loc 1 355 0
 441 0012 246F     		ldr	r4, [r4, #112]
 442              	.LVL37:
 443              	.LBB26:
 444              	.LBB27:
 445              		.loc 1 81 0
 446 0014 FFF7FEFF 		bl	SystemCoreClockUpdate
 447              		.loc 1 82 0
ARM GAS  /tmp/ccqFOja6.s 			page 9


 448 0018 1C4B     		ldr	r3, .L37+4
 449              		.loc 1 89 0
 450 001a 2968     		ldr	r1, [r5, #0]
 451              		.loc 1 82 0
 452 001c 1868     		ldr	r0, [r3, #0]
 453              	.LVL38:
 454              		.loc 1 89 0
 455 001e 0A01     		lsls	r2, r1, #4
 456              		.loc 1 90 0
 457 0020 6B68     		ldr	r3, [r5, #4]
 458              	.LVL39:
 459              		.loc 1 89 0
 460 0022 B0FBF2F2 		udiv	r2, r0, r2
 461              		.loc 1 85 0
 462 0026 4FF0FF31 		mov	r1, #-1
 463              		.loc 1 86 0
 464 002a 4FF48670 		mov	r0, #268
 465              		.loc 1 85 0
 466 002e E160     		str	r1, [r4, #12]
 467              		.loc 1 86 0
 468 0030 2060     		str	r0, [r4, #0]
 469              		.loc 1 93 0
 470 0032 5021     		movs	r1, #80
 471              		.loc 1 94 0
 472 0034 E320     		movs	r0, #227
 473              		.loc 1 89 0
 474 0036 2262     		str	r2, [r4, #32]
 475              		.loc 1 90 0
 476 0038 6360     		str	r3, [r4, #4]
 477              		.loc 1 93 0
 478 003a 2160     		str	r1, [r4, #0]
 479              		.loc 1 94 0
 480 003c A060     		str	r0, [r4, #8]
 481              	.LBE27:
 482              	.LBE26:
 483              		.loc 1 306 0
 484 003e 38BD     		pop	{r3, r4, r5, pc}
 485              	.LVL40:
 486              	.L35:
 487              		.loc 1 273 0
 488 0040 1349     		ldr	r1, .L37+8
 489 0042 8842     		cmp	r0, r1
 490 0044 11D0     		beq	.L36
 491              		.loc 1 289 0
 492 0046 1349     		ldr	r1, .L37+12
 493 0048 8842     		cmp	r0, r1
 494 004a E2D1     		bne	.L32
 495              		.loc 1 294 0
 496 004c 124B     		ldr	r3, .L37+16
 497 004e 134A     		ldr	r2, .L37+20
 498              		.loc 1 300 0
 499 0050 0920     		movs	r0, #9
 500              	.LVL41:
 501              		.loc 1 294 0
 502 0052 C3F8E420 		str	r2, [r3, #228]
 503              		.loc 1 295 0
 504 0056 4FF40072 		mov	r2, #512
ARM GAS  /tmp/ccqFOja6.s 			page 10


 505 005a 1A61     		str	r2, [r3, #16]
 506              		.loc 1 296 0
 507 005c 104A     		ldr	r2, .L37+24
 508              		.loc 1 300 0
 509 005e C021     		movs	r1, #192
 510              		.loc 1 296 0
 511 0060 C3F8E420 		str	r2, [r3, #228]
 512              		.loc 1 300 0
 513 0064 FFF7FEFF 		bl	nvicEnableVector
 514 0068 D3E7     		b	.L32
 515              	.L36:
 516              		.loc 1 278 0
 517 006a 0B4B     		ldr	r3, .L37+16
 518 006c 0B4A     		ldr	r2, .L37+20
 519              		.loc 1 284 0
 520 006e 0820     		movs	r0, #8
 521              		.loc 1 278 0
 522 0070 C3F8E420 		str	r2, [r3, #228]
 523              		.loc 1 279 0
 524 0074 4FF48072 		mov	r2, #256
 525 0078 1A61     		str	r2, [r3, #16]
 526              		.loc 1 280 0
 527 007a 094A     		ldr	r2, .L37+24
 528              		.loc 1 284 0
 529 007c C021     		movs	r1, #192
 530              		.loc 1 280 0
 531 007e C3F8E420 		str	r2, [r3, #228]
 532              		.loc 1 284 0
 533 0082 FFF7FEFF 		bl	nvicEnableVector
 534 0086 C4E7     		b	.L32
 535              	.L38:
 536              		.align	2
 537              	.L37:
 538 0088 00000000 		.word	.LANCHOR2
 539 008c 00000000 		.word	SystemCoreClock
 540 0090 00000000 		.word	.LANCHOR0
 541 0094 00000000 		.word	.LANCHOR1
 542 0098 00040E40 		.word	1074660352
 543 009c 00434D50 		.word	1347240704
 544 00a0 01434D50 		.word	1347240705
 545              		.cfi_endproc
 546              	.LFE45:
 547              		.size	sd_lld_start, .-sd_lld_start
 548 00a4 AFF30080 		.section	.text.sd_lld_stop,"ax",%progbits
 548      AFF30080 
 548      AFF30080 
 549              		.align	2
 550              		.p2align 4,,15
 551              		.global	sd_lld_stop
 552              		.thumb
 553              		.thumb_func
 554              		.type	sd_lld_stop, %function
 555              	sd_lld_stop:
 556              	.LFB46:
 557              		.loc 1 317 0
 558              		.cfi_startproc
 559              		@ args = 0, pretend = 0, frame = 0
ARM GAS  /tmp/ccqFOja6.s 			page 11


 560              		@ frame_needed = 0, uses_anonymous_args = 0
 561              		@ link register save eliminated.
 562              	.LVL42:
 563              		.loc 1 319 0
 564 0000 037B     		ldrb	r3, [r0, #12]	@ zero_extendqisi2
 565              		.loc 1 317 0
 566 0002 30B4     		push	{r4, r5}
 567              	.LCFI5:
 568              		.cfi_def_cfa_offset 8
 569              		.loc 1 319 0
 570 0004 022B     		cmp	r3, #2
 571 0006 01D0     		beq	.L44
 572              		.cfi_offset 5, -4
 573              		.cfi_offset 4, -8
 574              	.L39:
 575              		.loc 1 355 0
 576 0008 30BC     		pop	{r4, r5}
 577 000a 7047     		bx	lr
 578              	.LVL43:
 579              	.L44:
 580              		.loc 1 322 0
 581 000c 134D     		ldr	r5, .L46
 582              	.LVL44:
 583              		.loc 1 320 0
 584 000e 036F     		ldr	r3, [r0, #112]
 585              	.LVL45:
 586              	.LBB28:
 587              	.LBB29:
 588              		.loc 1 108 0
 589 0010 0022     		movs	r2, #0
 590              		.loc 1 106 0
 591 0012 4FF0FF34 		mov	r4, #-1
 592              		.loc 1 107 0
 593 0016 4FF48671 		mov	r1, #268
 594              	.LBE29:
 595              	.LBE28:
 596              		.loc 1 322 0
 597 001a A842     		cmp	r0, r5
 598              	.LBB31:
 599              	.LBB30:
 600              		.loc 1 106 0
 601 001c DC60     		str	r4, [r3, #12]
 602              		.loc 1 107 0
 603 001e 1960     		str	r1, [r3, #0]
 604              		.loc 1 108 0
 605 0020 5A60     		str	r2, [r3, #4]
 606              	.LBE30:
 607              	.LBE31:
 608              		.loc 1 322 0
 609 0022 13D0     		beq	.L45
 610              	.LVL46:
 611              	.LBB32:
 612              	.LBB33:
 613              		.loc 1 106 0
 614 0024 DC60     		str	r4, [r3, #12]
 615              		.loc 1 107 0
 616 0026 1960     		str	r1, [r3, #0]
ARM GAS  /tmp/ccqFOja6.s 			page 12


 617              		.loc 1 108 0
 618 0028 5A60     		str	r2, [r3, #4]
 619              	.LBE33:
 620              	.LBE32:
 621              		.loc 1 340 0
 622 002a 0D4B     		ldr	r3, .L46+4
 623 002c 9842     		cmp	r0, r3
 624 002e EBD1     		bne	.L39
 625              		.loc 1 345 0
 626 0030 0C4B     		ldr	r3, .L46+8
 627 0032 0D49     		ldr	r1, .L46+12
 628              		.loc 1 349 0
 629 0034 0920     		movs	r0, #9
 630              	.LVL47:
 631              		.loc 1 345 0
 632 0036 C3F8E410 		str	r1, [r3, #228]
 633              		.loc 1 346 0
 634 003a 4FF40072 		mov	r2, #512
 635              	.L43:
 636 003e 5A61     		str	r2, [r3, #20]
 637              		.loc 1 347 0
 638 0040 0A4A     		ldr	r2, .L46+16
 639 0042 C3F8E420 		str	r2, [r3, #228]
 640              		.loc 1 355 0
 641 0046 30BC     		pop	{r4, r5}
 642              		.loc 1 349 0
 643 0048 FFF7FEBF 		b	nvicDisableVector
 644              	.LVL48:
 645              	.L45:
 646              		.loc 1 327 0
 647 004c 064A     		ldr	r2, .L46+12
 648 004e 054B     		ldr	r3, .L46+8
 649              	.LVL49:
 650              		.loc 1 331 0
 651 0050 0820     		movs	r0, #8
 652              	.LVL50:
 653              		.loc 1 327 0
 654 0052 C3F8E420 		str	r2, [r3, #228]
 655              		.loc 1 328 0
 656 0056 4FF48072 		mov	r2, #256
 657 005a F0E7     		b	.L43
 658              	.L47:
 659              		.align	2
 660              	.L46:
 661 005c 00000000 		.word	.LANCHOR0
 662 0060 00000000 		.word	.LANCHOR1
 663 0064 00040E40 		.word	1074660352
 664 0068 00434D50 		.word	1347240704
 665 006c 01434D50 		.word	1347240705
 666              		.cfi_endproc
 667              	.LFE46:
 668              		.size	sd_lld_stop, .-sd_lld_stop
 669              		.global	SD1
 670              		.global	SD2
 671              		.section	.rodata.default_config,"a",%progbits
 672              		.align	2
 673              		.set	.LANCHOR2,. + 0
ARM GAS  /tmp/ccqFOja6.s 			page 13


 674              		.type	default_config, %object
 675              		.size	default_config, 8
 676              	default_config:
 677 0000 00C20100 		.word	115200
 678 0004 00280000 		.word	10240
 679              		.section	.bss.SD1,"aw",%nobits
 680              		.align	2
 681              		.set	.LANCHOR0,. + 0
 682              		.type	SD1, %object
 683              		.size	SD1, 116
 684              	SD1:
 685 0000 00000000 		.space	116
 685      00000000 
 685      00000000 
 685      00000000 
 685      00000000 
 686              		.section	.bss.SD2,"aw",%nobits
 687              		.align	2
 688              		.set	.LANCHOR1,. + 0
 689              		.type	SD2, %object
 690              		.size	SD2, 116
 691              	SD2:
 692 0000 00000000 		.space	116
 692      00000000 
 692      00000000 
 692      00000000 
 692      00000000 
 693              		.text
 694              	.Letext0:
