ARM GAS  /tmp/ccQ8mYDS.s 			page 1


   1              		.syntax unified
   2              		.cpu cortex-m3
   3              		.fpu softvfp
   4              		.eabi_attribute 20, 1
   5              		.eabi_attribute 21, 1
   6              		.eabi_attribute 23, 3
   7              		.eabi_attribute 24, 1
   8              		.eabi_attribute 25, 1
   9              		.eabi_attribute 26, 1
  10              		.eabi_attribute 30, 2
  11              		.eabi_attribute 18, 4
  12              		.thumb
  13              		.file	"system_SAM3.c"
  14              		.section	.debug_abbrev,"",%progbits
  15              	.Ldebug_abbrev0:
  16              		.section	.debug_info,"",%progbits
  17              	.Ldebug_info0:
  18              		.section	.debug_line,"",%progbits
  19              	.Ldebug_line0:
  20 0000 5C020000 		.text
  20      0200CA01 
  20      00000201 
  20      FB0E0D00 
  20      01010101 
  21              	.Ltext0:
  22              		.cfi_sections	.debug_frame
  23              		.section	.text.SystemCoreClockUpdate,"ax",%progbits
  24              		.align	2
  25              		.p2align 4,,15
  26              		.global	SystemCoreClockUpdate
  27              		.thumb
  28              		.thumb_func
  29              		.type	SystemCoreClockUpdate, %function
  30              	SystemCoreClockUpdate:
  31              	.LFB29:
  32              		.file 1 "/home/jairom/Documentos/Proyectos/Embebidos/Robocop/Source/code/matrix-creator-mcu/third_
  33              		.loc 1 360 0
  34              		.cfi_startproc
  35              		@ args = 0, pretend = 0, frame = 0
  36              		@ frame_needed = 0, uses_anonymous_args = 0
  37              		@ link register save eliminated.
  38              		.loc 1 362 0
  39 0000 3A49     		ldr	r1, .L26
  40              		.loc 1 360 0
  41 0002 10B4     		push	{r4}
  42              	.LCFI0:
  43              		.cfi_def_cfa_offset 4
  44              		.loc 1 362 0
  45 0004 0B6B     		ldr	r3, [r1, #48]
  46 0006 03F00303 		and	r3, r3, #3
  47 000a 022B     		cmp	r3, #2
  48 000c 3FD0     		beq	.L4
  49              		.cfi_offset 4, -4
  50 000e 032B     		cmp	r3, #3
  51 0010 2DD0     		beq	.L5
  52 0012 012B     		cmp	r3, #1
  53 0014 19D0     		beq	.L3
ARM GAS  /tmp/ccQ8mYDS.s 			page 2


  54              		.loc 1 364 0
  55 0016 364A     		ldr	r2, .L26+4
  56 0018 5169     		ldr	r1, [r2, #20]
  57              		.loc 1 365 0
  58 001a 364A     		ldr	r2, .L26+8
  59              		.loc 1 364 0
  60 001c 11F0800F 		tst	r1, #128
  61              		.loc 1 365 0
  62 0020 14BF     		ite	ne
  63 0022 4FF40040 		movne	r0, #32768
  64              		.loc 1 367 0
  65 0026 4FF4FA40 		moveq	r0, #32000
  66 002a 1060     		str	r0, [r2, #0]
  67              	.L7:
  68              		.loc 1 415 0
  69 002c 2F4B     		ldr	r3, .L26
  70 002e 196B     		ldr	r1, [r3, #48]
  71 0030 C1F3021C 		ubfx	ip, r1, #4, #3
  72 0034 BCF1070F 		cmp	ip, #7
  73 0038 23D0     		beq	.L23
  74              	.L15:
  75              		.loc 1 418 0
  76 003a 1B6B     		ldr	r3, [r3, #48]
  77 003c C3F30211 		ubfx	r1, r3, #4, #3
  78 0040 30FA01F3 		lsrs	r3, r0, r1
  79 0044 1360     		str	r3, [r2, #0]
  80              	.L1:
  81              		.loc 1 420 0
  82 0046 10BC     		pop	{r4}
  83 0048 7047     		bx	lr
  84              	.L3:
  85              		.loc 1 370 0
  86 004a 086A     		ldr	r0, [r1, #32]
  87 004c 10F08070 		ands	r0, r0, #16777216
  88 0050 3ED1     		bne	.L24
  89              		.loc 1 373 0
  90 0052 284A     		ldr	r2, .L26+8
  91 0054 284C     		ldr	r4, .L26+12
  92 0056 1460     		str	r4, [r2, #0]
  93              		.loc 1 374 0
  94 0058 096A     		ldr	r1, [r1, #32]
  95 005a C1F30113 		ubfx	r3, r1, #4, #2
  96 005e 022B     		cmp	r3, #2
  97 0060 40D0     		beq	.L10
  98 0062 032B     		cmp	r3, #3
  99 0064 2FD0     		beq	.L21
 100 0066 012B     		cmp	r3, #1
 101 0068 37D0     		beq	.L25
 102 006a 2046     		mov	r0, r4
 103 006c DEE7     		b	.L7
 104              	.L5:
 105              		.loc 1 411 0
 106 006e 214A     		ldr	r2, .L26+8
 107 0070 0020     		movs	r0, #0
 108              		.loc 1 415 0
 109 0072 1E4B     		ldr	r3, .L26
 110              		.loc 1 411 0
ARM GAS  /tmp/ccQ8mYDS.s 			page 3


 111 0074 1060     		str	r0, [r2, #0]
 112              		.loc 1 415 0
 113 0076 196B     		ldr	r1, [r3, #48]
 114 0078 C1F3021C 		ubfx	ip, r1, #4, #3
 115 007c BCF1070F 		cmp	ip, #7
 116 0080 DBD1     		bne	.L15
 117              	.L23:
 118              		.loc 1 416 0
 119 0082 1E49     		ldr	r1, .L26+16
 120 0084 A1FB0010 		umull	r1, r0, r1, r0
 121 0088 4308     		lsrs	r3, r0, #1
 122 008a 1360     		str	r3, [r2, #0]
 123 008c DBE7     		b	.L1
 124              	.L4:
 125              		.loc 1 390 0
 126 008e 0A6A     		ldr	r2, [r1, #32]
 127 0090 12F0807F 		tst	r2, #16777216
 128 0094 19D1     		bne	.L18
 129              		.loc 1 393 0
 130 0096 174A     		ldr	r2, .L26+8
 131 0098 174C     		ldr	r4, .L26+12
 132 009a 1460     		str	r4, [r2, #0]
 133              		.loc 1 394 0
 134 009c 086A     		ldr	r0, [r1, #32]
 135 009e C0F30113 		ubfx	r3, r0, #4, #2
 136 00a2 012B     		cmp	r3, #1
 137 00a4 1CD0     		beq	.L13
 138 00a6 1649     		ldr	r1, .L26+20
 139 00a8 022B     		cmp	r3, #2
 140 00aa 0CBF     		ite	eq
 141 00ac 0B46     		moveq	r3, r1
 142 00ae 2346     		movne	r3, r4
 143              	.L12:
 144              		.loc 1 407 0
 145 00b0 0E49     		ldr	r1, .L26
 146 00b2 886A     		ldr	r0, [r1, #40]
 147              		.loc 1 408 0
 148 00b4 896A     		ldr	r1, [r1, #40]
 149              		.loc 1 407 0
 150 00b6 C0F30A40 		ubfx	r0, r0, #16, #11
 151 00ba 00FB0333 		mla	r3, r0, r3, r3
 152              		.loc 1 408 0
 153 00be 01F0FF0C 		and	ip, r1, #255
 154 00c2 B3FBFCF0 		udiv	r0, r3, ip
 155              	.L21:
 156 00c6 1060     		str	r0, [r2, #0]
 157              		.loc 1 409 0
 158 00c8 B0E7     		b	.L7
 159              	.L18:
 160              		.loc 1 390 0
 161 00ca 0D4B     		ldr	r3, .L26+20
 162 00cc 094A     		ldr	r2, .L26+8
 163 00ce EFE7     		b	.L12
 164              	.L24:
 165              		.loc 1 371 0
 166 00d0 0B4B     		ldr	r3, .L26+20
 167 00d2 084A     		ldr	r2, .L26+8
ARM GAS  /tmp/ccQ8mYDS.s 			page 4


 168 00d4 1846     		mov	r0, r3
 169 00d6 1360     		str	r3, [r2, #0]
 170 00d8 A8E7     		b	.L7
 171              	.L25:
 172              		.loc 1 378 0
 173 00da 0A48     		ldr	r0, .L26+24
 174 00dc 1060     		str	r0, [r2, #0]
 175              		.loc 1 379 0
 176 00de A5E7     		b	.L7
 177              	.L13:
 178              		.loc 1 399 0
 179 00e0 084B     		ldr	r3, .L26+24
 180 00e2 E5E7     		b	.L12
 181              	.L10:
 182              		.loc 1 381 0
 183 00e4 0648     		ldr	r0, .L26+20
 184 00e6 1060     		str	r0, [r2, #0]
 185              		.loc 1 382 0
 186 00e8 A0E7     		b	.L7
 187              	.L27:
 188 00ea 00BF     		.align	2
 189              	.L26:
 190 00ec 00040E40 		.word	1074660352
 191 00f0 10140E40 		.word	1074664464
 192 00f4 00000000 		.word	.LANCHOR0
 193 00f8 00093D00 		.word	4000000
 194 00fc ABAAAAAA 		.word	-1431655765
 195 0100 001BB700 		.word	12000000
 196 0104 00127A00 		.word	8000000
 197              		.cfi_endproc
 198              	.LFE29:
 199              		.size	SystemCoreClockUpdate, .-SystemCoreClockUpdate
 200 0108 AFF30080 		.section	.text.SystemInit,"ax",%progbits
 200      AFF30080 
 201              		.align	2
 202              		.p2align 4,,15
 203              		.global	SystemInit
 204              		.thumb
 205              		.thumb_func
 206              		.type	SystemInit, %function
 207              	SystemInit:
 208              	.LFB30:
 209              		.loc 1 432 0
 210              		.cfi_startproc
 211              		@ args = 0, pretend = 0, frame = 0
 212              		@ frame_needed = 0, uses_anonymous_args = 0
 213              		@ link register save eliminated.
 214              		.loc 1 434 0
 215 0000 1E4A     		ldr	r2, .L40
 216 0002 4FF40071 		mov	r1, #512
 217 0006 1160     		str	r1, [r2, #0]
 218              		.loc 1 438 0
 219 0008 1D4B     		ldr	r3, .L40+4
 220 000a 1E48     		ldr	r0, .L40+8
 221              		.loc 1 444 0
 222 000c 1E49     		ldr	r1, .L40+12
 223              		.loc 1 438 0
ARM GAS  /tmp/ccQ8mYDS.s 			page 5


 224 000e C3F8E400 		str	r0, [r3, #228]
 225              		.loc 1 446 0
 226 0012 1A46     		mov	r2, r3
 227              		.loc 1 444 0
 228 0014 1962     		str	r1, [r3, #32]
 229              	.L29:
 230              		.loc 1 446 0 discriminator 1
 231 0016 936E     		ldr	r3, [r2, #104]
 232 0018 13F4003F 		tst	r3, #131072
 233 001c FBD0     		beq	.L29
 234              		.loc 1 449 0 discriminator 1
 235 001e 1849     		ldr	r1, .L40+4
 236              	.L34:
 237 0020 886E     		ldr	r0, [r1, #104]
 238 0022 174A     		ldr	r2, .L40+4
 239 0024 10F0010F 		tst	r0, #1
 240 0028 FAD0     		beq	.L34
 241              		.loc 1 454 0
 242 002a 184B     		ldr	r3, .L40+16
 243              		.loc 1 455 0
 244 002c 1146     		mov	r1, r2
 245              		.loc 1 454 0
 246 002e 9362     		str	r3, [r2, #40]
 247              	.L31:
 248              		.loc 1 455 0 discriminator 1
 249 0030 886E     		ldr	r0, [r1, #104]
 250 0032 134A     		ldr	r2, .L40+4
 251 0034 10F0020F 		tst	r0, #2
 252 0038 FAD0     		beq	.L31
 253              		.loc 1 460 0
 254 003a 106B     		ldr	r0, [r2, #48]
 255              		.loc 1 465 0
 256 003c 1146     		mov	r1, r2
 257              		.loc 1 460 0
 258 003e 20F0700C 		bic	ip, r0, #112
 259 0042 4CF01003 		orr	r3, ip, #16
 260 0046 1363     		str	r3, [r2, #48]
 261              	.L32:
 262              		.loc 1 465 0 discriminator 1
 263 0048 8B6E     		ldr	r3, [r1, #104]
 264 004a 0D4A     		ldr	r2, .L40+4
 265 004c 13F0080F 		tst	r3, #8
 266 0050 FAD0     		beq	.L32
 267              		.loc 1 466 0
 268 0052 1221     		movs	r1, #18
 269 0054 1163     		str	r1, [r2, #48]
 270              		.loc 1 467 0
 271 0056 1146     		mov	r1, r2
 272              	.L33:
 273              		.loc 1 467 0 is_stmt 0 discriminator 1
 274 0058 886E     		ldr	r0, [r1, #104]
 275 005a 094A     		ldr	r2, .L40+4
 276 005c 10F0080F 		tst	r0, #8
 277 0060 FAD0     		beq	.L33
 278              		.loc 1 482 0 is_stmt 1
 279 0062 0023     		movs	r3, #0
 280              		.loc 1 487 0
ARM GAS  /tmp/ccQ8mYDS.s 			page 6


 281 0064 0A49     		ldr	r1, .L40+20
 282              		.loc 1 482 0
 283 0066 1360     		str	r3, [r2, #0]
 284              		.loc 1 483 0
 285 0068 4FF4E050 		mov	r0, #7168
 286              		.loc 1 491 0
 287 006c 094B     		ldr	r3, .L40+24
 288              		.loc 1 483 0
 289 006e 1061     		str	r0, [r2, #16]
 290              		.loc 1 487 0
 291 0070 C2F8E410 		str	r1, [r2, #228]
 292              		.loc 1 491 0
 293 0074 4FF40042 		mov	r2, #32768
 294 0078 5A60     		str	r2, [r3, #4]
 295              		.loc 1 499 0
 296 007a 7047     		bx	lr
 297              	.L41:
 298              		.align	2
 299              	.L40:
 300 007c 000A0E40 		.word	1074661888
 301 0080 00040E40 		.word	1074660352
 302 0084 00434D50 		.word	1347240704
 303 0088 09083701 		.word	20383753
 304 008c 03002020 		.word	538968067
 305 0090 01434D50 		.word	1347240705
 306 0094 50140E40 		.word	1074664528
 307              		.cfi_endproc
 308              	.LFE30:
 309              		.size	SystemInit, .-SystemInit
 310              		.global	SystemCoreClock
 311 0098 AFF30080 		.section	.data.SystemCoreClock,"aw",%progbits
 311      AFF30080 
 312              		.align	2
 313              		.set	.LANCHOR0,. + 0
 314              		.type	SystemCoreClock, %object
 315              		.size	SystemCoreClock, 4
 316              	SystemCoreClock:
 317 0000 8014EF03 		.word	66000000
 318              		.text
 319              	.Letext0:
