ARM GAS  /tmp/ccXUUKGz.s 			page 1


   1              		.syntax unified
   2              		.cpu cortex-m3
   3              		.fpu softvfp
   4              		.eabi_attribute 20, 1
   5              		.eabi_attribute 21, 1
   6              		.eabi_attribute 23, 3
   7              		.eabi_attribute 24, 1
   8              		.eabi_attribute 25, 1
   9              		.eabi_attribute 26, 1
  10              		.eabi_attribute 30, 2
  11              		.eabi_attribute 18, 4
  12              		.thumb
  13              		.file	"testmsg.c"
  14              		.section	.debug_abbrev,"",%progbits
  15              	.Ldebug_abbrev0:
  16              		.section	.debug_info,"",%progbits
  17              	.Ldebug_info0:
  18              		.section	.debug_line,"",%progbits
  19              	.Ldebug_line0:
  20 0000 8E020000 		.text
  20      02004A02 
  20      00000201 
  20      FB0E0D00 
  20      01010101 
  21              	.Ltext0:
  22              		.cfi_sections	.debug_frame
  23              		.section	.text.msg1_execute,"ax",%progbits
  24              		.align	2
  25              		.p2align 4,,15
  26              		.thumb
  27              		.thumb_func
  28              		.type	msg1_execute, %function
  29              	msg1_execute:
  30              	.LFB8:
  31              		.file 1 "/home/jairom/Documentos/Proyectos/Embebidos/Robocop/Source/code/matrix-creator-mcu/third_
  32              		.loc 1 78 0
  33              		.cfi_startproc
  34              		@ args = 0, pretend = 0, frame = 0
  35              		@ frame_needed = 0, uses_anonymous_args = 0
  36              		.loc 1 85 0
  37 0000 1849     		ldr	r1, .L2
  38              		.loc 1 78 0
  39 0002 10B5     		push	{r4, lr}
  40              	.LCFI0:
  41              		.cfi_def_cfa_offset 8
  42              		.loc 1 85 0
  43 0004 CC69     		ldr	r4, [r1, #28]
  44              		.cfi_offset 14, -4
  45              		.cfi_offset 4, -8
  46 0006 1848     		ldr	r0, .L2+4
  47 0008 A268     		ldr	r2, [r4, #8]
  48              		.loc 1 78 0
  49 000a 82B0     		sub	sp, sp, #8
  50              	.LCFI1:
  51              		.cfi_def_cfa_offset 16
  52              		.loc 1 85 0
  53 000c 0132     		adds	r2, r2, #1
ARM GAS  /tmp/ccXUUKGz.s 			page 2


  54 000e 4FF49871 		mov	r1, #304
  55 0012 164B     		ldr	r3, .L2+8
  56 0014 0068     		ldr	r0, [r0, #0]
  57 0016 0094     		str	r4, [sp, #0]
  58 0018 FFF7FEFF 		bl	chThdCreateStatic
  59 001c 144B     		ldr	r3, .L2+12
  60 001e 1860     		str	r0, [r3, #0]
  61              		.loc 1 87 0
  62 0020 FFF7FEFF 		bl	chMsgWait
  63              	.LVL0:
  64              		.loc 1 88 0
  65 0024 446B     		ldr	r4, [r0, #52]
  66              	.LVL1:
  67              		.loc 1 89 0
  68 0026 2146     		mov	r1, r4
  69 0028 FFF7FEFF 		bl	chMsgRelease
  70              	.LVL2:
  71              		.loc 1 90 0
  72 002c E0B2     		uxtb	r0, r4
  73 002e FFF7FEFF 		bl	test_emit_token
  74              		.loc 1 91 0
  75 0032 FFF7FEFF 		bl	chMsgWait
  76              	.LVL3:
  77              		.loc 1 92 0
  78 0036 446B     		ldr	r4, [r0, #52]
  79              	.LVL4:
  80              		.loc 1 93 0
  81 0038 2146     		mov	r1, r4
  82 003a FFF7FEFF 		bl	chMsgRelease
  83              	.LVL5:
  84              		.loc 1 94 0
  85 003e E0B2     		uxtb	r0, r4
  86 0040 FFF7FEFF 		bl	test_emit_token
  87              		.loc 1 95 0
  88 0044 FFF7FEFF 		bl	chMsgWait
  89              	.LVL6:
  90              		.loc 1 96 0
  91 0048 446B     		ldr	r4, [r0, #52]
  92              	.LVL7:
  93              		.loc 1 97 0
  94 004a 2146     		mov	r1, r4
  95 004c FFF7FEFF 		bl	chMsgRelease
  96              	.LVL8:
  97              		.loc 1 98 0
  98 0050 E0B2     		uxtb	r0, r4
  99 0052 FFF7FEFF 		bl	test_emit_token
 100              		.loc 1 99 0
 101 0056 0749     		ldr	r1, .L2+16
 102 0058 0120     		movs	r0, #1
 103              		.loc 1 100 0
 104 005a 02B0     		add	sp, sp, #8
 105 005c BDE81040 		pop	{r4, lr}
 106              		.loc 1 99 0
 107 0060 FFF7FEBF 		b	_test_assert_sequence
 108              	.L3:
 109              		.align	2
 110              	.L2:
ARM GAS  /tmp/ccXUUKGz.s 			page 3


 111 0064 00000000 		.word	rlist
 112 0068 00000000 		.word	wa
 113 006c 00000000 		.word	thread
 114 0070 00000000 		.word	threads
 115 0074 00000000 		.word	.LC0
 116              		.cfi_endproc
 117              	.LFE8:
 118              		.size	msg1_execute, .-msg1_execute
 119 0078 AFF30080 		.section	.text.thread,"ax",%progbits
 119      AFF30080 
 120              		.align	2
 121              		.p2align 4,,15
 122              		.thumb
 123              		.thumb_func
 124              		.type	thread, %function
 125              	thread:
 126              	.LFB7:
 127              		.loc 1 70 0
 128              		.cfi_startproc
 129              		@ args = 0, pretend = 0, frame = 0
 130              		@ frame_needed = 0, uses_anonymous_args = 0
 131              	.LVL9:
 132 0000 10B5     		push	{r4, lr}
 133              	.LCFI2:
 134              		.cfi_def_cfa_offset 8
 135              		.loc 1 72 0
 136 0002 4121     		movs	r1, #65
 137              		.loc 1 70 0
 138 0004 0446     		mov	r4, r0
 139              		.cfi_offset 14, -4
 140              		.cfi_offset 4, -8
 141              		.loc 1 72 0
 142 0006 FFF7FEFF 		bl	chMsgSend
 143              	.LVL10:
 144              		.loc 1 73 0
 145 000a 4221     		movs	r1, #66
 146 000c 2046     		mov	r0, r4
 147 000e FFF7FEFF 		bl	chMsgSend
 148              		.loc 1 74 0
 149 0012 2046     		mov	r0, r4
 150 0014 4321     		movs	r1, #67
 151 0016 FFF7FEFF 		bl	chMsgSend
 152              		.loc 1 76 0
 153 001a 0020     		movs	r0, #0
 154 001c 10BD     		pop	{r4, pc}
 155              		.cfi_endproc
 156              	.LFE7:
 157              		.size	thread, .-thread
 158              		.global	testmsg1
 159              		.global	patternmsg
 160 001e 00BF     		.section	.rodata.testmsg1,"a",%progbits
 161              		.align	2
 162              		.type	testmsg1, %object
 163              		.size	testmsg1, 16
 164              	testmsg1:
 165 0000 04000000 		.word	.LC1
 166 0004 00000000 		.word	0
ARM GAS  /tmp/ccXUUKGz.s 			page 4


 167 0008 00000000 		.word	0
 168 000c 00000000 		.word	msg1_execute
 169              		.section	.rodata.str1.4,"aMS",%progbits,1
 170              		.align	2
 171              	.LC0:
 172 0000 41424300 		.ascii	"ABC\000"
 173              	.LC1:
 174 0004 4D657373 		.ascii	"Messages, loop\000"
 174      61676573 
 174      2C206C6F 
 174      6F7000
 175 0013 00       		.section	.rodata.patternmsg,"a",%progbits
 176              		.align	2
 177              		.type	patternmsg, %object
 178              		.size	patternmsg, 8
 179              	patternmsg:
 180 0000 00000000 		.word	testmsg1
 181 0004 00000000 		.word	0
 182              		.text
 183              	.Letext0:
