ARM GAS  /tmp/ccZl1Be5.s 			page 1


   1              		.syntax unified
   2              		.cpu cortex-m3
   3              		.fpu softvfp
   4              		.eabi_attribute 20, 1
   5              		.eabi_attribute 21, 1
   6              		.eabi_attribute 23, 3
   7              		.eabi_attribute 24, 1
   8              		.eabi_attribute 25, 1
   9              		.eabi_attribute 26, 1
  10              		.eabi_attribute 30, 2
  11              		.eabi_attribute 18, 4
  12              		.thumb
  13              		.file	"testdyn.c"
  14              		.section	.debug_abbrev,"",%progbits
  15              	.Ldebug_abbrev0:
  16              		.section	.debug_info,"",%progbits
  17              	.Ldebug_info0:
  18              		.section	.debug_line,"",%progbits
  19              	.Ldebug_line0:
  20 0000 0F040000 		.text
  20      0200CB02 
  20      00000201 
  20      FB0E0D00 
  20      01010101 
  21              	.Ltext0:
  22              		.cfi_sections	.debug_frame
  23              		.section	.text.regfind,"ax",%progbits
  24              		.align	2
  25              		.p2align 4,,15
  26              		.thumb
  27              		.thumb_func
  28              		.type	regfind, %function
  29              	regfind:
  30              	.LFB12:
  31              		.file 1 "/home/jairom/Documentos/Proyectos/Embebidos/Robocop/Source/code/matrix-creator-mcu/third_
  32              		.loc 1 202 0
  33              		.cfi_startproc
  34              		@ args = 0, pretend = 0, frame = 0
  35              		@ frame_needed = 0, uses_anonymous_args = 0
  36              	.LVL0:
  37 0000 38B5     		push	{r3, r4, r5, lr}
  38              	.LCFI0:
  39              		.cfi_def_cfa_offset 16
  40              		.loc 1 202 0
  41 0002 0546     		mov	r5, r0
  42              		.cfi_offset 14, -4
  43              		.cfi_offset 5, -8
  44              		.cfi_offset 4, -12
  45              		.cfi_offset 3, -16
  46              		.loc 1 206 0
  47 0004 FFF7FEFF 		bl	chRegFirstThread
  48              	.LVL1:
  49              		.loc 1 204 0
  50 0008 0024     		movs	r4, #0
  51              		.loc 1 206 0
  52 000a 0346     		mov	r3, r0
  53              	.LVL2:
ARM GAS  /tmp/ccZl1Be5.s 			page 2


  54              	.L2:
  55              		.loc 1 209 0 discriminator 1
  56 000c 1846     		mov	r0, r3
  57              	.LVL3:
  58              		.loc 1 208 0 discriminator 1
  59 000e AB42     		cmp	r3, r5
  60 0010 08BF     		it	eq
  61 0012 44F00104 		orreq	r4, r4, #1
  62              	.LVL4:
  63              		.loc 1 209 0 discriminator 1
  64 0016 FFF7FEFF 		bl	chRegNextThread
  65              	.LVL5:
  66              		.loc 1 210 0 discriminator 1
  67 001a 0346     		mov	r3, r0
  68 001c 0028     		cmp	r0, #0
  69 001e F5D1     		bne	.L2
  70              		.loc 1 212 0
  71 0020 2046     		mov	r0, r4
  72              	.LVL6:
  73 0022 38BD     		pop	{r3, r4, r5, pc}
  74              		.cfi_endproc
  75              	.LFE12:
  76              		.size	regfind, .-regfind
  77 0024 AFF30080 		.section	.text.dyn3_execute,"ax",%progbits
  77      AFF30080 
  77      AFF30080 
  78              		.align	2
  79              		.p2align 4,,15
  80              		.thumb
  81              		.thumb_func
  82              		.type	dyn3_execute, %function
  83              	dyn3_execute:
  84              	.LFB14:
  85              		.loc 1 219 0
  86              		.cfi_startproc
  87              		@ args = 0, pretend = 0, frame = 0
  88              		@ frame_needed = 0, uses_anonymous_args = 0
  89              	.LVL7:
  90              		.loc 1 221 0
  91 0000 4D49     		ldr	r1, .L8
  92              		.loc 1 219 0
  93 0002 10B5     		push	{r4, lr}
  94              	.LCFI1:
  95              		.cfi_def_cfa_offset 8
  96              		.loc 1 221 0
  97 0004 C869     		ldr	r0, [r1, #28]
  98              		.loc 1 224 0
  99 0006 4D4C     		ldr	r4, .L8+4
 100              		.cfi_offset 14, -4
 101              		.cfi_offset 4, -8
 102 0008 8368     		ldr	r3, [r0, #8]
 103              		.loc 1 219 0
 104 000a 82B0     		sub	sp, sp, #8
 105              	.LCFI2:
 106              		.cfi_def_cfa_offset 16
 107              		.loc 1 224 0
 108 000c 5A1E     		subs	r2, r3, #1
ARM GAS  /tmp/ccZl1Be5.s 			page 3


 109 000e 4FF49871 		mov	r1, #304
 110 0012 4B48     		ldr	r0, .L8+8
 111 0014 4B4B     		ldr	r3, .L8+12
 112 0016 0094     		str	r4, [sp, #0]
 113 0018 FFF7FEFF 		bl	chThdCreateFromHeap
 114              	.LVL8:
 115              		.loc 1 225 0
 116 001c 827F     		ldrb	r2, [r0, #30]	@ zero_extendqisi2
 117              		.loc 1 224 0
 118 001e 0446     		mov	r4, r0
 119              	.LVL9:
 120              		.loc 1 225 0
 121 0020 0120     		movs	r0, #1
 122              	.LVL10:
 123 0022 C0EB020C 		rsb	ip, r0, r2
 124 0026 DCF10001 		rsbs	r1, ip, #0
 125 002a 41EB0C01 		adc	r1, r1, ip
 126 002e FFF7FEFF 		bl	_test_assert
 127 0032 08B1     		cbz	r0, .L7
 128              	.L5:
 129              		.loc 1 247 0
 130 0034 02B0     		add	sp, sp, #8
 131 0036 10BD     		pop	{r4, pc}
 132              	.L7:
 133              		.loc 1 226 0
 134 0038 2046     		mov	r0, r4
 135 003a FFF7FEFF 		bl	chThdAddRef
 136              		.loc 1 227 0
 137 003e A27F     		ldrb	r2, [r4, #30]	@ zero_extendqisi2
 138 0040 0220     		movs	r0, #2
 139 0042 C0EB020E 		rsb	lr, r0, r2
 140 0046 DEF1000C 		rsbs	ip, lr, #0
 141 004a 4CEB0E01 		adc	r1, ip, lr
 142 004e FFF7FEFF 		bl	_test_assert
 143 0052 0028     		cmp	r0, #0
 144 0054 EED1     		bne	.L5
 145              		.loc 1 228 0
 146 0056 2046     		mov	r0, r4
 147 0058 FFF7FEFF 		bl	chThdRelease
 148              		.loc 1 229 0
 149 005c 94F81EC0 		ldrb	ip, [r4, #30]	@ zero_extendqisi2
 150 0060 0320     		movs	r0, #3
 151 0062 ACF10101 		sub	r1, ip, #1
 152 0066 4B42     		rsbs	r3, r1, #0
 153 0068 43EB0101 		adc	r1, r3, r1
 154 006c FFF7FEFF 		bl	_test_assert
 155 0070 0028     		cmp	r0, #0
 156 0072 DFD1     		bne	.L5
 157              		.loc 1 232 0
 158 0074 2046     		mov	r0, r4
 159 0076 FFF7FEFF 		bl	regfind
 160 007a 0146     		mov	r1, r0
 161 007c 0420     		movs	r0, #4
 162 007e FFF7FEFF 		bl	_test_assert
 163 0082 0028     		cmp	r0, #0
 164 0084 D6D1     		bne	.L5
 165              		.loc 1 233 0
ARM GAS  /tmp/ccZl1Be5.s 			page 4


 166 0086 2046     		mov	r0, r4
 167 0088 FFF7FEFF 		bl	regfind
 168 008c 0146     		mov	r1, r0
 169 008e 0520     		movs	r0, #5
 170 0090 FFF7FEFF 		bl	_test_assert
 171 0094 0028     		cmp	r0, #0
 172 0096 CDD1     		bne	.L5
 173              		.loc 1 236 0
 174 0098 2046     		mov	r0, r4
 175 009a FFF7FEFF 		bl	chThdRelease
 176              		.loc 1 237 0
 177 009e A27F     		ldrb	r2, [r4, #30]	@ zero_extendqisi2
 178 00a0 0620     		movs	r0, #6
 179 00a2 D2F10101 		rsbs	r1, r2, #1
 180 00a6 38BF     		it	cc
 181 00a8 0021     		movcc	r1, #0
 182 00aa FFF7FEFF 		bl	_test_assert
 183 00ae 0028     		cmp	r0, #0
 184 00b0 C0D1     		bne	.L5
 185              		.loc 1 238 0
 186 00b2 94F81CE0 		ldrb	lr, [r4, #28]	@ zero_extendqisi2
 187 00b6 0720     		movs	r0, #7
 188 00b8 DEF10101 		rsbs	r1, lr, #1
 189 00bc 38BF     		it	cc
 190 00be 0021     		movcc	r1, #0
 191 00c0 FFF7FEFF 		bl	_test_assert
 192 00c4 0028     		cmp	r0, #0
 193 00c6 B5D1     		bne	.L5
 194              		.loc 1 239 0
 195 00c8 2046     		mov	r0, r4
 196 00ca FFF7FEFF 		bl	regfind
 197 00ce 0146     		mov	r1, r0
 198 00d0 0820     		movs	r0, #8
 199 00d2 FFF7FEFF 		bl	_test_assert
 200 00d6 0028     		cmp	r0, #0
 201 00d8 ACD1     		bne	.L5
 202              		.loc 1 240 0
 203 00da 2046     		mov	r0, r4
 204 00dc FFF7FEFF 		bl	regfind
 205 00e0 0146     		mov	r1, r0
 206 00e2 0920     		movs	r0, #9
 207 00e4 FFF7FEFF 		bl	_test_assert
 208 00e8 0028     		cmp	r0, #0
 209 00ea A3D1     		bne	.L5
 210              		.loc 1 241 0
 211 00ec 3230     		adds	r0, r0, #50
 212 00ee FFF7FEFF 		bl	chThdSleep
 213              		.loc 1 242 0
 214 00f2 94F81CC0 		ldrb	ip, [r4, #28]	@ zero_extendqisi2
 215 00f6 0A20     		movs	r0, #10
 216 00f8 ACF10E03 		sub	r3, ip, #14
 217 00fc 5942     		rsbs	r1, r3, #0
 218 00fe 41EB0301 		adc	r1, r1, r3
 219 0102 FFF7FEFF 		bl	_test_assert
 220 0106 0028     		cmp	r0, #0
 221 0108 94D1     		bne	.L5
 222              		.loc 1 245 0
ARM GAS  /tmp/ccZl1Be5.s 			page 5


 223 010a 2046     		mov	r0, r4
 224 010c FFF7FEFF 		bl	regfind
 225 0110 0146     		mov	r1, r0
 226 0112 0B20     		movs	r0, #11
 227 0114 FFF7FEFF 		bl	_test_assert
 228 0118 0028     		cmp	r0, #0
 229 011a 8BD1     		bne	.L5
 230              		.loc 1 246 0
 231 011c 2046     		mov	r0, r4
 232 011e FFF7FEFF 		bl	regfind
 233 0122 D0F10101 		rsbs	r1, r0, #1
 234 0126 38BF     		it	cc
 235 0128 0021     		movcc	r1, #0
 236 012a 0C20     		movs	r0, #12
 237              		.loc 1 247 0
 238 012c 02B0     		add	sp, sp, #8
 239 012e BDE81040 		pop	{r4, lr}
 240              		.loc 1 246 0
 241 0132 FFF7FEBF 		b	_test_assert
 242              	.L9:
 243 0136 00BF     		.align	2
 244              	.L8:
 245 0138 00000000 		.word	rlist
 246 013c 00000000 		.word	.LC0
 247 0140 00000000 		.word	.LANCHOR0
 248 0144 00000000 		.word	thread
 249              		.cfi_endproc
 250              	.LFE14:
 251              		.size	dyn3_execute, .-dyn3_execute
 252 0148 AFF30080 		.section	.text.thread,"ax",%progbits
 252      AFF30080 
 253              		.align	2
 254              		.p2align 4,,15
 255              		.thumb
 256              		.thumb_func
 257              		.type	thread, %function
 258              	thread:
 259              	.LFB7:
 260              		.loc 1 82 0
 261              		.cfi_startproc
 262              		@ args = 0, pretend = 0, frame = 0
 263              		@ frame_needed = 0, uses_anonymous_args = 0
 264              	.LVL11:
 265 0000 08B5     		push	{r3, lr}
 266              	.LCFI3:
 267              		.cfi_def_cfa_offset 8
 268              		.loc 1 84 0
 269 0002 0078     		ldrb	r0, [r0, #0]	@ zero_extendqisi2
 270              	.LVL12:
 271              		.cfi_offset 14, -4
 272              		.cfi_offset 3, -8
 273 0004 FFF7FEFF 		bl	test_emit_token
 274              		.loc 1 86 0
 275 0008 0020     		movs	r0, #0
 276 000a 08BD     		pop	{r3, pc}
 277              		.cfi_endproc
 278              	.LFE7:
ARM GAS  /tmp/ccZl1Be5.s 			page 6


 279              		.size	thread, .-thread
 280 000c AFF30080 		.section	.text.dyn3_setup,"ax",%progbits
 281              		.align	2
 282              		.p2align 4,,15
 283              		.thumb
 284              		.thumb_func
 285              		.type	dyn3_setup, %function
 286              	dyn3_setup:
 287              	.LFB13:
 288              		.loc 1 214 0
 289              		.cfi_startproc
 290              		@ args = 0, pretend = 0, frame = 0
 291              		@ frame_needed = 0, uses_anonymous_args = 0
 292              		@ link register save eliminated.
 293              		.loc 1 216 0
 294 0000 0248     		ldr	r0, .L12
 295 0002 0349     		ldr	r1, .L12+4
 296 0004 4FF4BE62 		mov	r2, #1520
 297              		.loc 1 217 0
 298              		.loc 1 216 0
 299 0008 FFF7FEBF 		b	chHeapInit
 300              	.L13:
 301              		.align	2
 302              	.L12:
 303 000c 00000000 		.word	.LANCHOR0
 304 0010 00000000 		.word	test
 305              		.cfi_endproc
 306              	.LFE13:
 307              		.size	dyn3_setup, .-dyn3_setup
 308 0014 AFF30080 		.section	.text.dyn1_setup,"ax",%progbits
 308      AFF30080 
 308      AFF30080 
 309              		.align	2
 310              		.p2align 4,,15
 311              		.thumb
 312              		.thumb_func
 313              		.type	dyn1_setup, %function
 314              	dyn1_setup:
 315              	.LFB8:
 316              		.loc 1 89 0
 317              		.cfi_startproc
 318              		@ args = 0, pretend = 0, frame = 0
 319              		@ frame_needed = 0, uses_anonymous_args = 0
 320              		@ link register save eliminated.
 321              		.loc 1 91 0
 322 0000 0248     		ldr	r0, .L15
 323 0002 0349     		ldr	r1, .L15+4
 324 0004 4FF4BE62 		mov	r2, #1520
 325              		.loc 1 92 0
 326              		.loc 1 91 0
 327 0008 FFF7FEBF 		b	chHeapInit
 328              	.L16:
 329              		.align	2
 330              	.L15:
 331 000c 00000000 		.word	.LANCHOR0
 332 0010 00000000 		.word	test
 333              		.cfi_endproc
ARM GAS  /tmp/ccZl1Be5.s 			page 7


 334              	.LFE8:
 335              		.size	dyn1_setup, .-dyn1_setup
 336 0014 AFF30080 		.section	.text.dyn2_execute,"ax",%progbits
 336      AFF30080 
 336      AFF30080 
 337              		.align	2
 338              		.p2align 4,,15
 339              		.thumb
 340              		.thumb_func
 341              		.type	dyn2_execute, %function
 342              	dyn2_execute:
 343              	.LFB11:
 344              		.loc 1 152 0
 345              		.cfi_startproc
 346              		@ args = 0, pretend = 0, frame = 0
 347              		@ frame_needed = 0, uses_anonymous_args = 0
 348              		.loc 1 154 0
 349 0000 4448     		ldr	r0, .L25
 350              		.loc 1 152 0
 351 0002 70B5     		push	{r4, r5, r6, lr}
 352              	.LCFI4:
 353              		.cfi_def_cfa_offset 16
 354              		.loc 1 158 0
 355 0004 444C     		ldr	r4, .L25+4
 356              		.cfi_offset 14, -4
 357              		.cfi_offset 6, -8
 358              		.cfi_offset 5, -12
 359              		.cfi_offset 4, -16
 360              		.loc 1 154 0
 361 0006 C369     		ldr	r3, [r0, #28]
 362              		.loc 1 158 0
 363 0008 2168     		ldr	r1, [r4, #0]
 364 000a 4448     		ldr	r0, .L25+8
 365              		.loc 1 154 0
 366 000c 9D68     		ldr	r5, [r3, #8]
 367              	.LVL13:
 368              		.loc 1 158 0
 369 000e FFF7FEFF 		bl	chPoolFree
 370              	.LVL14:
 371 0012 6168     		ldr	r1, [r4, #4]
 372 0014 4148     		ldr	r0, .L25+8
 373 0016 FFF7FEFF 		bl	chPoolFree
 374              	.LVL15:
 375 001a A168     		ldr	r1, [r4, #8]
 376 001c 3F48     		ldr	r0, .L25+8
 377 001e FFF7FEFF 		bl	chPoolFree
 378              	.LVL16:
 379 0022 E168     		ldr	r1, [r4, #12]
 380 0024 3D48     		ldr	r0, .L25+8
 381 0026 FFF7FEFF 		bl	chPoolFree
 382              	.LVL17:
 383              		.loc 1 161 0
 384 002a 691E     		subs	r1, r5, #1
 385 002c 3C4A     		ldr	r2, .L25+12
 386 002e 3D4B     		ldr	r3, .L25+16
 387 0030 3A48     		ldr	r0, .L25+8
 388 0032 FFF7FEFF 		bl	chThdCreateFromMemoryPool
ARM GAS  /tmp/ccZl1Be5.s 			page 8


 389 0036 3C4C     		ldr	r4, .L25+20
 390              		.loc 1 162 0
 391 0038 A91E     		subs	r1, r5, #2
 392              		.loc 1 161 0
 393 003a 2060     		str	r0, [r4, #0]
 394              		.loc 1 162 0
 395 003c 384A     		ldr	r2, .L25+12
 396 003e 3B4B     		ldr	r3, .L25+24
 397 0040 3648     		ldr	r0, .L25+8
 398 0042 FFF7FEFF 		bl	chThdCreateFromMemoryPool
 399              		.loc 1 163 0
 400 0046 E91E     		subs	r1, r5, #3
 401              		.loc 1 162 0
 402 0048 6060     		str	r0, [r4, #4]
 403              		.loc 1 163 0
 404 004a 354A     		ldr	r2, .L25+12
 405 004c 384B     		ldr	r3, .L25+28
 406 004e 3348     		ldr	r0, .L25+8
 407 0050 FFF7FEFF 		bl	chThdCreateFromMemoryPool
 408              		.loc 1 164 0
 409 0054 291F     		subs	r1, r5, #4
 410              		.loc 1 163 0
 411 0056 A060     		str	r0, [r4, #8]
 412              		.loc 1 164 0
 413 0058 314A     		ldr	r2, .L25+12
 414 005a 364B     		ldr	r3, .L25+32
 415 005c 2F48     		ldr	r0, .L25+8
 416 005e FFF7FEFF 		bl	chThdCreateFromMemoryPool
 417              		.loc 1 165 0
 418 0062 691F     		subs	r1, r5, #5
 419              		.loc 1 164 0
 420 0064 E060     		str	r0, [r4, #12]
 421              		.loc 1 165 0
 422 0066 2E4A     		ldr	r2, .L25+12
 423 0068 2C48     		ldr	r0, .L25+8
 424 006a 334B     		ldr	r3, .L25+36
 425 006c FFF7FEFF 		bl	chThdCreateFromMemoryPool
 426              		.loc 1 167 0
 427 0070 2168     		ldr	r1, [r4, #0]
 428              		.loc 1 165 0
 429 0072 2061     		str	r0, [r4, #16]
 430              		.loc 1 167 0
 431 0074 49B1     		cbz	r1, .L18
 432              		.loc 1 167 0 is_stmt 0 discriminator 1
 433 0076 6168     		ldr	r1, [r4, #4]
 434 0078 39B1     		cbz	r1, .L18
 435              		.loc 1 167 0 discriminator 3
 436 007a A168     		ldr	r1, [r4, #8]
 437 007c 29B1     		cbz	r1, .L18
 438              		.loc 1 167 0 discriminator 4
 439 007e E168     		ldr	r1, [r4, #12]
 440 0080 19B1     		cbz	r1, .L18
 441              		.loc 1 152 0 is_stmt 1 discriminator 5
 442 0082 D0F10101 		rsbs	r1, r0, #1
 443 0086 38BF     		it	cc
 444 0088 0021     		movcc	r1, #0
 445              	.L18:
ARM GAS  /tmp/ccZl1Be5.s 			page 9


 446              		.loc 1 167 0 discriminator 7
 447 008a 0120     		movs	r0, #1
 448 008c FFF7FEFF 		bl	_test_assert
 449 0090 00B1     		cbz	r0, .L24
 450              	.LVL18:
 451              	.L17:
 452 0092 70BD     		pop	{r4, r5, r6, pc}
 453              	.LVL19:
 454              	.L24:
 455              		.loc 1 175 0
 456 0094 FFF7FEFF 		bl	test_wait_threads
 457              		.loc 1 176 0
 458 0098 0220     		movs	r0, #2
 459 009a 2849     		ldr	r1, .L25+40
 460 009c FFF7FEFF 		bl	_test_assert_sequence
 461 00a0 0028     		cmp	r0, #0
 462 00a2 F6D1     		bne	.L17
 463              		.loc 1 180 0
 464 00a4 1D48     		ldr	r0, .L25+8
 465 00a6 FFF7FEFF 		bl	chPoolAlloc
 466 00aa 011E     		subs	r1, r0, #0
 467 00ac 18BF     		it	ne
 468 00ae 0121     		movne	r1, #1
 469 00b0 0320     		movs	r0, #3
 470 00b2 FFF7FEFF 		bl	_test_assert
 471 00b6 0028     		cmp	r0, #0
 472 00b8 EBD1     		bne	.L17
 473              	.LVL20:
 474 00ba 1848     		ldr	r0, .L25+8
 475 00bc FFF7FEFF 		bl	chPoolAlloc
 476 00c0 011E     		subs	r1, r0, #0
 477 00c2 18BF     		it	ne
 478 00c4 0121     		movne	r1, #1
 479 00c6 0320     		movs	r0, #3
 480 00c8 FFF7FEFF 		bl	_test_assert
 481 00cc 0028     		cmp	r0, #0
 482 00ce E0D1     		bne	.L17
 483              	.LVL21:
 484 00d0 1248     		ldr	r0, .L25+8
 485 00d2 FFF7FEFF 		bl	chPoolAlloc
 486 00d6 011E     		subs	r1, r0, #0
 487 00d8 18BF     		it	ne
 488 00da 0121     		movne	r1, #1
 489 00dc 0320     		movs	r0, #3
 490 00de FFF7FEFF 		bl	_test_assert
 491 00e2 0028     		cmp	r0, #0
 492 00e4 D5D1     		bne	.L17
 493              	.LVL22:
 494 00e6 0D48     		ldr	r0, .L25+8
 495 00e8 FFF7FEFF 		bl	chPoolAlloc
 496 00ec 011E     		subs	r1, r0, #0
 497 00ee 18BF     		it	ne
 498 00f0 0121     		movne	r1, #1
 499 00f2 0320     		movs	r0, #3
 500 00f4 FFF7FEFF 		bl	_test_assert
 501 00f8 0028     		cmp	r0, #0
 502 00fa CAD1     		bne	.L17
ARM GAS  /tmp/ccZl1Be5.s 			page 10


 503              	.LVL23:
 504              		.loc 1 181 0
 505 00fc 0748     		ldr	r0, .L25+8
 506 00fe FFF7FEFF 		bl	chPoolAlloc
 507 0102 D0F10101 		rsbs	r1, r0, #1
 508 0106 38BF     		it	cc
 509 0108 0021     		movcc	r1, #0
 510 010a 0420     		movs	r0, #4
 511              		.loc 1 182 0
 512 010c BDE87040 		pop	{r4, r5, r6, lr}
 513              		.loc 1 181 0
 514 0110 FFF7FEBF 		b	_test_assert
 515              	.L26:
 516              		.align	2
 517              	.L25:
 518 0114 00000000 		.word	rlist
 519 0118 00000000 		.word	wa
 520 011c 00000000 		.word	.LANCHOR1
 521 0120 00000000 		.word	thread
 522 0124 00000000 		.word	.LC0
 523 0128 00000000 		.word	threads
 524 012c 04000000 		.word	.LC1
 525 0130 08000000 		.word	.LC2
 526 0134 0C000000 		.word	.LC3
 527 0138 10000000 		.word	.LC4
 528 013c 14000000 		.word	.LC5
 529              		.cfi_endproc
 530              	.LFE11:
 531              		.size	dyn2_execute, .-dyn2_execute
 532              		.section	.text.dyn2_setup,"ax",%progbits
 533              		.align	2
 534              		.p2align 4,,15
 535              		.thumb
 536              		.thumb_func
 537              		.type	dyn2_setup, %function
 538              	dyn2_setup:
 539              	.LFB10:
 540              		.loc 1 147 0
 541              		.cfi_startproc
 542              		@ args = 0, pretend = 0, frame = 0
 543              		@ frame_needed = 0, uses_anonymous_args = 0
 544              		@ link register save eliminated.
 545              		.loc 1 149 0
 546 0000 0248     		ldr	r0, .L28
 547 0002 4FF49871 		mov	r1, #304
 548 0006 0022     		movs	r2, #0
 549              		.loc 1 150 0
 550              		.loc 1 149 0
 551 0008 FFF7FEBF 		b	chPoolInit
 552              	.L29:
 553              		.align	2
 554              	.L28:
 555 000c 00000000 		.word	.LANCHOR1
 556              		.cfi_endproc
 557              	.LFE10:
 558              		.size	dyn2_setup, .-dyn2_setup
 559              		.section	.text.dyn1_execute,"ax",%progbits
ARM GAS  /tmp/ccZl1Be5.s 			page 11


 560              		.align	2
 561              		.p2align 4,,15
 562              		.thumb
 563              		.thumb_func
 564              		.type	dyn1_execute, %function
 565              	dyn1_execute:
 566              	.LFB9:
 567              		.loc 1 94 0
 568              		.cfi_startproc
 569              		@ args = 0, pretend = 0, frame = 8
 570              		@ frame_needed = 0, uses_anonymous_args = 0
 571 0000 70B5     		push	{r4, r5, r6, lr}
 572              	.LCFI5:
 573              		.cfi_def_cfa_offset 16
 574              		.loc 1 97 0
 575 0002 3648     		ldr	r0, .L39
 576              		.loc 1 94 0
 577 0004 84B0     		sub	sp, sp, #16
 578              	.LCFI6:
 579              		.cfi_def_cfa_offset 32
 580              		.loc 1 97 0
 581 0006 C369     		ldr	r3, [r0, #28]
 582              		.loc 1 99 0
 583 0008 02A9     		add	r1, sp, #8
 584              		.loc 1 97 0
 585 000a 9D68     		ldr	r5, [r3, #8]
 586              		.cfi_offset 14, -4
 587              		.cfi_offset 6, -8
 588              		.cfi_offset 5, -12
 589              		.cfi_offset 4, -16
 590              	.LVL24:
 591              		.loc 1 101 0
 592 000c 344C     		ldr	r4, .L39+4
 593              		.loc 1 99 0
 594 000e 3548     		ldr	r0, .L39+8
 595              	.LVL25:
 596 0010 FFF7FEFF 		bl	chHeapStatus
 597              	.LVL26:
 598              		.loc 1 101 0
 599 0014 6A1E     		subs	r2, r5, #1
 600 0016 4FF49871 		mov	r1, #304
 601 001a 334B     		ldr	r3, .L39+12
 602 001c 3148     		ldr	r0, .L39+8
 603 001e 0094     		str	r4, [sp, #0]
 604 0020 FFF7FEFF 		bl	chThdCreateFromHeap
 605 0024 314C     		ldr	r4, .L39+16
 606              		.loc 1 103 0
 607 0026 324E     		ldr	r6, .L39+20
 608 0028 AA1E     		subs	r2, r5, #2
 609 002a 2F4B     		ldr	r3, .L39+12
 610              		.loc 1 101 0
 611 002c 2060     		str	r0, [r4, #0]
 612              		.loc 1 103 0
 613 002e 4FF49871 		mov	r1, #304
 614 0032 2C48     		ldr	r0, .L39+8
 615 0034 0096     		str	r6, [sp, #0]
 616 0036 FFF7FEFF 		bl	chThdCreateFromHeap
ARM GAS  /tmp/ccZl1Be5.s 			page 12


 617              		.loc 1 106 0
 618 003a 03A9     		add	r1, sp, #12
 619              		.loc 1 103 0
 620 003c 6060     		str	r0, [r4, #4]
 621              		.loc 1 106 0
 622 003e 2948     		ldr	r0, .L39+8
 623 0040 FFF7FEFF 		bl	chHeapStatus
 624              	.LVL27:
 625              		.loc 1 107 0
 626 0044 0399     		ldr	r1, [sp, #12]
 627 0046 2748     		ldr	r0, .L39+8
 628 0048 FFF7FEFF 		bl	chHeapAlloc
 629              		.loc 1 108 0
 630 004c EA1E     		subs	r2, r5, #3
 631 004e 294D     		ldr	r5, .L39+24
 632              	.LVL28:
 633 0050 4FF49871 		mov	r1, #304
 634              		.loc 1 107 0
 635 0054 0646     		mov	r6, r0
 636              	.LVL29:
 637              		.loc 1 108 0
 638 0056 244B     		ldr	r3, .L39+12
 639 0058 2248     		ldr	r0, .L39+8
 640              	.LVL30:
 641 005a 0095     		str	r5, [sp, #0]
 642 005c FFF7FEFF 		bl	chThdCreateFromHeap
 643              	.LVL31:
 644 0060 A060     		str	r0, [r4, #8]
 645              		.loc 1 110 0
 646 0062 3046     		mov	r0, r6
 647 0064 FFF7FEFF 		bl	chHeapFree
 648              		.loc 1 112 0
 649 0068 2168     		ldr	r1, [r4, #0]
 650 006a 29B1     		cbz	r1, .L31
 651              		.loc 1 112 0 is_stmt 0 discriminator 1
 652 006c 6168     		ldr	r1, [r4, #4]
 653 006e 19B1     		cbz	r1, .L31
 654              		.loc 1 112 0 discriminator 3
 655 0070 A168     		ldr	r1, [r4, #8]
 656 0072 0029     		cmp	r1, #0
 657 0074 28D0     		beq	.L37
 658              		.loc 1 112 0
 659 0076 0021     		movs	r1, #0
 660              	.L31:
 661              		.loc 1 112 0 discriminator 7
 662 0078 0120     		movs	r0, #1
 663 007a FFF7FEFF 		bl	_test_assert
 664 007e 08B1     		cbz	r0, .L38
 665              	.LVL32:
 666              	.L30:
 667              		.loc 1 126 0 is_stmt 1
 668 0080 04B0     		add	sp, sp, #16
 669 0082 70BD     		pop	{r4, r5, r6, pc}
 670              	.LVL33:
 671              	.L38:
 672              		.loc 1 120 0
 673 0084 FFF7FEFF 		bl	test_wait_threads
ARM GAS  /tmp/ccZl1Be5.s 			page 13


 674              		.loc 1 121 0
 675 0088 0220     		movs	r0, #2
 676 008a 1B49     		ldr	r1, .L39+28
 677 008c FFF7FEFF 		bl	_test_assert_sequence
 678 0090 0028     		cmp	r0, #0
 679 0092 F5D1     		bne	.L30
 680              		.loc 1 124 0
 681 0094 03A9     		add	r1, sp, #12
 682 0096 1348     		ldr	r0, .L39+8
 683 0098 FFF7FEFF 		bl	chHeapStatus
 684 009c A0F10103 		sub	r3, r0, #1
 685 00a0 D3F1000C 		rsbs	ip, r3, #0
 686 00a4 4CEB0301 		adc	r1, ip, r3
 687 00a8 0320     		movs	r0, #3
 688 00aa FFF7FEFF 		bl	_test_assert
 689 00ae 0028     		cmp	r0, #0
 690 00b0 E6D1     		bne	.L30
 691              		.loc 1 125 0
 692 00b2 0399     		ldr	r1, [sp, #12]
 693              	.LVL34:
 694 00b4 029B     		ldr	r3, [sp, #8]
 695 00b6 0420     		movs	r0, #4
 696 00b8 CA1A     		subs	r2, r1, r3
 697 00ba D2F1000E 		rsbs	lr, r2, #0
 698 00be 4EEB0201 		adc	r1, lr, r2
 699 00c2 FFF7FEFF 		bl	_test_assert
 700 00c6 DBE7     		b	.L30
 701              	.LVL35:
 702              	.L37:
 703              		.loc 1 112 0 discriminator 4
 704 00c8 E268     		ldr	r2, [r4, #12]
 705 00ca 002A     		cmp	r2, #0
 706 00cc D4D1     		bne	.L31
 707              		.loc 1 94 0 discriminator 5
 708 00ce 2169     		ldr	r1, [r4, #16]
 709 00d0 D1F10101 		rsbs	r1, r1, #1
 710 00d4 38BF     		it	cc
 711 00d6 0021     		movcc	r1, #0
 712 00d8 CEE7     		b	.L31
 713              	.L40:
 714 00da 00BF     		.align	2
 715              	.L39:
 716 00dc 00000000 		.word	rlist
 717 00e0 00000000 		.word	.LC0
 718 00e4 00000000 		.word	.LANCHOR0
 719 00e8 00000000 		.word	thread
 720 00ec 00000000 		.word	threads
 721 00f0 04000000 		.word	.LC1
 722 00f4 08000000 		.word	.LC2
 723 00f8 1C000000 		.word	.LC6
 724              		.cfi_endproc
 725              	.LFE9:
 726              		.size	dyn1_execute, .-dyn1_execute
 727              		.global	testdyn1
 728              		.global	testdyn2
 729              		.global	testdyn3
 730              		.global	patterndyn
ARM GAS  /tmp/ccZl1Be5.s 			page 14


 731 00fc AFF30080 		.section	.rodata.testdyn1,"a",%progbits
 732              		.align	2
 733              		.type	testdyn1, %object
 734              		.size	testdyn1, 16
 735              	testdyn1:
 736 0000 20000000 		.word	.LC7
 737 0004 00000000 		.word	dyn1_setup
 738 0008 00000000 		.word	0
 739 000c 00000000 		.word	dyn1_execute
 740              		.section	.rodata.testdyn2,"a",%progbits
 741              		.align	2
 742              		.type	testdyn2, %object
 743              		.size	testdyn2, 16
 744              	testdyn2:
 745 0000 4C000000 		.word	.LC8
 746 0004 00000000 		.word	dyn2_setup
 747 0008 00000000 		.word	0
 748 000c 00000000 		.word	dyn2_execute
 749              		.section	.rodata.testdyn3,"a",%progbits
 750              		.align	2
 751              		.type	testdyn3, %object
 752              		.size	testdyn3, 16
 753              	testdyn3:
 754 0000 7C000000 		.word	.LC9
 755 0004 00000000 		.word	dyn3_setup
 756 0008 00000000 		.word	0
 757 000c 00000000 		.word	dyn3_execute
 758              		.section	.bss.mp1,"aw",%nobits
 759              		.align	2
 760              		.set	.LANCHOR1,. + 0
 761              		.type	mp1, %object
 762              		.size	mp1, 12
 763              	mp1:
 764 0000 00000000 		.space	12
 764      00000000 
 764      00000000 
 765              		.section	.rodata.str1.4,"aMS",%progbits,1
 766              		.align	2
 767              	.LC0:
 768 0000 4100     		.ascii	"A\000"
 769 0002 0000     		.space	2
 770              	.LC1:
 771 0004 4200     		.ascii	"B\000"
 772 0006 0000     		.space	2
 773              	.LC2:
 774 0008 4300     		.ascii	"C\000"
 775 000a 0000     		.space	2
 776              	.LC3:
 777 000c 4400     		.ascii	"D\000"
 778 000e 0000     		.space	2
 779              	.LC4:
 780 0010 4500     		.ascii	"E\000"
 781 0012 0000     		.space	2
 782              	.LC5:
 783 0014 41424344 		.ascii	"ABCD\000"
 783      00
 784 0019 000000   		.space	3
ARM GAS  /tmp/ccZl1Be5.s 			page 15


 785              	.LC6:
 786 001c 414200   		.ascii	"AB\000"
 787 001f 00       		.space	1
 788              	.LC7:
 789 0020 44796E61 		.ascii	"Dynamic APIs, threads creation from heap\000"
 789      6D696320 
 789      41504973 
 789      2C207468 
 789      72656164 
 790 0049 000000   		.space	3
 791              	.LC8:
 792 004c 44796E61 		.ascii	"Dynamic APIs, threads creation from memory pool\000"
 792      6D696320 
 792      41504973 
 792      2C207468 
 792      72656164 
 793              	.LC9:
 794 007c 44796E61 		.ascii	"Dynamic APIs, registry and references\000"
 794      6D696320 
 794      41504973 
 794      2C207265 
 794      67697374 
 795 00a2 0000     		.section	.rodata.patterndyn,"a",%progbits
 796              		.align	2
 797              		.type	patterndyn, %object
 798              		.size	patterndyn, 16
 799              	patterndyn:
 800 0000 00000000 		.word	testdyn1
 801 0004 00000000 		.word	testdyn2
 802 0008 00000000 		.word	testdyn3
 803 000c 00000000 		.word	0
 804              		.section	.bss.heap1,"aw",%nobits
 805              		.align	3
 806              		.set	.LANCHOR0,. + 0
 807              		.type	heap1, %object
 808              		.size	heap1, 32
 809              	heap1:
 810 0000 00000000 		.space	32
 810      00000000 
 810      00000000 
 810      00000000 
 810      00000000 
 811              		.text
 812              	.Letext0:
