ARM GAS  /tmp/ccx3zCP0.s 			page 1


   1              		.syntax unified
   2              		.cpu cortex-m3
   3              		.fpu softvfp
   4              		.eabi_attribute 20, 1
   5              		.eabi_attribute 21, 1
   6              		.eabi_attribute 23, 3
   7              		.eabi_attribute 24, 1
   8              		.eabi_attribute 25, 1
   9              		.eabi_attribute 26, 1
  10              		.eabi_attribute 30, 2
  11              		.eabi_attribute 18, 4
  12              		.thumb
  13              		.file	"testpools.c"
  14              		.section	.debug_abbrev,"",%progbits
  15              	.Ldebug_abbrev0:
  16              		.section	.debug_info,"",%progbits
  17              	.Ldebug_info0:
  18              		.section	.debug_line,"",%progbits
  19              	.Ldebug_line0:
  20 0000 CA010000 		.text
  20      02008601 
  20      00000201 
  20      FB0E0D00 
  20      01010101 
  21              	.Ltext0:
  22              		.cfi_sections	.debug_frame
  23              		.section	.text.null_provider,"ax",%progbits
  24              		.align	2
  25              		.p2align 4,,15
  26              		.thumb
  27              		.thumb_func
  28              		.type	null_provider, %function
  29              	null_provider:
  30              	.LFB7:
  31              		.file 1 "/home/jairom/Documentos/Proyectos/Embebidos/Robocop/Source/code/matrix-creator-mcu/third_
  32              		.loc 1 71 0
  33              		.cfi_startproc
  34              		@ args = 0, pretend = 0, frame = 0
  35              		@ frame_needed = 0, uses_anonymous_args = 0
  36              		@ link register save eliminated.
  37              	.LVL0:
  38              		.loc 1 75 0
  39 0000 0020     		movs	r0, #0
  40              	.LVL1:
  41 0002 7047     		bx	lr
  42              		.cfi_endproc
  43              	.LFE7:
  44              		.size	null_provider, .-null_provider
  45 0004 AFF30080 		.section	.text.pools1_execute,"ax",%progbits
  45      AFF30080 
  45      AFF30080 
  46              		.align	2
  47              		.p2align 4,,15
  48              		.thumb
  49              		.thumb_func
  50              		.type	pools1_execute, %function
  51              	pools1_execute:
ARM GAS  /tmp/ccx3zCP0.s 			page 2


  52              	.LFB9:
  53              		.loc 1 82 0
  54              		.cfi_startproc
  55              		@ args = 0, pretend = 0, frame = 0
  56              		@ frame_needed = 0, uses_anonymous_args = 0
  57              	.LVL2:
  58 0000 10B5     		push	{r4, lr}
  59              	.LCFI0:
  60              		.cfi_def_cfa_offset 8
  61              		.loc 1 87 0
  62 0002 324C     		ldr	r4, .L6
  63              		.cfi_offset 14, -4
  64              		.cfi_offset 4, -8
  65 0004 3248     		ldr	r0, .L6+4
  66 0006 2168     		ldr	r1, [r4, #0]
  67 0008 FFF7FEFF 		bl	chPoolFree
  68              	.LVL3:
  69 000c 3048     		ldr	r0, .L6+4
  70 000e 6168     		ldr	r1, [r4, #4]
  71 0010 FFF7FEFF 		bl	chPoolFree
  72              	.LVL4:
  73 0014 2E48     		ldr	r0, .L6+4
  74 0016 A168     		ldr	r1, [r4, #8]
  75 0018 FFF7FEFF 		bl	chPoolFree
  76              	.LVL5:
  77 001c 2C48     		ldr	r0, .L6+4
  78 001e E168     		ldr	r1, [r4, #12]
  79 0020 FFF7FEFF 		bl	chPoolFree
  80              	.LVL6:
  81 0024 2169     		ldr	r1, [r4, #16]
  82 0026 2A48     		ldr	r0, .L6+4
  83 0028 FFF7FEFF 		bl	chPoolFree
  84              	.LVL7:
  85              		.loc 1 91 0
  86 002c 2848     		ldr	r0, .L6+4
  87 002e FFF7FEFF 		bl	chPoolAlloc
  88 0032 011E     		subs	r1, r0, #0
  89 0034 18BF     		it	ne
  90 0036 0121     		movne	r1, #1
  91 0038 0120     		movs	r0, #1
  92 003a FFF7FEFF 		bl	_test_assert
  93 003e 0028     		cmp	r0, #0
  94 0040 32D1     		bne	.L2
  95              	.LVL8:
  96 0042 2348     		ldr	r0, .L6+4
  97 0044 FFF7FEFF 		bl	chPoolAlloc
  98 0048 011E     		subs	r1, r0, #0
  99 004a 18BF     		it	ne
 100 004c 0121     		movne	r1, #1
 101 004e 0120     		movs	r0, #1
 102 0050 FFF7FEFF 		bl	_test_assert
 103 0054 40BB     		cbnz	r0, .L2
 104              	.LVL9:
 105 0056 1E48     		ldr	r0, .L6+4
 106 0058 FFF7FEFF 		bl	chPoolAlloc
 107 005c 011E     		subs	r1, r0, #0
 108 005e 18BF     		it	ne
ARM GAS  /tmp/ccx3zCP0.s 			page 3


 109 0060 0121     		movne	r1, #1
 110 0062 0120     		movs	r0, #1
 111 0064 FFF7FEFF 		bl	_test_assert
 112 0068 F0B9     		cbnz	r0, .L2
 113              	.LVL10:
 114 006a 1948     		ldr	r0, .L6+4
 115 006c FFF7FEFF 		bl	chPoolAlloc
 116 0070 011E     		subs	r1, r0, #0
 117 0072 18BF     		it	ne
 118 0074 0121     		movne	r1, #1
 119 0076 0120     		movs	r0, #1
 120 0078 FFF7FEFF 		bl	_test_assert
 121 007c A0B9     		cbnz	r0, .L2
 122              	.LVL11:
 123 007e 1448     		ldr	r0, .L6+4
 124 0080 FFF7FEFF 		bl	chPoolAlloc
 125 0084 011E     		subs	r1, r0, #0
 126 0086 18BF     		it	ne
 127 0088 0121     		movne	r1, #1
 128 008a 0120     		movs	r0, #1
 129 008c FFF7FEFF 		bl	_test_assert
 130 0090 50B9     		cbnz	r0, .L2
 131              	.LVL12:
 132              		.loc 1 94 0
 133 0092 0F48     		ldr	r0, .L6+4
 134 0094 FFF7FEFF 		bl	chPoolAlloc
 135 0098 D0F10101 		rsbs	r1, r0, #1
 136 009c 38BF     		it	cc
 137 009e 0021     		movcc	r1, #0
 138 00a0 0220     		movs	r0, #2
 139 00a2 FFF7FEFF 		bl	_test_assert
 140 00a6 00B1     		cbz	r0, .L5
 141              	.LVL13:
 142              	.L2:
 143 00a8 10BD     		pop	{r4, pc}
 144              	.LVL14:
 145              	.L5:
 146              		.loc 1 97 0
 147 00aa 1021     		movs	r1, #16
 148 00ac 094A     		ldr	r2, .L6+8
 149 00ae 0848     		ldr	r0, .L6+4
 150 00b0 FFF7FEFF 		bl	chPoolInit
 151              		.loc 1 98 0
 152 00b4 0648     		ldr	r0, .L6+4
 153 00b6 FFF7FEFF 		bl	chPoolAlloc
 154 00ba D0F10101 		rsbs	r1, r0, #1
 155 00be 38BF     		it	cc
 156 00c0 0021     		movcc	r1, #0
 157 00c2 0320     		movs	r0, #3
 158              		.loc 1 99 0
 159 00c4 BDE81040 		pop	{r4, lr}
 160              		.loc 1 98 0
 161 00c8 FFF7FEBF 		b	_test_assert
 162              	.L7:
 163              		.align	2
 164              	.L6:
 165 00cc 00000000 		.word	wa
ARM GAS  /tmp/ccx3zCP0.s 			page 4


 166 00d0 00000000 		.word	.LANCHOR0
 167 00d4 00000000 		.word	null_provider
 168              		.cfi_endproc
 169              	.LFE9:
 170              		.size	pools1_execute, .-pools1_execute
 171 00d8 AFF30080 		.section	.text.pools1_setup,"ax",%progbits
 171      AFF30080 
 172              		.align	2
 173              		.p2align 4,,15
 174              		.thumb
 175              		.thumb_func
 176              		.type	pools1_setup, %function
 177              	pools1_setup:
 178              	.LFB8:
 179              		.loc 1 77 0
 180              		.cfi_startproc
 181              		@ args = 0, pretend = 0, frame = 0
 182              		@ frame_needed = 0, uses_anonymous_args = 0
 183              		@ link register save eliminated.
 184              		.loc 1 79 0
 185 0000 0248     		ldr	r0, .L9
 186 0002 4FF49871 		mov	r1, #304
 187 0006 0022     		movs	r2, #0
 188              		.loc 1 80 0
 189              		.loc 1 79 0
 190 0008 FFF7FEBF 		b	chPoolInit
 191              	.L10:
 192              		.align	2
 193              	.L9:
 194 000c 00000000 		.word	.LANCHOR0
 195              		.cfi_endproc
 196              	.LFE8:
 197              		.size	pools1_setup, .-pools1_setup
 198              		.global	testpools1
 199              		.global	patternpools
 200              		.section	.rodata.str1.4,"aMS",%progbits,1
 201              		.align	2
 202              	.LC0:
 203 0000 4D656D6F 		.ascii	"Memory Pools, queue/dequeue\000"
 203      72792050 
 203      6F6F6C73 
 203      2C207175 
 203      6575652F 
 204              		.section	.rodata.patternpools,"a",%progbits
 205              		.align	2
 206              		.type	patternpools, %object
 207              		.size	patternpools, 8
 208              	patternpools:
 209 0000 00000000 		.word	testpools1
 210 0004 00000000 		.word	0
 211              		.section	.data.mp1,"aw",%progbits
 212              		.align	2
 213              		.set	.LANCHOR0,. + 0
 214              		.type	mp1, %object
 215              		.size	mp1, 12
 216              	mp1:
 217 0000 00000000 		.word	0
ARM GAS  /tmp/ccx3zCP0.s 			page 5


 218 0004 30010000 		.word	304
 219 0008 00000000 		.word	0
 220              		.section	.rodata.testpools1,"a",%progbits
 221              		.align	2
 222              		.type	testpools1, %object
 223              		.size	testpools1, 16
 224              	testpools1:
 225 0000 00000000 		.word	.LC0
 226 0004 00000000 		.word	pools1_setup
 227 0008 00000000 		.word	0
 228 000c 00000000 		.word	pools1_execute
 229              		.text
 230              	.Letext0:
