Archive member included because of file (symbol)

/usr/local/CodeBench_1802_EABI/bin/../lib/gcc/arm-none-eabi/4.5.2/../../../../arm-none-eabi/lib/thumb2/libc.a(lib_a-assert.o)
                              build/obj/atmel_adc.o (__assert_func)
/usr/local/CodeBench_1802_EABI/bin/../lib/gcc/arm-none-eabi/4.5.2/../../../../arm-none-eabi/lib/thumb2/libc.a(lib_a-fiprintf.o)
                              /usr/local/CodeBench_1802_EABI/bin/../lib/gcc/arm-none-eabi/4.5.2/../../../../arm-none-eabi/lib/thumb2/libc.a(lib_a-assert.o) (fiprintf)
/usr/local/CodeBench_1802_EABI/bin/../lib/gcc/arm-none-eabi/4.5.2/../../../../arm-none-eabi/lib/thumb2/libc.a(lib_a-impure.o)
                              /usr/local/CodeBench_1802_EABI/bin/../lib/gcc/arm-none-eabi/4.5.2/../../../../arm-none-eabi/lib/thumb2/libc.a(lib_a-assert.o) (_impure_ptr)
/usr/local/CodeBench_1802_EABI/bin/../lib/gcc/arm-none-eabi/4.5.2/../../../../arm-none-eabi/lib/thumb2/libc.a(lib_a-memset.o)
                              build/obj/syscalls.o (memset)
/usr/local/CodeBench_1802_EABI/bin/../lib/gcc/arm-none-eabi/4.5.2/../../../../arm-none-eabi/lib/thumb2/libc.a(lib_a-vfiprintf.o)
                              /usr/local/CodeBench_1802_EABI/bin/../lib/gcc/arm-none-eabi/4.5.2/../../../../arm-none-eabi/lib/thumb2/libc.a(lib_a-fiprintf.o) (_vfiprintf_r)
/usr/local/CodeBench_1802_EABI/bin/../lib/gcc/arm-none-eabi/4.5.2/../../../../arm-none-eabi/lib/thumb2/libc.a(lib_a-wsetup.o)
                              /usr/local/CodeBench_1802_EABI/bin/../lib/gcc/arm-none-eabi/4.5.2/../../../../arm-none-eabi/lib/thumb2/libc.a(lib_a-vfiprintf.o) (__swsetup_r)
/usr/local/CodeBench_1802_EABI/bin/../lib/gcc/arm-none-eabi/4.5.2/../../../../arm-none-eabi/lib/thumb2/libc.a(lib_a-abort.o)
                              /usr/local/CodeBench_1802_EABI/bin/../lib/gcc/arm-none-eabi/4.5.2/../../../../arm-none-eabi/lib/thumb2/libc.a(lib_a-assert.o) (abort)
/usr/local/CodeBench_1802_EABI/bin/../lib/gcc/arm-none-eabi/4.5.2/../../../../arm-none-eabi/lib/thumb2/libc.a(lib_a-fflush.o)
                              /usr/local/CodeBench_1802_EABI/bin/../lib/gcc/arm-none-eabi/4.5.2/../../../../arm-none-eabi/lib/thumb2/libc.a(lib_a-vfiprintf.o) (_fflush_r)
/usr/local/CodeBench_1802_EABI/bin/../lib/gcc/arm-none-eabi/4.5.2/../../../../arm-none-eabi/lib/thumb2/libc.a(lib_a-findfp.o)
                              /usr/local/CodeBench_1802_EABI/bin/../lib/gcc/arm-none-eabi/4.5.2/../../../../arm-none-eabi/lib/thumb2/libc.a(lib_a-vfiprintf.o) (__sinit)
/usr/local/CodeBench_1802_EABI/bin/../lib/gcc/arm-none-eabi/4.5.2/../../../../arm-none-eabi/lib/thumb2/libc.a(lib_a-fputwc.o)
                              /usr/local/CodeBench_1802_EABI/bin/../lib/gcc/arm-none-eabi/4.5.2/../../../../arm-none-eabi/lib/thumb2/libc.a(lib_a-vfiprintf.o) (_fputwc_r)
/usr/local/CodeBench_1802_EABI/bin/../lib/gcc/arm-none-eabi/4.5.2/../../../../arm-none-eabi/lib/thumb2/libc.a(lib_a-freer.o)
                              /usr/local/CodeBench_1802_EABI/bin/../lib/gcc/arm-none-eabi/4.5.2/../../../../arm-none-eabi/lib/thumb2/libc.a(lib_a-wsetup.o) (_free_r)
/usr/local/CodeBench_1802_EABI/bin/../lib/gcc/arm-none-eabi/4.5.2/../../../../arm-none-eabi/lib/thumb2/libc.a(lib_a-fvwrite.o)
                              /usr/local/CodeBench_1802_EABI/bin/../lib/gcc/arm-none-eabi/4.5.2/../../../../arm-none-eabi/lib/thumb2/libc.a(lib_a-vfiprintf.o) (__sfvwrite_r)
/usr/local/CodeBench_1802_EABI/bin/../lib/gcc/arm-none-eabi/4.5.2/../../../../arm-none-eabi/lib/thumb2/libc.a(lib_a-fwalk.o)
                              /usr/local/CodeBench_1802_EABI/bin/../lib/gcc/arm-none-eabi/4.5.2/../../../../arm-none-eabi/lib/thumb2/libc.a(lib_a-findfp.o) (_fwalk)
/usr/local/CodeBench_1802_EABI/bin/../lib/gcc/arm-none-eabi/4.5.2/../../../../arm-none-eabi/lib/thumb2/libc.a(lib_a-locale.o)
                              /usr/local/CodeBench_1802_EABI/bin/../lib/gcc/arm-none-eabi/4.5.2/../../../../arm-none-eabi/lib/thumb2/libc.a(lib_a-fputwc.o) (__locale_mb_cur_max)
/usr/local/CodeBench_1802_EABI/bin/../lib/gcc/arm-none-eabi/4.5.2/../../../../arm-none-eabi/lib/thumb2/libc.a(lib_a-makebuf.o)
                              /usr/local/CodeBench_1802_EABI/bin/../lib/gcc/arm-none-eabi/4.5.2/../../../../arm-none-eabi/lib/thumb2/libc.a(lib_a-wsetup.o) (__smakebuf_r)
/usr/local/CodeBench_1802_EABI/bin/../lib/gcc/arm-none-eabi/4.5.2/../../../../arm-none-eabi/lib/thumb2/libc.a(lib_a-mallocr.o)
                              /usr/local/CodeBench_1802_EABI/bin/../lib/gcc/arm-none-eabi/4.5.2/../../../../arm-none-eabi/lib/thumb2/libc.a(lib_a-findfp.o) (_malloc_r)
/usr/local/CodeBench_1802_EABI/bin/../lib/gcc/arm-none-eabi/4.5.2/../../../../arm-none-eabi/lib/thumb2/libc.a(lib_a-memchr.o)
                              /usr/local/CodeBench_1802_EABI/bin/../lib/gcc/arm-none-eabi/4.5.2/../../../../arm-none-eabi/lib/thumb2/libc.a(lib_a-vfiprintf.o) (memchr)
/usr/local/CodeBench_1802_EABI/bin/../lib/gcc/arm-none-eabi/4.5.2/../../../../arm-none-eabi/lib/thumb2/libc.a(lib_a-memcpy.o)
                              /usr/local/CodeBench_1802_EABI/bin/../lib/gcc/arm-none-eabi/4.5.2/../../../../arm-none-eabi/lib/thumb2/libc.a(lib_a-fvwrite.o) (memcpy)
/usr/local/CodeBench_1802_EABI/bin/../lib/gcc/arm-none-eabi/4.5.2/../../../../arm-none-eabi/lib/thumb2/libc.a(lib_a-memmove.o)
                              /usr/local/CodeBench_1802_EABI/bin/../lib/gcc/arm-none-eabi/4.5.2/../../../../arm-none-eabi/lib/thumb2/libc.a(lib_a-fvwrite.o) (memmove)
/usr/local/CodeBench_1802_EABI/bin/../lib/gcc/arm-none-eabi/4.5.2/../../../../arm-none-eabi/lib/thumb2/libc.a(lib_a-mlock.o)
                              /usr/local/CodeBench_1802_EABI/bin/../lib/gcc/arm-none-eabi/4.5.2/../../../../arm-none-eabi/lib/thumb2/libc.a(lib_a-freer.o) (__malloc_lock)
/usr/local/CodeBench_1802_EABI/bin/../lib/gcc/arm-none-eabi/4.5.2/../../../../arm-none-eabi/lib/thumb2/libc.a(lib_a-reallocr.o)
                              /usr/local/CodeBench_1802_EABI/bin/../lib/gcc/arm-none-eabi/4.5.2/../../../../arm-none-eabi/lib/thumb2/libc.a(lib_a-fvwrite.o) (_realloc_r)
/usr/local/CodeBench_1802_EABI/bin/../lib/gcc/arm-none-eabi/4.5.2/../../../../arm-none-eabi/lib/thumb2/libc.a(lib_a-signal.o)
                              /usr/local/CodeBench_1802_EABI/bin/../lib/gcc/arm-none-eabi/4.5.2/../../../../arm-none-eabi/lib/thumb2/libc.a(lib_a-abort.o) (raise)
/usr/local/CodeBench_1802_EABI/bin/../lib/gcc/arm-none-eabi/4.5.2/../../../../arm-none-eabi/lib/thumb2/libc.a(lib_a-signalr.o)
                              /usr/local/CodeBench_1802_EABI/bin/../lib/gcc/arm-none-eabi/4.5.2/../../../../arm-none-eabi/lib/thumb2/libc.a(lib_a-signal.o) (_kill_r)
/usr/local/CodeBench_1802_EABI/bin/../lib/gcc/arm-none-eabi/4.5.2/../../../../arm-none-eabi/lib/thumb2/libc.a(lib_a-stdio.o)
                              /usr/local/CodeBench_1802_EABI/bin/../lib/gcc/arm-none-eabi/4.5.2/../../../../arm-none-eabi/lib/thumb2/libc.a(lib_a-findfp.o) (__sread)
/usr/local/CodeBench_1802_EABI/bin/../lib/gcc/arm-none-eabi/4.5.2/../../../../arm-none-eabi/lib/thumb2/libc.a(lib_a-strcmp.o)
                              /usr/local/CodeBench_1802_EABI/bin/../lib/gcc/arm-none-eabi/4.5.2/../../../../arm-none-eabi/lib/thumb2/libc.a(lib_a-locale.o) (strcmp)
/usr/local/CodeBench_1802_EABI/bin/../lib/gcc/arm-none-eabi/4.5.2/../../../../arm-none-eabi/lib/thumb2/libc.a(lib_a-strlen.o)
                              /usr/local/CodeBench_1802_EABI/bin/../lib/gcc/arm-none-eabi/4.5.2/../../../../arm-none-eabi/lib/thumb2/libc.a(lib_a-vfiprintf.o) (strlen)
/usr/local/CodeBench_1802_EABI/bin/../lib/gcc/arm-none-eabi/4.5.2/../../../../arm-none-eabi/lib/thumb2/libc.a(lib_a-wbuf.o)
                              /usr/local/CodeBench_1802_EABI/bin/../lib/gcc/arm-none-eabi/4.5.2/../../../../arm-none-eabi/lib/thumb2/libc.a(lib_a-fputwc.o) (__swbuf_r)
/usr/local/CodeBench_1802_EABI/bin/../lib/gcc/arm-none-eabi/4.5.2/../../../../arm-none-eabi/lib/thumb2/libc.a(lib_a-wcrtomb.o)
                              /usr/local/CodeBench_1802_EABI/bin/../lib/gcc/arm-none-eabi/4.5.2/../../../../arm-none-eabi/lib/thumb2/libc.a(lib_a-fputwc.o) (_wcrtomb_r)
/usr/local/CodeBench_1802_EABI/bin/../lib/gcc/arm-none-eabi/4.5.2/../../../../arm-none-eabi/lib/thumb2/libc.a(lib_a-wctomb_r.o)
                              /usr/local/CodeBench_1802_EABI/bin/../lib/gcc/arm-none-eabi/4.5.2/../../../../arm-none-eabi/lib/thumb2/libc.a(lib_a-wcrtomb.o) (__wctomb)
/usr/local/CodeBench_1802_EABI/bin/../lib/gcc/arm-none-eabi/4.5.2/../../../../arm-none-eabi/lib/thumb2/libc.a(lib_a-fclose.o)
                              /usr/local/CodeBench_1802_EABI/bin/../lib/gcc/arm-none-eabi/4.5.2/../../../../arm-none-eabi/lib/thumb2/libc.a(lib_a-findfp.o) (fclose)
/usr/local/CodeBench_1802_EABI/bin/../lib/gcc/arm-none-eabi/4.5.2/../../../../arm-none-eabi/lib/thumb2/libc.a(lib_a-reent.o)
                              /usr/local/CodeBench_1802_EABI/bin/../lib/gcc/arm-none-eabi/4.5.2/../../../../arm-none-eabi/lib/thumb2/libc.a(lib_a-signalr.o) (errno)
/usr/local/CodeBench_1802_EABI/bin/../lib/gcc/arm-none-eabi/4.5.2/thumb2/libgcc.a(_aeabi_uldivmod.o)
                              /usr/local/CodeBench_1802_EABI/bin/../lib/gcc/arm-none-eabi/4.5.2/../../../../arm-none-eabi/lib/thumb2/libc.a(lib_a-vfiprintf.o) (__aeabi_uldivmod)
/usr/local/CodeBench_1802_EABI/bin/../lib/gcc/arm-none-eabi/4.5.2/thumb2/libgcc.a(bpabi.o)
                              /usr/local/CodeBench_1802_EABI/bin/../lib/gcc/arm-none-eabi/4.5.2/thumb2/libgcc.a(_aeabi_uldivmod.o) (__gnu_uldivmod_helper)
/usr/local/CodeBench_1802_EABI/bin/../lib/gcc/arm-none-eabi/4.5.2/thumb2/libgcc.a(_dvmd_tls.o)
                              /usr/local/CodeBench_1802_EABI/bin/../lib/gcc/arm-none-eabi/4.5.2/thumb2/libgcc.a(_aeabi_uldivmod.o) (__aeabi_ldiv0)
/usr/local/CodeBench_1802_EABI/bin/../lib/gcc/arm-none-eabi/4.5.2/thumb2/libgcc.a(_divdi3.o)
                              /usr/local/CodeBench_1802_EABI/bin/../lib/gcc/arm-none-eabi/4.5.2/thumb2/libgcc.a(bpabi.o) (__divdi3)
/usr/local/CodeBench_1802_EABI/bin/../lib/gcc/arm-none-eabi/4.5.2/thumb2/libgcc.a(_udivdi3.o)
                              /usr/local/CodeBench_1802_EABI/bin/../lib/gcc/arm-none-eabi/4.5.2/thumb2/libgcc.a(bpabi.o) (__udivdi3)
/usr/local/CodeBench_1802_EABI/bin/../lib/gcc/arm-none-eabi/4.5.2/thumb2/libgcc.a(_udivsi3.o)
                              /usr/local/CodeBench_1802_EABI/bin/../lib/gcc/arm-none-eabi/4.5.2/thumb2/libgcc.a(_divdi3.o) (__aeabi_uidiv)

Allocating common symbols
Common symbol       size              file

errno               0x4               /usr/local/CodeBench_1802_EABI/bin/../lib/gcc/arm-none-eabi/4.5.2/../../../../arm-none-eabi/lib/thumb2/libc.a(lib_a-reent.o)

Discarded input sections

 .text          0x00000000        0x0 build/obj/crt0.o
 .data          0x00000000        0x0 build/obj/crt0.o
 .bss           0x00000000        0x0 build/obj/crt0.o
 .text.__early_init
                0x00000000       0x10 build/obj/crt0.o
 .text          0x00000000        0x0 build/obj/vectors.o
 .data          0x00000000        0x0 build/obj/vectors.o
 .bss           0x00000000        0x0 build/obj/vectors.o
 .text          0x00000000        0x0 build/obj/chcore.o
 .data          0x00000000        0x0 build/obj/chcore.o
 .bss           0x00000000        0x0 build/obj/chcore.o
 .text.port_halt
                0x00000000       0x10 build/obj/chcore.o
 .text          0x00000000        0x0 build/obj/chcore_v7m.o
 .data          0x00000000        0x0 build/obj/chcore_v7m.o
 .bss           0x00000000        0x0 build/obj/chcore_v7m.o
 .text          0x00000000        0x0 build/obj/nvic.o
 .data          0x00000000        0x0 build/obj/nvic.o
Memory Configuration

Name             Origin             Length             Attributes
flash            0x00400000         0x00020000
ram              0x20000000         0x00008000
*default*        0x00000000         0xffffffff

Linker script and memory map

LOAD build/obj/crt0.o
LOAD build/obj/vectors.o
LOAD build/obj/chcore.o
LOAD build/obj/chcore_v7m.o
LOAD build/obj/nvic.o
LOAD build/obj/chsys.o
LOAD build/obj/chlists.o
LOAD build/obj/chvt.o
LOAD build/obj/chschd.o
LOAD build/obj/chthreads.o
LOAD build/obj/chdynamic.o
LOAD build/obj/chregistry.o
LOAD build/obj/chsem.o
LOAD build/obj/chmtx.o
LOAD build/obj/chcond.o
LOAD build/obj/chevents.o
LOAD build/obj/chmsg.o
LOAD build/obj/chmboxes.o
LOAD build/obj/chqueues.o
LOAD build/obj/chmemcore.o
LOAD build/obj/chheap.o
LOAD build/obj/chmempools.o
LOAD build/obj/test.o
LOAD build/obj/testthd.o
LOAD build/obj/testsem.o
LOAD build/obj/testmtx.o
LOAD build/obj/testmsg.o
LOAD build/obj/testmbox.o
LOAD build/obj/testevt.o
LOAD build/obj/testheap.o
LOAD build/obj/testpools.o
LOAD build/obj/testdyn.o
LOAD build/obj/testqueues.o
LOAD build/obj/testbmk.o
LOAD build/obj/hal.o
LOAD build/obj/pal.o
LOAD build/obj/serial.o
LOAD build/obj/hal_lld.o
LOAD build/obj/system_SAM3.o
LOAD build/obj/pal_lld.o
LOAD build/obj/serial_lld.o
LOAD build/obj/atmel_adc.o
LOAD build/obj/pio.o
LOAD build/obj/pmc.o
LOAD build/obj/atmel_twi.o
LOAD build/obj/atmel_twid.o
LOAD build/obj/atmel_spi.o
LOAD build/obj/atmel_psram.o
LOAD build/obj/board.o
LOAD build/obj/evtimer.o
LOAD build/obj/syscalls.o
LOAD build/obj/chprintf.o
LOAD build/obj/main.o
START GROUP
LOAD /usr/local/CodeBench_1802_EABI/bin/../lib/gcc/arm-none-eabi/4.5.2/thumb2/libgcc.a
LOAD /usr/local/CodeBench_1802_EABI/bin/../lib/gcc/arm-none-eabi/4.5.2/../../../../arm-none-eabi/lib/thumb2/libc.a
END GROUP
                0x00000400                __main_stack_size__ = 0x400
                0x00000400                __process_stack_size__ = 0x400
                0x00000800                __stacks_total_size__ = (__main_stack_size__ + __process_stack_size__)
                0x20000000                __ram_start__ = 0x20000000
                0x00008000                __ram_size__ = 0x8000
                0x20008000                __ram_end__ = (__ram_start__ + __ram_size__)
                0x00000000                . = 0x0
                0x00000000                _text = .

startup         0x00400000       0xd0
 *(vectors)
 vectors        0x00400000       0xd0 build/obj/vectors.o
                0x00400000                _vectors

constructors    0x004000d0        0x0
                0x004000d0                PROVIDE (__init_array_start, .)
 *(SORT(.init_array.*))
 *(.init_array)
                0x004000d0                PROVIDE (__init_array_end, .)

destructors     0x004000d0        0x0
                0x004000d0                PROVIDE (__fini_array_start, .)
 *(.fini_array)
 *(SORT(.fini_array.*))
                0x004000d0                PROVIDE (__fini_array_end, .)

.text           0x004000d0     0x585c
 *(.text.startup.*)
 *(.text)
 .text          0x004000d0       0x54 /usr/local/CodeBench_1802_EABI/bin/../lib/gcc/arm-none-eabi/4.5.2/../../../../arm-none-eabi/lib/thumb2/libc.a(lib_a-assert.o)
                0x004000d0                __assert_func
                0x00400118                __assert
 *fill*         0x00400124        0xc 00
 .text          0x00400130       0x4c /usr/local/CodeBench_1802_EABI/bin/../lib/gcc/arm-none-eabi/4.5.2/../../../../arm-none-eabi/lib/thumb2/libc.a(lib_a-fiprintf.o)
                0x00400130                _fiprintf_r
                0x00400150                fiprintf
 *fill*         0x0040017c        0x4 00
 .text          0x00400180       0xb4 /usr/local/CodeBench_1802_EABI/bin/../lib/gcc/arm-none-eabi/4.5.2/../../../../arm-none-eabi/lib/thumb2/libc.a(lib_a-memset.o)
                0x00400180                memset
 *fill*         0x00400234        0xc 00
 .text          0x00400240      0xdbc /usr/local/CodeBench_1802_EABI/bin/../lib/gcc/arm-none-eabi/4.5.2/../../../../arm-none-eabi/lib/thumb2/libc.a(lib_a-vfiprintf.o)
                0x00400240                __sprint_r
                0x004002c4                _vfiprintf_r
                0x00400fe0                vfiprintf
 *fill*         0x00400ffc        0x4 00
 .text          0x00401000      0x104 /usr/local/CodeBench_1802_EABI/bin/../lib/gcc/arm-none-eabi/4.5.2/../../../../arm-none-eabi/lib/thumb2/libc.a(lib_a-wsetup.o)
                0x00401000                __swsetup_r
 *fill*         0x00401104        0xc 00
 .text          0x00401110       0x10 /usr/local/CodeBench_1802_EABI/bin/../lib/gcc/arm-none-eabi/4.5.2/../../../../arm-none-eabi/lib/thumb2/libc.a(lib_a-abort.o)
                0x00401110                abort
 .text          0x00401120      0x1ec /usr/local/CodeBench_1802_EABI/bin/../lib/gcc/arm-none-eabi/4.5.2/../../../../arm-none-eabi/lib/thumb2/libc.a(lib_a-fflush.o)
                0x00401120                _fflush_r
                0x004012e4                fflush
 *fill*         0x0040130c        0x4 00
 .text          0x00401310      0x220 /usr/local/CodeBench_1802_EABI/bin/../lib/gcc/arm-none-eabi/4.5.2/../../../../arm-none-eabi/lib/thumb2/libc.a(lib_a-findfp.o)
                0x00401318                _cleanup_r
                0x00401324                __sfmoreglue
                0x00401354                _cleanup
                0x00401360                __sinit
                0x00401468                __sfp
                0x004014f0                __sfp_lock_acquire
                0x004014f4                __sfp_lock_release
                0x004014f8                __sinit_lock_acquire
                0x004014fc                __sinit_lock_release
                0x00401500                __fp_lock_all
                0x00401518                __fp_unlock_all
 .text          0x00401530      0x140 /usr/local/CodeBench_1802_EABI/bin/../lib/gcc/arm-none-eabi/4.5.2/../../../../arm-none-eabi/lib/thumb2/libc.a(lib_a-fputwc.o)
                0x00401530                _fputwc_r
                0x00401618                fputwc
 .text          0x00401670      0x240 /usr/local/CodeBench_1802_EABI/bin/../lib/gcc/arm-none-eabi/4.5.2/../../../../arm-none-eabi/lib/thumb2/libc.a(lib_a-freer.o)
                0x00401670                _malloc_trim_r
                0x00401718                _free_r
 .text          0x004018b0      0x338 /usr/local/CodeBench_1802_EABI/bin/../lib/gcc/arm-none-eabi/4.5.2/../../../../arm-none-eabi/lib/thumb2/libc.a(lib_a-fvwrite.o)
                0x004018b0                __sfvwrite_r
 *fill*         0x00401be8        0x8 00
 .text          0x00401bf0       0xac /usr/local/CodeBench_1802_EABI/bin/../lib/gcc/arm-none-eabi/4.5.2/../../../../arm-none-eabi/lib/thumb2/libc.a(lib_a-fwalk.o)
                0x00401bf0                _fwalk
                0x00401c44                _fwalk_reent
 *fill*         0x00401c9c        0x4 00
 .text          0x00401ca0       0xa0 /usr/local/CodeBench_1802_EABI/bin/../lib/gcc/arm-none-eabi/4.5.2/../../../../arm-none-eabi/lib/thumb2/libc.a(lib_a-locale.o)
                0x00401ca0                _setlocale_r
                0x00401cfc                __locale_charset
                0x00401d08                __locale_mb_cur_max
                0x00401d14                __locale_msgcharset
                0x00401d1c                __locale_cjk_lang
                0x00401d20                _localeconv_r
                0x00401d28                setlocale
                0x00401d38                localeconv
 .text          0x00401d40       0xec /usr/local/CodeBench_1802_EABI/bin/../lib/gcc/arm-none-eabi/4.5.2/../../../../arm-none-eabi/lib/thumb2/libc.a(lib_a-makebuf.o)
                0x00401d40                __smakebuf_r
 *fill*         0x00401e2c        0x4 00
 .text          0x00401e30      0x57c /usr/local/CodeBench_1802_EABI/bin/../lib/gcc/arm-none-eabi/4.5.2/../../../../arm-none-eabi/lib/thumb2/libc.a(lib_a-mallocr.o)
                0x00401e30                _malloc_r
 *fill*         0x004023ac        0x4 00
 .text          0x004023b0       0x8c /usr/local/CodeBench_1802_EABI/bin/../lib/gcc/arm-none-eabi/4.5.2/../../../../arm-none-eabi/lib/thumb2/libc.a(lib_a-memchr.o)
                0x004023b0                memchr
 *fill*         0x0040243c        0x4 00
 .text          0x00402440      0x150 /usr/local/CodeBench_1802_EABI/bin/../lib/gcc/arm-none-eabi/4.5.2/../../../../arm-none-eabi/lib/thumb2/libc.a(lib_a-memcpy.o)
                0x00402440                memcpy
 .text          0x00402590       0xb4 /usr/local/CodeBench_1802_EABI/bin/../lib/gcc/arm-none-eabi/4.5.2/../../../../arm-none-eabi/lib/thumb2/libc.a(lib_a-memmove.o)
                0x00402590                memmove
 *fill*         0x00402644        0xc 00
 .text          0x00402650        0x8 /usr/local/CodeBench_1802_EABI/bin/../lib/gcc/arm-none-eabi/4.5.2/../../../../arm-none-eabi/lib/thumb2/libc.a(lib_a-mlock.o)
                0x00402650                __malloc_lock
                0x00402654                __malloc_unlock
 *fill*         0x00402658        0x8 00
 .text          0x00402660      0x41c /usr/local/CodeBench_1802_EABI/bin/../lib/gcc/arm-none-eabi/4.5.2/../../../../arm-none-eabi/lib/thumb2/libc.a(lib_a-reallocr.o)
                0x00402660                _realloc_r
 *fill*         0x00402a7c        0x4 00
 .text          0x00402a80      0x154 /usr/local/CodeBench_1802_EABI/bin/../lib/gcc/arm-none-eabi/4.5.2/../../../../arm-none-eabi/lib/thumb2/libc.a(lib_a-signal.o)
                0x00402a80                _init_signal_r
                0x00402ab0                _signal_r
                0x00402aec                _raise_r
                0x00402b44                __sigtramp_r
                0x00402b98                raise
                0x00402ba8                signal
                0x00402bb8                _init_signal
                0x00402bc4                __sigtramp
 *fill*         0x00402bd4        0xc 00
 .text          0x00402be0       0x30 /usr/local/CodeBench_1802_EABI/bin/../lib/gcc/arm-none-eabi/4.5.2/../../../../arm-none-eabi/lib/thumb2/libc.a(lib_a-signalr.o)
                0x00402be0                _kill_r
                0x00402c0c                _getpid_r
 .text          0x00402c10       0x94 /usr/local/CodeBench_1802_EABI/bin/../lib/gcc/arm-none-eabi/4.5.2/../../../../arm-none-eabi/lib/thumb2/libc.a(lib_a-stdio.o)
                0x00402c10                __sread
                0x00402c34                __seofread
                0x00402c38                __swrite
                0x00402c74                __sseek
                0x00402c9c                __sclose
 *fill*         0x00402ca4        0xc 00
 .text          0x00402cb0      0x1dc /usr/local/CodeBench_1802_EABI/bin/../lib/gcc/arm-none-eabi/4.5.2/../../../../arm-none-eabi/lib/thumb2/libc.a(lib_a-strcmp.o)
                0x00402cb0                strcmp
 *fill*         0x00402e8c        0x4 00
 .text          0x00402e90       0x60 /usr/local/CodeBench_1802_EABI/bin/../lib/gcc/arm-none-eabi/4.5.2/../../../../arm-none-eabi/lib/thumb2/libc.a(lib_a-strlen.o)
                0x00402e90                strlen
 .text          0x00402ef0       0xfc /usr/local/CodeBench_1802_EABI/bin/../lib/gcc/arm-none-eabi/4.5.2/../../../../arm-none-eabi/lib/thumb2/libc.a(lib_a-wbuf.o)
                0x00402ef0                __swbuf_r
                0x00402fdc                __swbuf
 *fill*         0x00402fec        0x4 00
 .text          0x00402ff0       0xd0 /usr/local/CodeBench_1802_EABI/bin/../lib/gcc/arm-none-eabi/4.5.2/../../../../arm-none-eabi/lib/thumb2/libc.a(lib_a-wcrtomb.o)
                0x00402ff0                _wcrtomb_r
                0x0040304c                wcrtomb
 .text          0x004030c0       0x4c /usr/local/CodeBench_1802_EABI/bin/../lib/gcc/arm-none-eabi/4.5.2/../../../../arm-none-eabi/lib/thumb2/libc.a(lib_a-wctomb_r.o)
                0x004030c0                __ascii_wctomb
                0x004030dc                _wctomb_r
 *fill*         0x0040310c        0x4 00
 .text          0x00403110       0xc4 /usr/local/CodeBench_1802_EABI/bin/../lib/gcc/arm-none-eabi/4.5.2/../../../../arm-none-eabi/lib/thumb2/libc.a(lib_a-fclose.o)
                0x00403110                _fclose_r
                0x004031c4                fclose
 *fill*         0x004031d4        0xc 00
 .text          0x004031e0       0x2c /usr/local/CodeBench_1802_EABI/bin/../lib/gcc/arm-none-eabi/4.5.2/thumb2/libgcc.a(_aeabi_uldivmod.o)
                0x004031e0                __aeabi_uldivmod
 *fill*         0x0040320c        0x4 00
 .text          0x00403210       0x60 /usr/local/CodeBench_1802_EABI/bin/../lib/gcc/arm-none-eabi/4.5.2/thumb2/libgcc.a(bpabi.o)
                0x00403210                __gnu_ldivmod_helper
                0x00403240                __gnu_uldivmod_helper
 .text          0x00403270        0x4 /usr/local/CodeBench_1802_EABI/bin/../lib/gcc/arm-none-eabi/4.5.2/thumb2/libgcc.a(_dvmd_tls.o)
                0x00403270                __aeabi_ldiv0
                0x00403270                __aeabi_idiv0
 *fill*         0x00403274        0xc 00
 .text          0x00403280      0x360 /usr/local/CodeBench_1802_EABI/bin/../lib/gcc/arm-none-eabi/4.5.2/thumb2/libgcc.a(_divdi3.o)
                0x00403280                __divdi3
 .text          0x004035e0      0x308 /usr/local/CodeBench_1802_EABI/bin/../lib/gcc/arm-none-eabi/4.5.2/thumb2/libgcc.a(_udivdi3.o)
                0x004035e0                __udivdi3
 *fill*         0x004038e8        0x8 00
 .text          0x004038f0      0x278 /usr/local/CodeBench_1802_EABI/bin/../lib/gcc/arm-none-eabi/4.5.2/thumb2/libgcc.a(_udivsi3.o)
                0x004038f0                __udivsi3
                0x004038f0                __aeabi_uidiv
                0x00403b4c                __aeabi_uidivmod
 *(.text.*)
 *fill*         0x00403b68        0x8 00
 .text.__late_init
                0x00403b70       0x10 build/obj/crt0.o
                0x00403b70                __late_init
 .text._default_exit
                0x00403b80       0x10 build/obj/crt0.o
                0x00403b80                _default_exit
 .text.ResetHandler
                0x00403b90      0x1d0 build/obj/crt0.o
                0x00403b90                ResetHandler
 .text._unhandled_exception
                0x00403d60       0x10 build/obj/vectors.o
                0x00403d60                Vector58
                0x00403d60                Vector9C
                0x00403d60                VectorAC
                0x00403d60                Vector5C
                0x00403d60                NMIVector
                0x00403d60                Vector8C
                0x00403d60                VectorC8
                0x00403d60                Vector94
                0x00403d60                VectorA8
                0x00403d60                VectorB4
                0x00403d60                Vector74
                0x00403d60                UsageFaultVector
                0x00403d60                DebugMonitorVector
                0x00403d60                Vector40
                0x00403d60                VectorBC
                0x00403d60                PendSVVector
                0x00403d60                VectorCC
                0x00403d60                Vector54
                0x00403d60                Vector98
                0x00403d60                Vector24
                0x00403d60                Vector84
                0x00403d60                BusFaultVector
                0x00403d60                VectorC0
                0x00403d60                HardFaultVector
                0x00403d60                MemManageVector
                0x00403d60                Vector6C
                0x00403d60                VectorA0
                0x00403d60                VectorC4
                0x00403d60                Vector7C
                0x00403d60                VectorB0
                0x00403d60                Vector90
                0x00403d60                Vector1C
                0x00403d60                Vector48
                0x00403d60                Vector70
                0x00403d60                Vector4C
                0x00403d60                Vector80
                0x00403d60                Vector68
                0x00403d60                Vector78
                0x00403d60                _unhandled_exception
                0x00403d60                Vector88
                0x00403d60                Vector50
                0x00403d60                Vector44
                0x00403d60                Vector28
                0x00403d60                VectorB8
                0x00403d60                Vector34
                0x00403d60                VectorA4
                0x00403d60                Vector20
 .text._port_switch_from_isr
                0x00403d70       0x10 build/obj/chcore_v7m.o
                0x00403d70                _port_switch_from_isr
 .text.SVCallVector
                0x00403d80       0x20 build/obj/chcore_v7m.o
                0x00403d80                SVCallVector
 .text._port_init
                0x00403da0       0x40 build/obj/chcore_v7m.o
                0x00403da0                _port_init
 .text._port_irq_epilogue
                0x00403de0       0x70 build/obj/chcore_v7m.o
                0x00403de0                _port_irq_epilogue
 .text.SysTickVector
                0x00403e50       0x20 build/obj/chcore_v7m.o
                0x00403e50                SysTickVector
 .text._port_switch
                0x00403e70       0x10 build/obj/chcore_v7m.o
                0x00403e70                _port_switch
 .text._port_thread_start
                0x00403e80       0x10 build/obj/chcore_v7m.o
                0x00403e80                _port_thread_start
 .text.nvicEnableVector
                0x00403e90       0x50 build/obj/nvic.o
                0x00403e90                nvicEnableVector
 .text.nvicSetSystemHandlerPriority
                0x00403ee0       0x30 build/obj/nvic.o
                0x00403ee0                nvicSetSystemHandlerPriority
 .text._idle_thread
                0x00403f10       0x20 build/obj/chsys.o
                0x00403f10                _idle_thread
 .text.chSysInit
                0x00403f30       0x60 build/obj/chsys.o
                0x00403f30                chSysInit
 .text.chSysTimerHandlerI
                0x00403f90       0x50 build/obj/chsys.o
                0x00403f90                chSysTimerHandlerI
 .text._vt_init
                0x00403fe0       0x20 build/obj/chvt.o
                0x00403fe0                _vt_init
 .text.chVTSetI
                0x00404000       0x40 build/obj/chvt.o
                0x00404000                chVTSetI
 .text.chVTResetI
                0x00404040       0x30 build/obj/chvt.o
                0x00404040                chVTResetI
 .text.wakeup   0x00404070       0x50 build/obj/chschd.o
 .text._scheduler_init
                0x004040c0       0x20 build/obj/chschd.o
                0x004040c0                _scheduler_init
 .text.chSchReadyI
                0x004040e0       0x20 build/obj/chschd.o
                0x004040e0                chSchReadyI
 .text.chSchGoSleepS
                0x00404100       0x30 build/obj/chschd.o
                0x00404100                chSchGoSleepS
 .text.chSchGoSleepTimeoutS
                0x00404130       0x40 build/obj/chschd.o
                0x00404130                chSchGoSleepTimeoutS
 .text.chSchWakeupS
                0x00404170       0x60 build/obj/chschd.o
                0x00404170                chSchWakeupS
 .text.chSchDoReschedule
                0x004041d0       0x40 build/obj/chschd.o
                0x004041d0                chSchDoReschedule
 .text._thread_init
                0x00404210       0x40 build/obj/chthreads.o
                0x00404210                _thread_init
 .text.chThdCreateI
                0x00404250       0x50 build/obj/chthreads.o
                0x00404250                chThdCreateI
 .text.chThdCreateStatic
                0x004042a0       0x30 build/obj/chthreads.o
                0x004042a0                chThdCreateStatic
 .text.chThdSleep
                0x004042d0       0x20 build/obj/chthreads.o
                0x004042d0                chThdSleep
 .text.chThdExitS
                0x004042f0       0x50 build/obj/chthreads.o
                0x004042f0                chThdExitS
 .text.chThdExit
                0x00404340       0x10 build/obj/chthreads.o
                0x00404340                chThdExit
 .text.chMtxInit
                0x00404350       0x10 build/obj/chmtx.o
                0x00404350                chMtxInit
 .text.chEvtSignalFlagsI
                0x00404360       0x40 build/obj/chevents.o
                0x00404360                chEvtSignalFlagsI
 .text.chEvtBroadcastFlagsI
                0x004043a0       0x20 build/obj/chevents.o
                0x004043a0                chEvtBroadcastFlagsI
 .text.qwait    0x004043c0       0x30 build/obj/chqueues.o
 .text.chIQInit
                0x004043f0       0x20 build/obj/chqueues.o
                0x004043f0                chIQInit
 .text.chIQPutI
                0x00404410       0x50 build/obj/chqueues.o
                0x00404410                chIQPutI
 .text.chIQGetTimeout
                0x00404460       0x50 build/obj/chqueues.o
                0x00404460                chIQGetTimeout
 .text.chIQReadTimeout
                0x004044b0       0x80 build/obj/chqueues.o
                0x004044b0                chIQReadTimeout
 .text.chOQInit
                0x00404530       0x20 build/obj/chqueues.o
                0x00404530                chOQInit
 .text.chOQPutTimeout
                0x00404550       0x50 build/obj/chqueues.o
                0x00404550                chOQPutTimeout
 .text.chOQGetI
                0x004045a0       0x50 build/obj/chqueues.o
                0x004045a0                chOQGetI
 .text.chOQWriteTimeout
                0x004045f0       0x90 build/obj/chqueues.o
                0x004045f0                chOQWriteTimeout
 .text._core_init
                0x00404680       0x30 build/obj/chmemcore.o
                0x00404680                _core_init
 .text.chCoreAlloc
                0x004046b0       0x40 build/obj/chmemcore.o
                0x004046b0                chCoreAlloc
 .text._heap_init
                0x004046f0       0x20 build/obj/chheap.o
                0x004046f0                _heap_init
 .text.halInit  0x00404710       0x20 build/obj/hal.o
                0x00404710                halInit
 .text.putwouldblock
                0x00404730       0x10 build/obj/serial.o
 .text.getwouldblock
                0x00404740       0x10 build/obj/serial.o
 .text.getflags
                0x00404750       0x20 build/obj/serial.o
 .text.readt    0x00404770       0x10 build/obj/serial.o
 .text.reads    0x00404780       0x10 build/obj/serial.o
 .text.writet   0x00404790       0x10 build/obj/serial.o
 .text.writes   0x004047a0       0x10 build/obj/serial.o
 .text.gett     0x004047b0       0x10 build/obj/serial.o
 .text.putt     0x004047c0       0x10 build/obj/serial.o
 .text.sdInit   0x004047d0       0x10 build/obj/serial.o
                0x004047d0                sdInit
 .text.sdObjectInit
                0x004047e0       0x40 build/obj/serial.o
                0x004047e0                sdObjectInit
 .text.sdStart  0x00404820       0x20 build/obj/serial.o
                0x00404820                sdStart
 .text.sdIncomingDataI
                0x00404840       0x50 build/obj/serial.o
                0x00404840                sdIncomingDataI
 .text.hal_lld_init
                0x00404890       0x40 build/obj/hal_lld.o
                0x00404890                hal_lld_init
 .text.at91sam3_clock_init
                0x004048d0       0x10 build/obj/hal_lld.o
                0x004048d0                at91sam3_clock_init
 .text.SystemCoreClockUpdate
                0x004048e0      0x110 build/obj/system_SAM3.o
                0x004048e0                SystemCoreClockUpdate
 .text.SystemInit
                0x004049f0       0xa0 build/obj/system_SAM3.o
                0x004049f0                SystemInit
 .text._pal_lld_init
                0x00404a90       0xc0 build/obj/pal_lld.o
                0x00404a90                _pal_lld_init
 .text._pal_lld_setgroupmode
                0x00404b50       0x40 build/obj/pal_lld.o
                0x00404b50                _pal_lld_setgroupmode
 .text.notify1  0x00404b90       0x10 build/obj/serial_lld.o
 .text.notify2  0x00404ba0       0x10 build/obj/serial_lld.o
 .text.serve_interrupt
                0x00404bb0       0xb0 build/obj/serial_lld.o
 .text.Vector60
                0x00404c60       0x20 build/obj/serial_lld.o
                0x00404c60                Vector60
 .text.Vector64
                0x00404c80       0x20 build/obj/serial_lld.o
                0x00404c80                Vector64
 .text.sd_lld_init
                0x00404ca0       0x60 build/obj/serial_lld.o
                0x00404ca0                sd_lld_init
 .text.sd_lld_start
                0x00404d00       0xb0 build/obj/serial_lld.o
                0x00404d00                sd_lld_start
 .text.PIO_Configure
                0x00404db0      0x170 build/obj/pio.o
                0x00404db0                PIO_Configure
 .text.PMC_EnablePeripheral
                0x00404f20       0x60 build/obj/pmc.o
                0x00404f20                PMC_EnablePeripheral
 .text.BOARD_ConfigurePSRAM
                0x00404f80       0x30 build/obj/atmel_psram.o
                0x00404f80                BOARD_ConfigurePSRAM
 .text.__early_init
                0x00404fb0       0x10 build/obj/board.o
                0x00404fb0                __early_init
 .text.boardInit
                0x00404fc0       0x60 build/obj/board.o
                0x00404fc0                boardInit
 .text._read_r  0x00405020       0x10 build/obj/syscalls.o
                0x00405020                _read_r
 .text._lseek_r
                0x00405030       0x10 build/obj/syscalls.o
                0x00405030                _lseek_r
 .text._write_r
                0x00405040       0x10 build/obj/syscalls.o
                0x00405040                _write_r
 .text._close_r
                0x00405050       0x10 build/obj/syscalls.o
                0x00405050                _close_r
 .text._sbrk_r  0x00405060       0x20 build/obj/syscalls.o
                0x00405060                _sbrk_r
 .text._fstat_r
                0x00405080       0x20 build/obj/syscalls.o
                0x00405080                _fstat_r
 .text._isatty_r
                0x004050a0       0x10 build/obj/syscalls.o
                0x004050a0                _isatty_r
 .text._getpid  0x004050b0       0x10 build/obj/syscalls.o
                0x004050b0                _getpid
 .text._exit    0x004050c0       0x10 build/obj/syscalls.o
                0x004050c0                _exit
 .text._kill    0x004050d0       0x10 build/obj/syscalls.o
                0x004050d0                _kill
 .text.ltoa     0x004050e0       0x70 build/obj/chprintf.o
 .text.chprintf
                0x00405150      0x3b0 build/obj/chprintf.o
                0x00405150                chprintf
 .text.Thread1  0x00405500       0x30 build/obj/main.o
 .text.main     0x00405530      0x140 build/obj/main.o
                0x00405530                main
 *(.rodata)
 .rodata        0x00405670        0x4 /usr/local/CodeBench_1802_EABI/bin/../lib/gcc/arm-none-eabi/4.5.2/../../../../arm-none-eabi/lib/thumb2/libc.a(lib_a-impure.o)
                0x00405670                _global_impure_ptr
 *fill*         0x00405674        0xc 00
 .rodata        0x00405680       0x20 /usr/local/CodeBench_1802_EABI/bin/../lib/gcc/arm-none-eabi/4.5.2/../../../../arm-none-eabi/lib/thumb2/libc.a(lib_a-vfiprintf.o)
 .rodata        0x004056a0       0x60 /usr/local/CodeBench_1802_EABI/bin/../lib/gcc/arm-none-eabi/4.5.2/../../../../arm-none-eabi/lib/thumb2/libc.a(lib_a-findfp.o)
                0x004056a0                __sf_fake_stdin
                0x004056c0                __sf_fake_stdout
                0x004056e0                __sf_fake_stderr
 *(.rodata.*)
 .rodata.str1.4
                0x00405700        0xd build/obj/chsys.o
                                 0x10 (size before relaxing)
 *fill*         0x0040570d        0x3 00
 .rodata.vmt    0x00405710       0x24 build/obj/serial.o
 *fill*         0x00405734        0xc 00
 .rodata.default_config
                0x00405740        0x8 build/obj/serial_lld.o
 *fill*         0x00405748        0x8 00
 .rodata.__func__.4622
                0x00405750       0x18 build/obj/pmc.o
 *fill*         0x00405768        0x8 00
 .rodata.str1.4
                0x00405770       0x92 build/obj/pmc.o
                                 0x94 (size before relaxing)
 *fill*         0x00405802        0xe 00
 .rodata.pal_default_config
                0x00405810       0x24 build/obj/board.o
                0x00405810                pal_default_config
 *fill*         0x00405834        0xc 00
 .rodata.str1.4
                0x00405840        0x7 build/obj/chprintf.o
                                  0x8 (size before relaxing)
 *fill*         0x00405847        0x9 00
 .rodata.pinPsram
                0x00405850       0x3c build/obj/main.o
                0x00405850                pinPsram
 *fill*         0x0040588c        0x4 00
 .rodata.str1.4
                0x00405890        0xb build/obj/main.o
                                  0xc (size before relaxing)
 *fill*         0x0040589b        0x5 00
 .rodata.str1.4
                0x004058a0       0x3f /usr/local/CodeBench_1802_EABI/bin/../lib/gcc/arm-none-eabi/4.5.2/../../../../arm-none-eabi/lib/thumb2/libc.a(lib_a-assert.o)
                                 0x44 (size before relaxing)
 *fill*         0x004058df        0x1 00
 .rodata.str1.4
                0x004058e0        0x2 /usr/local/CodeBench_1802_EABI/bin/../lib/gcc/arm-none-eabi/4.5.2/../../../../arm-none-eabi/lib/thumb2/libc.a(lib_a-impure.o)
                                  0x4 (size before relaxing)
 *fill*         0x004058e2        0xe 00
 .rodata.str1.4
                0x004058f0       0x25 /usr/local/CodeBench_1802_EABI/bin/../lib/gcc/arm-none-eabi/4.5.2/../../../../arm-none-eabi/lib/thumb2/libc.a(lib_a-vfiprintf.o)
                                 0x30 (size before relaxing)
 *fill*         0x00405915        0xb 00
 .rodata.str1.4
                0x00405920        0xc /usr/local/CodeBench_1802_EABI/bin/../lib/gcc/arm-none-eabi/4.5.2/../../../../arm-none-eabi/lib/thumb2/libc.a(lib_a-locale.o)
                                 0x14 (size before relaxing)
 *(.glue_7t)
 .glue_7t       0x00000000        0x0 linker stubs
 *(.glue_7)
 .glue_7        0x00000000        0x0 linker stubs
 *(.gcc*)

.vfp11_veneer   0x0040592c        0x0
 .vfp11_veneer  0x00000000        0x0 linker stubs

.v4_bx          0x0040592c        0x0
 .v4_bx         0x00000000        0x0 linker stubs

.ARM.extab
 *(.ARM.extab* .gnu.linkonce.armextab.*)

.ARM.exidx      0x0040592c        0x8
                0x0040592c                PROVIDE (__exidx_start, .)
 *(.ARM.exidx* .gnu.linkonce.armexidx.*)
 .ARM.exidx     0x0040592c        0x8 /usr/local/CodeBench_1802_EABI/bin/../lib/gcc/arm-none-eabi/4.5.2/thumb2/libgcc.a(_divdi3.o)
 .ARM.exidx     0x00405934        0x0 /usr/local/CodeBench_1802_EABI/bin/../lib/gcc/arm-none-eabi/4.5.2/thumb2/libgcc.a(_udivdi3.o)
                                  0x8 (size before relaxing)
                0x00405934                PROVIDE (__exidx_end, .)

.eh_frame_hdr
 *(.eh_frame_hdr)

.eh_frame
 *(.eh_frame)

.textalign      0x00405934        0x4
                0x00405938                . = ALIGN (0x8)
 *fill*         0x00405934        0x4 00
                0x00405938                _etext = .
                0x00405938                _textdata = _etext

.stacks         0x20000000      0x800
                0x20000000                . = ALIGN (0x8)
                0x20000000                __main_stack_base__ = .
                0x20000400                . = (. + __main_stack_size__)
 *fill*         0x20000000      0x400 00
                0x20000400                . = ALIGN (0x8)
                0x20000400                __main_stack_end__ = .
                0x20000400                __process_stack_base__ = .
                0x20000400                __main_thread_stack_base__ = .
                0x20000800                . = (. + __process_stack_size__)
 *fill*         0x20000400      0x400 00
                0x20000800                . = ALIGN (0x8)
                0x20000800                __process_stack_end__ = .
                0x20000800                __main_thread_stack_end__ = .

.data           0x20000800      0x588 load address 0x00405938
                0x20000800                . = ALIGN (0x4)
                0x20000800                PROVIDE (_data, .)
 *(.data)
 .data          0x20000800       0xf4 /usr/local/CodeBench_1802_EABI/bin/../lib/gcc/arm-none-eabi/4.5.2/../../../../arm-none-eabi/lib/thumb2/libc.a(lib_a-impure.o)
                0x20000800                _impure_ptr
 .data          0x200008f4       0x7c /usr/local/CodeBench_1802_EABI/bin/../lib/gcc/arm-none-eabi/4.5.2/../../../../arm-none-eabi/lib/thumb2/libc.a(lib_a-locale.o)
                0x20000914                __mb_cur_max
 .data          0x20000970      0x410 /usr/local/CodeBench_1802_EABI/bin/../lib/gcc/arm-none-eabi/4.5.2/../../../../arm-none-eabi/lib/thumb2/libc.a(lib_a-mallocr.o)
                0x20000970                __malloc_av_
                0x20000d78                __malloc_sbrk_base
                0x20000d7c                __malloc_trim_threshold
 .data          0x20000d80        0x4 /usr/local/CodeBench_1802_EABI/bin/../lib/gcc/arm-none-eabi/4.5.2/../../../../arm-none-eabi/lib/thumb2/libc.a(lib_a-wctomb_r.o)
                0x20000d80                __wctomb
                0x20000d84                . = ALIGN (0x4)
 *(.data.*)
 .data.SystemCoreClock
                0x20000d84        0x4 build/obj/system_SAM3.o
                0x20000d84                SystemCoreClock
                0x20000d88                . = ALIGN (0x4)
 *(.ramtext)
                0x20000d88                . = ALIGN (0x4)
                0x20000d88                PROVIDE (_edata, .)

.bss            0x20000d88      0x3b4 load address 0x00405ec0
                0x20000d88                . = ALIGN (0x4)
                0x20000d88                PROVIDE (_bss_start, .)
 *(.bss)
 .bss           0x20000d88       0x34 /usr/local/CodeBench_1802_EABI/bin/../lib/gcc/arm-none-eabi/4.5.2/../../../../arm-none-eabi/lib/thumb2/libc.a(lib_a-mallocr.o)
                0x20000d88                __malloc_top_pad
                0x20000d8c                __malloc_current_mallinfo
                0x20000db4                __malloc_max_sbrked_mem
                0x20000db8                __malloc_max_total_mem
                0x20000dbc                . = ALIGN (0x4)
 *(.bss.*)
 .bss.mainthread.4667
                0x20000dbc       0x48 build/obj/chsys.o
 *fill*         0x20000e04        0x4 00
 .bss._idle_thread_wa
                0x20000e08       0xc0 build/obj/chsys.o
                0x20000e08                _idle_thread_wa
 .bss.vtlist    0x20000ec8       0x10 build/obj/chvt.o
                0x20000ec8                vtlist
 .bss.rlist     0x20000ed8       0x20 build/obj/chschd.o
                0x20000ed8                rlist
 .bss.endmem    0x20000ef8        0x4 build/obj/chmemcore.o
 .bss.nextmem   0x20000efc        0x4 build/obj/chmemcore.o
 .bss.default_heap
                0x20000f00       0x20 build/obj/chheap.o
 .bss.SD1       0x20000f20       0x74 build/obj/serial_lld.o
                0x20000f20                SD1
 .bss.SD2       0x20000f94       0x74 build/obj/serial_lld.o
                0x20000f94                SD2
 .bss.waThread1
                0x20001008      0x130 build/obj/main.o
                0x20001138                . = ALIGN (0x4)
 *(COMMON)
 COMMON         0x20001138        0x4 /usr/local/CodeBench_1802_EABI/bin/../lib/gcc/arm-none-eabi/4.5.2/../../../../arm-none-eabi/lib/thumb2/libc.a(lib_a-reent.o)
                0x20001138                errno
                0x2000113c                . = ALIGN (0x4)
                0x2000113c                PROVIDE (_bss_end, .)
                0x2000113c                PROVIDE (end, .)
                0x2000113c                _end = .
                0x2000113c                __heap_base__ = _end
                0x20008000                __heap_end__ = __ram_end__
OUTPUT(build/ch.elf elf32-littlearm)

.debug_abbrev   0x00000000     0x5a7f
 .debug_abbrev  0x00000000      0x11f build/obj/crt0.o
 .debug_abbrev  0x0000011f       0x72 build/obj/vectors.o
 .debug_abbrev  0x00000191       0x3f build/obj/chcore.o
 .debug_abbrev  0x000001d0      0x1b2 build/obj/chcore_v7m.o
 .debug_abbrev  0x00000382       0xea build/obj/nvic.o
 .debug_abbrev  0x0000046c      0x17a build/obj/chsys.o
 .debug_abbrev  0x000005e6       0x28 build/obj/chlists.o
 .debug_abbrev  0x0000060e      0x161 build/obj/chvt.o
 .debug_abbrev  0x0000076f      0x28f build/obj/chschd.o
 .debug_abbrev  0x000009fe      0x2d5 build/obj/chthreads.o
 .debug_abbrev  0x00000cd3      0x1a4 build/obj/chdynamic.o
 .debug_abbrev  0x00000e77      0x147 build/obj/chregistry.o
 .debug_abbrev  0x00000fbe      0x288 build/obj/chsem.o
 .debug_abbrev  0x00001246      0x28c build/obj/chmtx.o
 .debug_abbrev  0x000014d2      0x253 build/obj/chcond.o
 .debug_abbrev  0x00001725      0x1fc build/obj/chevents.o
 .debug_abbrev  0x00001921      0x1b2 build/obj/chmsg.o
 .debug_abbrev  0x00001ad3      0x1d6 build/obj/chmboxes.o
 .debug_abbrev  0x00001ca9      0x28f build/obj/chqueues.o
 .debug_abbrev  0x00001f38      0x167 build/obj/chmemcore.o
 .debug_abbrev  0x0000209f      0x1c7 build/obj/chheap.o
 .debug_abbrev  0x00002266      0x1e4 build/obj/chmempools.o
 .debug_abbrev  0x0000244a      0x3ee build/obj/test.o
 .debug_abbrev  0x00002838      0x1b8 build/obj/testthd.o
 .debug_abbrev  0x000029f0      0x246 build/obj/testsem.o
 .debug_abbrev  0x00002c36      0x292 build/obj/testmtx.o
 .debug_abbrev  0x00002ec8      0x162 build/obj/testmsg.o
 .debug_abbrev  0x0000302a      0x1b3 build/obj/testmbox.o
 .debug_abbrev  0x000031dd      0x220 build/obj/testevt.o
 .debug_abbrev  0x000033fd      0x19b build/obj/testheap.o
 .debug_abbrev  0x00003598      0x148 build/obj/testpools.o
 .debug_abbrev  0x000036e0      0x213 build/obj/testdyn.o
 .debug_abbrev  0x000038f3      0x20e build/obj/testqueues.o
 .debug_abbrev  0x00003b01      0x2cf build/obj/testbmk.o
 .debug_abbrev  0x00003dd0       0xa7 build/obj/hal.o
 .debug_abbrev  0x00003e77      0x11b build/obj/pal.o
 .debug_abbrev  0x00003f92      0x23a build/obj/serial.o
 .debug_abbrev  0x000041cc       0xc9 build/obj/hal_lld.o
 .debug_abbrev  0x00004295       0xf7 build/obj/system_SAM3.o
 .debug_abbrev  0x0000438c      0x120 build/obj/pal_lld.o
 .debug_abbrev  0x000044ac      0x2f2 build/obj/serial_lld.o
 .debug_abbrev  0x0000479e      0x294 build/obj/atmel_adc.o
 .debug_abbrev  0x00004a32      0x207 build/obj/pio.o
 .debug_abbrev  0x00004c39      0x11c build/obj/pmc.o
 .debug_abbrev  0x00004d55      0x169 build/obj/atmel_twi.o
 .debug_abbrev  0x00004ebe      0x199 build/obj/atmel_twid.o
 .debug_abbrev  0x00005057      0x1ac build/obj/atmel_spi.o
 .debug_abbrev  0x00005203       0xdc build/obj/atmel_psram.o
 .debug_abbrev  0x000052df      0x104 build/obj/board.o
 .debug_abbrev  0x000053e3      0x151 build/obj/evtimer.o
 .debug_abbrev  0x00005534      0x1df build/obj/syscalls.o
 .debug_abbrev  0x00005713      0x153 build/obj/chprintf.o
 .debug_abbrev  0x00005866      0x219 build/obj/main.o

.debug_info     0x00000000    0x19ea7
 .debug_info    0x00000000      0x377 build/obj/crt0.o
 .debug_info    0x00000377       0xb1 build/obj/vectors.o
 .debug_info    0x00000428       0x87 build/obj/chcore.o
 .debug_info    0x000004af      0x7e6 build/obj/chcore_v7m.o
 .debug_info    0x00000c95      0x435 build/obj/nvic.o
 .debug_info    0x000010ca      0x648 build/obj/chsys.o
 .debug_info    0x00001712       0x6f build/obj/chlists.o
 .debug_info    0x00001781      0x277 build/obj/chvt.o
 .debug_info    0x000019f8      0x810 build/obj/chschd.o
 .debug_info    0x00002208      0xab1 build/obj/chthreads.o
 .debug_info    0x00002cb9      0x74c build/obj/chdynamic.o
 .debug_info    0x00003405      0x50c build/obj/chregistry.o
 .debug_info    0x00003911      0x9db build/obj/chsem.o
 .debug_info    0x000042ec      0x968 build/obj/chmtx.o
 .debug_info    0x00004c54      0x880 build/obj/chcond.o
 .debug_info    0x000054d4      0xc26 build/obj/chevents.o
 .debug_info    0x000060fa      0x627 build/obj/chmsg.o
 .debug_info    0x00006721      0x872 build/obj/chmboxes.o
 .debug_info    0x00006f93      0xb2b build/obj/chqueues.o
 .debug_info    0x00007abe      0x21b build/obj/chmemcore.o
 .debug_info    0x00007cd9      0x632 build/obj/chheap.o
 .debug_info    0x0000830b      0x321 build/obj/chmempools.o
 .debug_info    0x0000862c      0xfd6 build/obj/test.o
 .debug_info    0x00009602      0x7ce build/obj/testthd.o
 .debug_info    0x00009dd0      0x977 build/obj/testsem.o
 .debug_info    0x0000a747      0xc7d build/obj/testmtx.o
 .debug_info    0x0000b3c4      0x59b build/obj/testmsg.o
 .debug_info    0x0000b95f      0xc38 build/obj/testmbox.o
 .debug_info    0x0000c597      0x8ec build/obj/testevt.o
 .debug_info    0x0000ce83      0x66b build/obj/testheap.o
 .debug_info    0x0000d4ee      0x24b build/obj/testpools.o
 .debug_info    0x0000d739      0x907 build/obj/testdyn.o
 .debug_info    0x0000e040      0xed3 build/obj/testqueues.o
 .debug_info    0x0000ef13      0xdc0 build/obj/testbmk.o
 .debug_info    0x0000fcd3      0x14f build/obj/hal.o
 .debug_info    0x0000fe22      0x6f9 build/obj/pal.o
 .debug_info    0x0001051b      0xe08 build/obj/serial.o
 .debug_info    0x00011323      0x13e build/obj/hal_lld.o
 .debug_info    0x00011461      0x47c build/obj/system_SAM3.o
 .debug_info    0x000118dd      0x977 build/obj/pal_lld.o
 .debug_info    0x00012254     0x1568 build/obj/serial_lld.o
 .debug_info    0x000137bc     0x1339 build/obj/atmel_adc.o
 .debug_info    0x00014af5      0xa5a build/obj/pio.o
 .debug_info    0x0001554f      0x52c build/obj/pmc.o
 .debug_info    0x00015a7b      0x743 build/obj/atmel_twi.o
 .debug_info    0x000161be      0x59f build/obj/atmel_twid.o
 .debug_info    0x0001675d      0x679 build/obj/atmel_spi.o
 .debug_info    0x00016dd6      0x204 build/obj/atmel_psram.o
 .debug_info    0x00016fda      0x6f2 build/obj/board.o
 .debug_info    0x000176cc      0x5c9 build/obj/evtimer.o
 .debug_info    0x00017c95      0xcae build/obj/syscalls.o
 .debug_info    0x00018943      0x3fc build/obj/chprintf.o
 .debug_info    0x00018d3f     0x1168 build/obj/main.o

.debug_line     0x00000000     0xad1c
 .debug_line    0x00000000      0x1aa build/obj/crt0.o
 .debug_line    0x000001aa       0xc0 build/obj/vectors.o
 .debug_line    0x0000026a       0xb4 build/obj/chcore.o
 .debug_line    0x0000031e      0x31a build/obj/chcore_v7m.o
 .debug_line    0x00000638      0x16b build/obj/nvic.o
 .debug_line    0x000007a3      0x2bf build/obj/chsys.o
 .debug_line    0x00000a62       0x1d build/obj/chlists.o
 .debug_line    0x00000a7f      0x28c build/obj/chvt.o
 .debug_line    0x00000d0b      0x3df build/obj/chschd.o
 .debug_line    0x000010ea      0x467 build/obj/chthreads.o
 .debug_line    0x00001551      0x34f build/obj/chdynamic.o
 .debug_line    0x000018a0      0x28d build/obj/chregistry.o
 .debug_line    0x00001b2d      0x4b2 build/obj/chsem.o
 .debug_line    0x00001fdf      0x462 build/obj/chmtx.o
 .debug_line    0x00002441      0x394 build/obj/chcond.o
 .debug_line    0x000027d5      0x41c build/obj/chevents.o
 .debug_line    0x00002bf1      0x2da build/obj/chmsg.o
 .debug_line    0x00002ecb      0x38e build/obj/chmboxes.o
 .debug_line    0x00003259      0x4b6 build/obj/chqueues.o
 .debug_line    0x0000370f      0x1c4 build/obj/chmemcore.o
 .debug_line    0x000038d3      0x3a1 build/obj/chheap.o
 .debug_line    0x00003c74      0x281 build/obj/chmempools.o
 .debug_line    0x00003ef5      0x62b build/obj/test.o
 .debug_line    0x00004520      0x30a build/obj/testthd.o
 .debug_line    0x0000482a      0x3f9 build/obj/testsem.o
 .debug_line    0x00004c23      0x5a3 build/obj/testmtx.o
 .debug_line    0x000051c6      0x292 build/obj/testmsg.o
 .debug_line    0x00005458      0x3d8 build/obj/testmbox.o
 .debug_line    0x00005830      0x3a0 build/obj/testevt.o
 .debug_line    0x00005bd0      0x32e build/obj/testheap.o
 .debug_line    0x00005efe      0x1ce build/obj/testpools.o
 .debug_line    0x000060cc      0x413 build/obj/testdyn.o
 .debug_line    0x000064df      0x57f build/obj/testqueues.o
 .debug_line    0x00006a5e      0x6e2 build/obj/testbmk.o
 .debug_line    0x00007140      0x1be build/obj/hal.o
 .debug_line    0x000072fe      0x2f4 build/obj/pal.o
 .debug_line    0x000075f2      0x5b2 build/obj/serial.o
 .debug_line    0x00007ba4      0x166 build/obj/hal_lld.o
 .debug_line    0x00007d0a      0x260 build/obj/system_SAM3.o
 .debug_line    0x00007f6a      0x24e build/obj/pal_lld.o
 .debug_line    0x000081b8      0x555 build/obj/serial_lld.o
 .debug_line    0x0000870d      0x5cf build/obj/atmel_adc.o
 .debug_line    0x00008cdc      0x2cf build/obj/pio.o
 .debug_line    0x00008fab      0x32b build/obj/pmc.o
 .debug_line    0x000092d6      0x2fe build/obj/atmel_twi.o
 .debug_line    0x000095d4      0x29b build/obj/atmel_twid.o
 .debug_line    0x0000986f      0x2ac build/obj/atmel_spi.o
 .debug_line    0x00009b1b      0x1e4 build/obj/atmel_psram.o
 .debug_line    0x00009cff      0x279 build/obj/board.o
 .debug_line    0x00009f78      0x2a9 build/obj/evtimer.o
 .debug_line    0x0000a221      0x249 build/obj/syscalls.o
 .debug_line    0x0000a46a      0x425 build/obj/chprintf.o
 .debug_line    0x0000a88f      0x48d build/obj/main.o

.debug_loc      0x00000000     0x9412
 .debug_loc     0x00000000       0x72 build/obj/crt0.o
 .debug_loc     0x00000072       0xfb build/obj/chcore_v7m.o
 .debug_loc     0x0000016d      0x10a build/obj/nvic.o
 .debug_loc     0x00000277       0xbc build/obj/chsys.o
 .debug_loc     0x00000333       0xf0 build/obj/chvt.o
 .debug_loc     0x00000423      0x2ca build/obj/chschd.o
 .debug_loc     0x000006ed      0x48d build/obj/chthreads.o
 .debug_loc     0x00000b7a      0x2c0 build/obj/chdynamic.o
 .debug_loc     0x00000e3a       0xbf build/obj/chregistry.o
 .debug_loc     0x00000ef9      0x590 build/obj/chsem.o
 .debug_loc     0x00001489      0x559 build/obj/chmtx.o
 .debug_loc     0x000019e2      0x470 build/obj/chcond.o
 .debug_loc     0x00001e52      0x8a8 build/obj/chevents.o
 .debug_loc     0x000026fa      0x1bf build/obj/chmsg.o
 .debug_loc     0x000028b9      0x532 build/obj/chmboxes.o
 .debug_loc     0x00002deb      0x6f8 build/obj/chqueues.o
 .debug_loc     0x000034e3       0xb1 build/obj/chmemcore.o
 .debug_loc     0x00003594      0x277 build/obj/chheap.o
 .debug_loc     0x0000380b      0x15a build/obj/chmempools.o
 .debug_loc     0x00003965      0x5e3 build/obj/test.o
 .debug_loc     0x00003f48      0x1e8 build/obj/testthd.o
 .debug_loc     0x00004130      0x364 build/obj/testsem.o
 .debug_loc     0x00004494      0x677 build/obj/testmtx.o
 .debug_loc     0x00004b0b       0xe0 build/obj/testmsg.o
 .debug_loc     0x00004beb      0x6e7 build/obj/testmbox.o
 .debug_loc     0x000052d2      0x249 build/obj/testevt.o
 .debug_loc     0x0000551b      0x1ad build/obj/testheap.o
 .debug_loc     0x000056c8       0xcb build/obj/testpools.o
 .debug_loc     0x00005793      0x25e build/obj/testdyn.o
 .debug_loc     0x000059f1      0x895 build/obj/testqueues.o
 .debug_loc     0x00006286      0x63e build/obj/testbmk.o
 .debug_loc     0x000068c4       0x20 build/obj/hal.o
 .debug_loc     0x000068e4       0x8a build/obj/pal.o
 .debug_loc     0x0000696e      0x337 build/obj/serial.o
 .debug_loc     0x00006ca5       0x20 build/obj/hal_lld.o
 .debug_loc     0x00006cc5       0x20 build/obj/system_SAM3.o
 .debug_loc     0x00006ce5       0x46 build/obj/pal_lld.o
 .debug_loc     0x00006d2b      0x31c build/obj/serial_lld.o
 .debug_loc     0x00007047      0x425 build/obj/atmel_adc.o
 .debug_loc     0x0000746c      0x324 build/obj/pio.o
 .debug_loc     0x00007790      0x3e7 build/obj/pmc.o
 .debug_loc     0x00007b77      0x609 build/obj/atmel_twi.o
 .debug_loc     0x00008180      0x590 build/obj/atmel_twid.o
 .debug_loc     0x00008710      0x1e8 build/obj/atmel_spi.o
 .debug_loc     0x000088f8       0x3e build/obj/atmel_psram.o
 .debug_loc     0x00008936       0x20 build/obj/board.o
 .debug_loc     0x00008956      0x119 build/obj/evtimer.o
 .debug_loc     0x00008a6f      0x158 build/obj/syscalls.o
 .debug_loc     0x00008bc7      0x779 build/obj/chprintf.o
 .debug_loc     0x00009340       0xd2 build/obj/main.o

.debug_pubnames
                0x00000000     0x18f8
 .debug_pubnames
                0x00000000       0x56 build/obj/crt0.o
 .debug_pubnames
                0x00000056       0x38 build/obj/vectors.o
 .debug_pubnames
                0x0000008e       0x20 build/obj/chcore.o
 .debug_pubnames
                0x000000ae       0x9d build/obj/chcore_v7m.o
 .debug_pubnames
                0x0000014b       0x5e build/obj/nvic.o
 .debug_pubnames
                0x000001a9       0x5c build/obj/chsys.o
 .debug_pubnames
                0x00000205       0x59 build/obj/chvt.o
 .debug_pubnames
                0x0000025e       0xa7 build/obj/chschd.o
 .debug_pubnames
                0x00000305       0xdf build/obj/chthreads.o
 .debug_pubnames
                0x000003e4       0x69 build/obj/chdynamic.o
 .debug_pubnames
                0x0000044d       0x3b build/obj/chregistry.o
 .debug_pubnames
                0x00000488       0xd1 build/obj/chsem.o
 .debug_pubnames
                0x00000559       0x94 build/obj/chmtx.o
 .debug_pubnames
                0x000005ed       0xb9 build/obj/chcond.o
 .debug_pubnames
                0x000006a6      0x14b build/obj/chevents.o
 .debug_pubnames
                0x000007f1       0x3f build/obj/chmsg.o
 .debug_pubnames
                0x00000830       0xba build/obj/chmboxes.o
 .debug_pubnames
                0x000008ea       0xb3 build/obj/chqueues.o
 .debug_pubnames
                0x0000099d       0x53 build/obj/chmemcore.o
 .debug_pubnames
                0x000009f0       0x60 build/obj/chheap.o
 .debug_pubnames
                0x00000a50       0x61 build/obj/chmempools.o
 .debug_pubnames
                0x00000ab1      0x158 build/obj/test.o
 .debug_pubnames
                0x00000c09       0x55 build/obj/testthd.o
 .debug_pubnames
                0x00000c5e       0x55 build/obj/testsem.o
 .debug_pubnames
                0x00000cb3       0x89 build/obj/testmtx.o
 .debug_pubnames
                0x00000d3c       0x2e build/obj/testmsg.o
 .debug_pubnames
                0x00000d6a       0x30 build/obj/testmbox.o
 .debug_pubnames
                0x00000d9a       0x48 build/obj/testevt.o
 .debug_pubnames
                0x00000de2       0x30 build/obj/testheap.o
 .debug_pubnames
                0x00000e12       0x32 build/obj/testpools.o
 .debug_pubnames
                0x00000e44       0x48 build/obj/testdyn.o
 .debug_pubnames
                0x00000e8c       0x44 build/obj/testqueues.o
 .debug_pubnames
                0x00000ed0       0xda build/obj/testbmk.o
 .debug_pubnames
                0x00000faa       0x1e build/obj/hal.o
 .debug_pubnames
                0x00000fc8       0x43 build/obj/pal.o
 .debug_pubnames
                0x0000100b       0x6c build/obj/serial.o
 .debug_pubnames
                0x00001077       0x3b build/obj/hal_lld.o
 .debug_pubnames
                0x000010b2       0x4f build/obj/system_SAM3.o
 .debug_pubnames
                0x00001101       0x3e build/obj/pal_lld.o
 .debug_pubnames
                0x0000113f       0x6d build/obj/serial_lld.o
 .debug_pubnames
                0x000011ac      0x178 build/obj/atmel_adc.o
 .debug_pubnames
                0x00001324       0x80 build/obj/pio.o
 .debug_pubnames
                0x000013a4       0xfc build/obj/pmc.o
 .debug_pubnames
                0x000014a0      0x13c build/obj/atmel_twi.o
 .debug_pubnames
                0x000015dc       0x54 build/obj/atmel_twid.o
 .debug_pubnames
                0x00001630      0x157 build/obj/atmel_spi.o
 .debug_pubnames
                0x00001787       0x2b build/obj/atmel_psram.o
 .debug_pubnames
                0x000017b2       0x48 build/obj/board.o
 .debug_pubnames
                0x000017fa       0x2b build/obj/evtimer.o
 .debug_pubnames
                0x00001825       0x8c build/obj/syscalls.o
 .debug_pubnames
                0x000018b1       0x1f build/obj/chprintf.o
 .debug_pubnames
                0x000018d0       0x28 build/obj/main.o

.debug_pubtypes
                0x00000000     0x36bd
 .debug_pubtypes
                0x00000000       0x44 build/obj/crt0.o
 .debug_pubtypes
                0x00000044       0x12 build/obj/vectors.o
 .debug_pubtypes
                0x00000056       0x12 build/obj/chcore.o
 .debug_pubtypes
                0x00000068      0x12e build/obj/chcore_v7m.o
 .debug_pubtypes
                0x00000196       0x38 build/obj/nvic.o
 .debug_pubtypes
                0x000001ce      0x179 build/obj/chsys.o
 .debug_pubtypes
                0x00000347       0x12 build/obj/chlists.o
 .debug_pubtypes
                0x00000359       0x7e build/obj/chvt.o
 .debug_pubtypes
                0x000003d7      0x162 build/obj/chschd.o
 .debug_pubtypes
                0x00000539      0x168 build/obj/chthreads.o
 .debug_pubtypes
                0x000006a1      0x191 build/obj/chdynamic.o
 .debug_pubtypes
                0x00000832      0x117 build/obj/chregistry.o
 .debug_pubtypes
                0x00000949      0x133 build/obj/chsem.o
 .debug_pubtypes
                0x00000a7c      0x122 build/obj/chmtx.o
 .debug_pubtypes
                0x00000b9e      0x12f build/obj/chcond.o
 .debug_pubtypes
                0x00000ccd      0x179 build/obj/chevents.o
 .debug_pubtypes
                0x00000e46      0x117 build/obj/chmsg.o
 .debug_pubtypes
                0x00000f5d      0x131 build/obj/chmboxes.o
 .debug_pubtypes
                0x0000108e      0x17c build/obj/chqueues.o
 .debug_pubtypes
                0x0000120a       0x36 build/obj/chmemcore.o
 .debug_pubtypes
                0x00001240      0x166 build/obj/chheap.o
 .debug_pubtypes
                0x000013a6       0x5a build/obj/chmempools.o
 .debug_pubtypes
                0x00001400      0x1c4 build/obj/test.o
 .debug_pubtypes
                0x000015c4      0x15e build/obj/testthd.o
 .debug_pubtypes
                0x00001722      0x18e build/obj/testsem.o
 .debug_pubtypes
                0x000018b0      0x181 build/obj/testmtx.o
 .debug_pubtypes
                0x00001a31      0x124 build/obj/testmsg.o
 .debug_pubtypes
                0x00001b55      0x16b build/obj/testmbox.o
 .debug_pubtypes
                0x00001cc0      0x1c0 build/obj/testevt.o
 .debug_pubtypes
                0x00001e80      0x184 build/obj/testheap.o
 .debug_pubtypes
                0x00002004       0x5a build/obj/testpools.o
 .debug_pubtypes
                0x0000205e      0x1c6 build/obj/testdyn.o
 .debug_pubtypes
                0x00002224      0x1b6 build/obj/testqueues.o
 .debug_pubtypes
                0x000023da      0x1c4 build/obj/testbmk.o
 .debug_pubtypes
                0x0000259e       0x46 build/obj/hal.o
 .debug_pubtypes
                0x000025e4       0x6f build/obj/pal.o
 .debug_pubtypes
                0x00002653      0x261 build/obj/serial.o
 .debug_pubtypes
                0x000028b4       0x30 build/obj/hal_lld.o
 .debug_pubtypes
                0x000028e4       0x40 build/obj/system_SAM3.o
 .debug_pubtypes
                0x00002924       0x87 build/obj/pal_lld.o
 .debug_pubtypes
                0x000029ab      0x24c build/obj/serial_lld.o
 .debug_pubtypes
                0x00002bf7      0x254 build/obj/atmel_adc.o
 .debug_pubtypes
                0x00002e4b       0x44 build/obj/pio.o
 .debug_pubtypes
                0x00002e8f       0x33 build/obj/pmc.o
 .debug_pubtypes
                0x00002ec2       0x33 build/obj/atmel_twi.o
 .debug_pubtypes
                0x00002ef5       0x86 build/obj/atmel_twid.o
 .debug_pubtypes
                0x00002f7b       0x34 build/obj/atmel_spi.o
 .debug_pubtypes
                0x00002faf       0x38 build/obj/atmel_psram.o
 .debug_pubtypes
                0x00002fe7       0x67 build/obj/board.o
 .debug_pubtypes
                0x0000304e      0x17e build/obj/evtimer.o
 .debug_pubtypes
                0x000031cc      0x1a5 build/obj/syscalls.o
 .debug_pubtypes
                0x00003371       0xb5 build/obj/chprintf.o
 .debug_pubtypes
                0x00003426      0x297 build/obj/main.o

.debug_aranges  0x00000000     0x1088
 .debug_aranges
                0x00000000       0x38 build/obj/crt0.o
 .debug_aranges
                0x00000038       0x20 build/obj/vectors.o
 .debug_aranges
                0x00000058       0x20 build/obj/chcore.o
 .debug_aranges
                0x00000078       0x50 build/obj/chcore_v7m.o
 .debug_aranges
                0x000000c8       0x30 build/obj/nvic.o
 .debug_aranges
                0x000000f8       0x30 build/obj/chsys.o
 .debug_aranges
                0x00000128       0x38 build/obj/chvt.o
 .debug_aranges
                0x00000160       0x58 build/obj/chschd.o
 .debug_aranges
                0x000001b8       0x78 build/obj/chthreads.o
 .debug_aranges
                0x00000230       0x38 build/obj/chdynamic.o
 .debug_aranges
                0x00000268       0x28 build/obj/chregistry.o
 .debug_aranges
                0x00000290       0x70 build/obj/chsem.o
 .debug_aranges
                0x00000300       0x58 build/obj/chmtx.o
 .debug_aranges
                0x00000358       0x60 build/obj/chcond.o
 .debug_aranges
                0x000003b8       0x90 build/obj/chevents.o
 .debug_aranges
                0x00000448       0x30 build/obj/chmsg.o
 .debug_aranges
                0x00000478       0x70 build/obj/chmboxes.o
 .debug_aranges
                0x000004e8       0x70 build/obj/chqueues.o
 .debug_aranges
                0x00000558       0x38 build/obj/chmemcore.o
 .debug_aranges
                0x00000590       0x40 build/obj/chheap.o
 .debug_aranges
                0x000005d0       0x40 build/obj/chmempools.o
 .debug_aranges
                0x00000610       0x98 build/obj/test.o
 .debug_aranges
                0x000006a8       0x40 build/obj/testthd.o
 .debug_aranges
                0x000006e8       0x70 build/obj/testsem.o
 .debug_aranges
                0x00000758      0x108 build/obj/testmtx.o
 .debug_aranges
                0x00000860       0x28 build/obj/testmsg.o
 .debug_aranges
                0x00000888       0x28 build/obj/testmbox.o
 .debug_aranges
                0x000008b0       0x70 build/obj/testevt.o
 .debug_aranges
                0x00000920       0x28 build/obj/testheap.o
 .debug_aranges
                0x00000948       0x30 build/obj/testpools.o
 .debug_aranges
                0x00000978       0x58 build/obj/testdyn.o
 .debug_aranges
                0x000009d0       0x50 build/obj/testqueues.o
 .debug_aranges
                0x00000a20       0xd0 build/obj/testbmk.o
 .debug_aranges
                0x00000af0       0x20 build/obj/hal.o
 .debug_aranges
                0x00000b10       0x30 build/obj/pal.o
 .debug_aranges
                0x00000b40       0x90 build/obj/serial.o
 .debug_aranges
                0x00000bd0       0x28 build/obj/hal_lld.o
 .debug_aranges
                0x00000bf8       0x28 build/obj/system_SAM3.o
 .debug_aranges
                0x00000c20       0x28 build/obj/pal_lld.o
 .debug_aranges
                0x00000c48       0x58 build/obj/serial_lld.o
 .debug_aranges
                0x00000ca0       0xa0 build/obj/atmel_adc.o
 .debug_aranges
                0x00000d40       0x48 build/obj/pio.o
 .debug_aranges
                0x00000d88       0x60 build/obj/pmc.o
 .debug_aranges
                0x00000de8       0x90 build/obj/atmel_twi.o
 .debug_aranges
                0x00000e78       0x38 build/obj/atmel_twid.o
 .debug_aranges
                0x00000eb0       0xa8 build/obj/atmel_spi.o
 .debug_aranges
                0x00000f58       0x20 build/obj/atmel_psram.o
 .debug_aranges
                0x00000f78       0x28 build/obj/board.o
 .debug_aranges
                0x00000fa0       0x30 build/obj/evtimer.o
 .debug_aranges
                0x00000fd0       0x68 build/obj/syscalls.o
 .debug_aranges
                0x00001038       0x28 build/obj/chprintf.o
 .debug_aranges
                0x00001060       0x28 build/obj/main.o

.debug_ranges   0x00000000     0x1918
 .debug_ranges  0x00000000       0x58 build/obj/crt0.o
 .debug_ranges  0x00000058       0x10 build/obj/vectors.o
 .debug_ranges  0x00000068       0x10 build/obj/chcore.o
 .debug_ranges  0x00000078       0x58 build/obj/chcore_v7m.o
 .debug_ranges  0x000000d0       0x20 build/obj/nvic.o
 .debug_ranges  0x000000f0       0x20 build/obj/chsys.o
 .debug_ranges  0x00000110       0x28 build/obj/chvt.o
 .debug_ranges  0x00000138      0x150 build/obj/chschd.o
 .debug_ranges  0x00000288       0xe0 build/obj/chthreads.o
 .debug_ranges  0x00000368       0x58 build/obj/chdynamic.o
 .debug_ranges  0x000003c0       0x50 build/obj/chregistry.o
 .debug_ranges  0x00000410      0x1f8 build/obj/chsem.o
 .debug_ranges  0x00000608      0x288 build/obj/chmtx.o
 .debug_ranges  0x00000890       0xf0 build/obj/chcond.o
 .debug_ranges  0x00000980       0xe0 build/obj/chevents.o
 .debug_ranges  0x00000a60       0xa0 build/obj/chmsg.o
 .debug_ranges  0x00000b00       0x78 build/obj/chmboxes.o
 .debug_ranges  0x00000b78       0xa8 build/obj/chqueues.o
 .debug_ranges  0x00000c20       0x28 build/obj/chmemcore.o
 .debug_ranges  0x00000c48       0x30 build/obj/chheap.o
 .debug_ranges  0x00000c78       0xc0 build/obj/chmempools.o
 .debug_ranges  0x00000d38       0xf8 build/obj/test.o
 .debug_ranges  0x00000e30       0x78 build/obj/testthd.o
 .debug_ranges  0x00000ea8       0x90 build/obj/testsem.o
 .debug_ranges  0x00000f38      0x110 build/obj/testmtx.o
 .debug_ranges  0x00001048       0x18 build/obj/testmsg.o
 .debug_ranges  0x00001060       0xc0 build/obj/testmbox.o
 .debug_ranges  0x00001120       0x60 build/obj/testevt.o
 .debug_ranges  0x00001180       0x18 build/obj/testheap.o
 .debug_ranges  0x00001198       0x20 build/obj/testpools.o
 .debug_ranges  0x000011b8       0x48 build/obj/testdyn.o
 .debug_ranges  0x00001200       0xf0 build/obj/testqueues.o
 .debug_ranges  0x000012f0       0xd8 build/obj/testbmk.o
 .debug_ranges  0x000013c8       0x10 build/obj/hal.o
 .debug_ranges  0x000013d8       0x20 build/obj/pal.o
 .debug_ranges  0x000013f8       0xc8 build/obj/serial.o
 .debug_ranges  0x000014c0       0x18 build/obj/hal_lld.o
 .debug_ranges  0x000014d8       0x18 build/obj/system_SAM3.o
 .debug_ranges  0x000014f0       0x18 build/obj/pal_lld.o
 .debug_ranges  0x00001508       0x60 build/obj/serial_lld.o
 .debug_ranges  0x00001568       0x90 build/obj/atmel_adc.o
 .debug_ranges  0x000015f8       0xa8 build/obj/pio.o
 .debug_ranges  0x000016a0       0x50 build/obj/pmc.o
 .debug_ranges  0x000016f0       0x80 build/obj/atmel_twi.o
 .debug_ranges  0x00001770       0x28 build/obj/atmel_twid.o
 .debug_ranges  0x00001798       0x98 build/obj/atmel_spi.o
 .debug_ranges  0x00001830       0x10 build/obj/atmel_psram.o
 .debug_ranges  0x00001840       0x18 build/obj/board.o
 .debug_ranges  0x00001858       0x38 build/obj/evtimer.o
 .debug_ranges  0x00001890       0x58 build/obj/syscalls.o
 .debug_ranges  0x000018e8       0x18 build/obj/chprintf.o
 .debug_ranges  0x00001900       0x18 build/obj/main.o

.debug_str      0x00000000     0x49b9
 .debug_str     0x00000000      0x209 build/obj/crt0.o
                                0x248 (size before relaxing)
 .debug_str     0x00000209       0xad build/obj/vectors.o
                                0x142 (size before relaxing)
 .debug_str     0x000002b6       0x8e build/obj/chcore.o
                                0x123 (size before relaxing)
 .debug_str     0x00000344      0x2ee build/obj/chcore_v7m.o
                                0x3aa (size before relaxing)
 .debug_str     0x00000632      0x11c build/obj/nvic.o
                                0x21a (size before relaxing)
 .debug_str     0x0000074e      0x12c build/obj/chsys.o
                                0x374 (size before relaxing)
 .debug_str     0x0000087a       0x7f build/obj/chlists.o
                                0x114 (size before relaxing)
 .debug_str     0x000008f9       0xb6 build/obj/chvt.o
                                0x1c7 (size before relaxing)
 .debug_str     0x000009af      0x11f build/obj/chschd.o
                                0x3ab (size before relaxing)
 .debug_str     0x00000ace      0x14d build/obj/chthreads.o
                                0x3fa (size before relaxing)
 .debug_str     0x00000c1b      0x14d build/obj/chdynamic.o
                                0x38b (size before relaxing)
 .debug_str     0x00000d68       0xa3 build/obj/chregistry.o
                                0x2e3 (size before relaxing)
 .debug_str     0x00000e0b      0x129 build/obj/chsem.o
                                0x392 (size before relaxing)
 .debug_str     0x00000f34       0xeb build/obj/chmtx.o
                                0x34e (size before relaxing)
 .debug_str     0x0000101f      0x111 build/obj/chcond.o
                                0x36e (size before relaxing)
 .debug_str     0x00001130      0x1da build/obj/chevents.o
                                0x424 (size before relaxing)
 .debug_str     0x0000130a       0x9e build/obj/chmsg.o
                                0x2f7 (size before relaxing)
 .debug_str     0x000013a8      0x143 build/obj/chmboxes.o
                                0x357 (size before relaxing)
 .debug_str     0x000014eb      0x173 build/obj/chqueues.o
                                0x3e4 (size before relaxing)
 .debug_str     0x0000165e       0xdc build/obj/chmemcore.o
                                0x18e (size before relaxing)
 .debug_str     0x0000173a       0xcb build/obj/chheap.o
                                0x33a (size before relaxing)
 .debug_str     0x00001805       0xbd build/obj/chmempools.o
                                0x1c4 (size before relaxing)
 .debug_str     0x000018c2      0x2dc build/obj/test.o
                                0x5dd (size before relaxing)
 .debug_str     0x00001b9e       0xce build/obj/testthd.o
                                0x3ad (size before relaxing)
 .debug_str     0x00001c6c      0x137 build/obj/testsem.o
                                0x422 (size before relaxing)
 .debug_str     0x00001da3      0x1f5 build/obj/testmtx.o
                                0x4ec (size before relaxing)
 .debug_str     0x00001f98       0x8c build/obj/testmsg.o
                                0x30b (size before relaxing)
 .debug_str     0x00002024       0xa0 build/obj/testmbox.o
                                0x354 (size before relaxing)
 .debug_str     0x000020c4       0xe0 build/obj/testevt.o
                                0x41e (size before relaxing)
 .debug_str     0x000021a4       0xa5 build/obj/testheap.o
                                0x358 (size before relaxing)
 .debug_str     0x00002249       0xad build/obj/testpools.o
                                0x1cf (size before relaxing)
 .debug_str     0x000022f6       0xe7 build/obj/testdyn.o
                                0x44b (size before relaxing)
 .debug_str     0x000023dd       0xcd build/obj/testqueues.o
                                0x404 (size before relaxing)
 .debug_str     0x000024aa      0x1e0 build/obj/testbmk.o
                                0x558 (size before relaxing)
 .debug_str     0x0000268a       0xd1 build/obj/hal.o
                                0x17c (size before relaxing)
 .debug_str     0x0000275b      0x3a8 build/obj/pal.o
                                0x464 (size before relaxing)
 .debug_str     0x00002b03      0x265 build/obj/serial.o
                                0x57a (size before relaxing)
 .debug_str     0x00002d68       0xda build/obj/hal_lld.o
                                0x185 (size before relaxing)
 .debug_str     0x00002e42      0x212 build/obj/system_SAM3.o
                                0x318 (size before relaxing)
 .debug_str     0x00003054       0xbb build/obj/pal_lld.o
                                0x592 (size before relaxing)
 .debug_str     0x0000310f      0x2c8 build/obj/serial_lld.o
                                0xaf4 (size before relaxing)
 .debug_str     0x000033d7      0x387 build/obj/atmel_adc.o
                                0x913 (size before relaxing)
 .debug_str     0x0000375e      0x1a8 build/obj/pio.o
                                0x523 (size before relaxing)
 .debug_str     0x00003906      0x174 build/obj/pmc.o
                                0x375 (size before relaxing)
 .debug_str     0x00003a7a      0x281 build/obj/atmel_twi.o
                                0x34c (size before relaxing)
 .debug_str     0x00003cfb      0x11f build/obj/atmel_twid.o
                                0x2cf (size before relaxing)
 .debug_str     0x00003e1a      0x2cb build/obj/atmel_spi.o
                                0x3ab (size before relaxing)
 .debug_str     0x000040e5      0x11f build/obj/atmel_psram.o
                                0x1d9 (size before relaxing)
 .debug_str     0x00004204       0x8f build/obj/board.o
                                0x485 (size before relaxing)
 .debug_str     0x00004293       0xb3 build/obj/evtimer.o
                                0x31f (size before relaxing)
 .debug_str     0x00004346      0x521 build/obj/syscalls.o
                                0x61e (size before relaxing)
 .debug_str     0x00004867      0x133 build/obj/chprintf.o
                                0x25d (size before relaxing)
 .debug_str     0x0000499a       0x1f build/obj/main.o
                                0x824 (size before relaxing)

.comment        0x00000000       0x2a
 .comment       0x00000000       0x2a build/obj/crt0.o
                                 0x2b (size before relaxing)
 .comment       0x00000000       0x2b build/obj/vectors.o
 .comment       0x00000000       0x2b build/obj/chcore.o
 .comment       0x00000000       0x2b build/obj/chcore_v7m.o
 .comment       0x00000000       0x2b build/obj/nvic.o
 .comment       0x00000000       0x2b build/obj/chsys.o
 .comment       0x00000000       0x2b build/obj/chlists.o
 .comment       0x00000000       0x2b build/obj/chvt.o
 .comment       0x00000000       0x2b build/obj/chschd.o
 .comment       0x00000000       0x2b build/obj/chthreads.o
 .comment       0x00000000       0x2b build/obj/chdynamic.o
 .comment       0x00000000       0x2b build/obj/chregistry.o
 .comment       0x00000000       0x2b build/obj/chsem.o
 .comment       0x00000000       0x2b build/obj/chmtx.o
 .comment       0x00000000       0x2b build/obj/chcond.o
 .comment       0x00000000       0x2b build/obj/chevents.o
 .comment       0x00000000       0x2b build/obj/chmsg.o
 .comment       0x00000000       0x2b build/obj/chmboxes.o
 .comment       0x00000000       0x2b build/obj/chqueues.o
 .comment       0x00000000       0x2b build/obj/chmemcore.o
 .comment       0x00000000       0x2b build/obj/chheap.o
 .comment       0x00000000       0x2b build/obj/chmempools.o
 .comment       0x00000000       0x2b build/obj/test.o
 .comment       0x00000000       0x2b build/obj/testthd.o
 .comment       0x00000000       0x2b build/obj/testsem.o
 .comment       0x00000000       0x2b build/obj/testmtx.o
 .comment       0x00000000       0x2b build/obj/testmsg.o
 .comment       0x00000000       0x2b build/obj/testmbox.o
 .comment       0x00000000       0x2b build/obj/testevt.o
 .comment       0x00000000       0x2b build/obj/testheap.o
 .comment       0x00000000       0x2b build/obj/testpools.o
 .comment       0x00000000       0x2b build/obj/testdyn.o
 .comment       0x00000000       0x2b build/obj/testqueues.o
 .comment       0x00000000       0x2b build/obj/testbmk.o
 .comment       0x00000000       0x2b build/obj/hal.o
 .comment       0x00000000       0x2b build/obj/pal.o
 .comment       0x00000000       0x2b build/obj/serial.o
 .comment       0x00000000       0x2b build/obj/hal_lld.o
 .comment       0x00000000       0x2b build/obj/system_SAM3.o
 .comment       0x00000000       0x2b build/obj/pal_lld.o
 .comment       0x00000000       0x2b build/obj/serial_lld.o
 .comment       0x00000000       0x2b build/obj/atmel_adc.o
 .comment       0x00000000       0x2b build/obj/pio.o
 .comment       0x00000000       0x2b build/obj/pmc.o
 .comment       0x00000000       0x2b build/obj/atmel_twi.o
 .comment       0x00000000       0x2b build/obj/atmel_twid.o
 .comment       0x00000000       0x2b build/obj/atmel_spi.o
 .comment       0x00000000       0x2b build/obj/atmel_psram.o
 .comment       0x00000000       0x2b build/obj/board.o
 .comment       0x00000000       0x2b build/obj/evtimer.o
 .comment       0x00000000       0x2b build/obj/syscalls.o
 .comment       0x00000000       0x2b build/obj/chprintf.o
 .comment       0x00000000       0x2b build/obj/main.o

.ARM.attributes
                0x00000000       0x31
 .ARM.attributes
                0x00000000       0x31 build/obj/crt0.o
 .ARM.attributes
                0x00000031       0x31 build/obj/vectors.o
 .ARM.attributes
                0x00000062       0x31 build/obj/chcore.o
 .ARM.attributes
                0x00000093       0x31 build/obj/chcore_v7m.o
 .ARM.attributes
                0x000000c4       0x31 build/obj/nvic.o
 .ARM.attributes
                0x000000f5       0x31 build/obj/chsys.o
 .ARM.attributes
                0x00000126       0x31 build/obj/chlists.o
 .ARM.attributes
                0x00000157       0x31 build/obj/chvt.o
 .ARM.attributes
                0x00000188       0x31 build/obj/chschd.o
 .ARM.attributes
                0x000001b9       0x31 build/obj/chthreads.o
 .ARM.attributes
                0x000001ea       0x31 build/obj/chdynamic.o
 .ARM.attributes
                0x0000021b       0x31 build/obj/chregistry.o
 .ARM.attributes
                0x0000024c       0x31 build/obj/chsem.o
 .ARM.attributes
                0x0000027d       0x31 build/obj/chmtx.o
 .ARM.attributes
                0x000002ae       0x31 build/obj/chcond.o
 .ARM.attributes
                0x000002df       0x31 build/obj/chevents.o
 .ARM.attributes
                0x00000310       0x31 build/obj/chmsg.o
 .ARM.attributes
                0x00000341       0x31 build/obj/chmboxes.o
 .ARM.attributes
                0x00000372       0x31 build/obj/chqueues.o
 .ARM.attributes
                0x000003a3       0x31 build/obj/chmemcore.o
 .ARM.attributes
                0x000003d4       0x31 build/obj/chheap.o
 .ARM.attributes
                0x00000405       0x31 build/obj/chmempools.o
 .ARM.attributes
                0x00000436       0x31 build/obj/test.o
 .ARM.attributes
                0x00000467       0x31 build/obj/testthd.o
 .ARM.attributes
                0x00000498       0x31 build/obj/testsem.o
 .ARM.attributes
                0x000004c9       0x31 build/obj/testmtx.o
 .ARM.attributes
                0x000004fa       0x31 build/obj/testmsg.o
 .ARM.attributes
                0x0000052b       0x31 build/obj/testmbox.o
 .ARM.attributes
                0x0000055c       0x31 build/obj/testevt.o
 .ARM.attributes
                0x0000058d       0x31 build/obj/testheap.o
 .ARM.attributes
                0x000005be       0x31 build/obj/testpools.o
 .ARM.attributes
                0x000005ef       0x31 build/obj/testdyn.o
 .ARM.attributes
                0x00000620       0x31 build/obj/testqueues.o
 .ARM.attributes
                0x00000651       0x31 build/obj/testbmk.o
 .ARM.attributes
                0x00000682       0x31 build/obj/hal.o
 .ARM.attributes
                0x000006b3       0x31 build/obj/pal.o
 .ARM.attributes
                0x000006e4       0x31 build/obj/serial.o
 .ARM.attributes
                0x00000715       0x31 build/obj/hal_lld.o
 .ARM.attributes
                0x00000746       0x31 build/obj/system_SAM3.o
 .ARM.attributes
                0x00000777       0x31 build/obj/pal_lld.o
 .ARM.attributes
                0x000007a8       0x31 build/obj/serial_lld.o
 .ARM.attributes
                0x000007d9       0x31 build/obj/atmel_adc.o
 .ARM.attributes
                0x0000080a       0x31 build/obj/pio.o
 .ARM.attributes
                0x0000083b       0x31 build/obj/pmc.o
 .ARM.attributes
                0x0000086c       0x31 build/obj/atmel_twi.o
 .ARM.attributes
                0x0000089d       0x31 build/obj/atmel_twid.o
 .ARM.attributes
                0x000008ce       0x31 build/obj/atmel_spi.o
 .ARM.attributes
                0x000008ff       0x31 build/obj/atmel_psram.o
 .ARM.attributes
                0x00000930       0x31 build/obj/board.o
 .ARM.attributes
                0x00000961       0x31 build/obj/evtimer.o
 .ARM.attributes
                0x00000992       0x31 build/obj/syscalls.o
 .ARM.attributes
                0x000009c3       0x31 build/obj/chprintf.o
 .ARM.attributes
                0x000009f4       0x31 build/obj/main.o
 .ARM.attributes
                0x00000a25       0x29 /usr/local/CodeBench_1802_EABI/bin/../lib/gcc/arm-none-eabi/4.5.2/../../../../arm-none-eabi/lib/thumb2/libc.a(lib_a-assert.o)
 .ARM.attributes
                0x00000a4e       0x29 /usr/local/CodeBench_1802_EABI/bin/../lib/gcc/arm-none-eabi/4.5.2/../../../../arm-none-eabi/lib/thumb2/libc.a(lib_a-fiprintf.o)
 .ARM.attributes
                0x00000a77       0x29 /usr/local/CodeBench_1802_EABI/bin/../lib/gcc/arm-none-eabi/4.5.2/../../../../arm-none-eabi/lib/thumb2/libc.a(lib_a-impure.o)
 .ARM.attributes
                0x00000aa0       0x29 /usr/local/CodeBench_1802_EABI/bin/../lib/gcc/arm-none-eabi/4.5.2/../../../../arm-none-eabi/lib/thumb2/libc.a(lib_a-memset.o)
 .ARM.attributes
                0x00000ac9       0x29 /usr/local/CodeBench_1802_EABI/bin/../lib/gcc/arm-none-eabi/4.5.2/../../../../arm-none-eabi/lib/thumb2/libc.a(lib_a-vfiprintf.o)
 .ARM.attributes
                0x00000af2       0x29 /usr/local/CodeBench_1802_EABI/bin/../lib/gcc/arm-none-eabi/4.5.2/../../../../arm-none-eabi/lib/thumb2/libc.a(lib_a-wsetup.o)
 .ARM.attributes
                0x00000b1b       0x29 /usr/local/CodeBench_1802_EABI/bin/../lib/gcc/arm-none-eabi/4.5.2/../../../../arm-none-eabi/lib/thumb2/libc.a(lib_a-abort.o)
 .ARM.attributes
                0x00000b44       0x29 /usr/local/CodeBench_1802_EABI/bin/../lib/gcc/arm-none-eabi/4.5.2/../../../../arm-none-eabi/lib/thumb2/libc.a(lib_a-fflush.o)
 .ARM.attributes
                0x00000b6d       0x29 /usr/local/CodeBench_1802_EABI/bin/../lib/gcc/arm-none-eabi/4.5.2/../../../../arm-none-eabi/lib/thumb2/libc.a(lib_a-findfp.o)
 .ARM.attributes
                0x00000b96       0x29 /usr/local/CodeBench_1802_EABI/bin/../lib/gcc/arm-none-eabi/4.5.2/../../../../arm-none-eabi/lib/thumb2/libc.a(lib_a-fputwc.o)
 .ARM.attributes
                0x00000bbf       0x29 /usr/local/CodeBench_1802_EABI/bin/../lib/gcc/arm-none-eabi/4.5.2/../../../../arm-none-eabi/lib/thumb2/libc.a(lib_a-freer.o)
 .ARM.attributes
                0x00000be8       0x29 /usr/local/CodeBench_1802_EABI/bin/../lib/gcc/arm-none-eabi/4.5.2/../../../../arm-none-eabi/lib/thumb2/libc.a(lib_a-fvwrite.o)
 .ARM.attributes
                0x00000c11       0x29 /usr/local/CodeBench_1802_EABI/bin/../lib/gcc/arm-none-eabi/4.5.2/../../../../arm-none-eabi/lib/thumb2/libc.a(lib_a-fwalk.o)
 .ARM.attributes
                0x00000c3a       0x29 /usr/local/CodeBench_1802_EABI/bin/../lib/gcc/arm-none-eabi/4.5.2/../../../../arm-none-eabi/lib/thumb2/libc.a(lib_a-locale.o)
 .ARM.attributes
                0x00000c63       0x29 /usr/local/CodeBench_1802_EABI/bin/../lib/gcc/arm-none-eabi/4.5.2/../../../../arm-none-eabi/lib/thumb2/libc.a(lib_a-makebuf.o)
 .ARM.attributes
                0x00000c8c       0x29 /usr/local/CodeBench_1802_EABI/bin/../lib/gcc/arm-none-eabi/4.5.2/../../../../arm-none-eabi/lib/thumb2/libc.a(lib_a-mallocr.o)
 .ARM.attributes
                0x00000cb5       0x29 /usr/local/CodeBench_1802_EABI/bin/../lib/gcc/arm-none-eabi/4.5.2/../../../../arm-none-eabi/lib/thumb2/libc.a(lib_a-memchr.o)
 .ARM.attributes
                0x00000cde       0x29 /usr/local/CodeBench_1802_EABI/bin/../lib/gcc/arm-none-eabi/4.5.2/../../../../arm-none-eabi/lib/thumb2/libc.a(lib_a-memcpy.o)
 .ARM.attributes
                0x00000d07       0x29 /usr/local/CodeBench_1802_EABI/bin/../lib/gcc/arm-none-eabi/4.5.2/../../../../arm-none-eabi/lib/thumb2/libc.a(lib_a-memmove.o)
 .ARM.attributes
                0x00000d30       0x29 /usr/local/CodeBench_1802_EABI/bin/../lib/gcc/arm-none-eabi/4.5.2/../../../../arm-none-eabi/lib/thumb2/libc.a(lib_a-mlock.o)
 .ARM.attributes
                0x00000d59       0x29 /usr/local/CodeBench_1802_EABI/bin/../lib/gcc/arm-none-eabi/4.5.2/../../../../arm-none-eabi/lib/thumb2/libc.a(lib_a-reallocr.o)
 .ARM.attributes
                0x00000d82       0x29 /usr/local/CodeBench_1802_EABI/bin/../lib/gcc/arm-none-eabi/4.5.2/../../../../arm-none-eabi/lib/thumb2/libc.a(lib_a-signal.o)
 .ARM.attributes
                0x00000dab       0x29 /usr/local/CodeBench_1802_EABI/bin/../lib/gcc/arm-none-eabi/4.5.2/../../../../arm-none-eabi/lib/thumb2/libc.a(lib_a-signalr.o)
 .ARM.attributes
                0x00000dd4       0x29 /usr/local/CodeBench_1802_EABI/bin/../lib/gcc/arm-none-eabi/4.5.2/../../../../arm-none-eabi/lib/thumb2/libc.a(lib_a-stdio.o)
 .ARM.attributes
                0x00000dfd       0x29 /usr/local/CodeBench_1802_EABI/bin/../lib/gcc/arm-none-eabi/4.5.2/../../../../arm-none-eabi/lib/thumb2/libc.a(lib_a-strcmp.o)
 .ARM.attributes
                0x00000e26       0x29 /usr/local/CodeBench_1802_EABI/bin/../lib/gcc/arm-none-eabi/4.5.2/../../../../arm-none-eabi/lib/thumb2/libc.a(lib_a-strlen.o)
 .ARM.attributes
                0x00000e4f       0x29 /usr/local/CodeBench_1802_EABI/bin/../lib/gcc/arm-none-eabi/4.5.2/../../../../arm-none-eabi/lib/thumb2/libc.a(lib_a-wbuf.o)
 .ARM.attributes
                0x00000e78       0x29 /usr/local/CodeBench_1802_EABI/bin/../lib/gcc/arm-none-eabi/4.5.2/../../../../arm-none-eabi/lib/thumb2/libc.a(lib_a-wcrtomb.o)
 .ARM.attributes
                0x00000ea1       0x29 /usr/local/CodeBench_1802_EABI/bin/../lib/gcc/arm-none-eabi/4.5.2/../../../../arm-none-eabi/lib/thumb2/libc.a(lib_a-wctomb_r.o)
 .ARM.attributes
                0x00000eca       0x29 /usr/local/CodeBench_1802_EABI/bin/../lib/gcc/arm-none-eabi/4.5.2/../../../../arm-none-eabi/lib/thumb2/libc.a(lib_a-fclose.o)
 .ARM.attributes
                0x00000ef3       0x29 /usr/local/CodeBench_1802_EABI/bin/../lib/gcc/arm-none-eabi/4.5.2/../../../../arm-none-eabi/lib/thumb2/libc.a(lib_a-reent.o)
 .ARM.attributes
                0x00000f1c       0x1b /usr/local/CodeBench_1802_EABI/bin/../lib/gcc/arm-none-eabi/4.5.2/thumb2/libgcc.a(_aeabi_uldivmod.o)
 .ARM.attributes
                0x00000f37       0x29 /usr/local/CodeBench_1802_EABI/bin/../lib/gcc/arm-none-eabi/4.5.2/thumb2/libgcc.a(bpabi.o)
 .ARM.attributes
                0x00000f60       0x1b /usr/local/CodeBench_1802_EABI/bin/../lib/gcc/arm-none-eabi/4.5.2/thumb2/libgcc.a(_dvmd_tls.o)
 .ARM.attributes
                0x00000f7b       0x29 /usr/local/CodeBench_1802_EABI/bin/../lib/gcc/arm-none-eabi/4.5.2/thumb2/libgcc.a(_divdi3.o)
 .ARM.attributes
                0x00000fa4       0x29 /usr/local/CodeBench_1802_EABI/bin/../lib/gcc/arm-none-eabi/4.5.2/thumb2/libgcc.a(_udivdi3.o)
 .ARM.attributes
                0x00000fcd       0x1b /usr/local/CodeBench_1802_EABI/bin/../lib/gcc/arm-none-eabi/4.5.2/thumb2/libgcc.a(_udivsi3.o)

.debug_frame    0x00000000     0x32cc
 .debug_frame   0x00000000       0x50 build/obj/crt0.o
 .debug_frame   0x00000050       0x20 build/obj/vectors.o
 .debug_frame   0x00000070       0x20 build/obj/chcore.o
 .debug_frame   0x00000090       0x98 build/obj/chcore_v7m.o
 .debug_frame   0x00000128       0x60 build/obj/nvic.o
 .debug_frame   0x00000188       0x5c build/obj/chsys.o
 .debug_frame   0x000001e4       0x5c build/obj/chvt.o
 .debug_frame   0x00000240       0xc4 build/obj/chschd.o
 .debug_frame   0x00000304      0x158 build/obj/chthreads.o
 .debug_frame   0x0000045c       0x7c build/obj/chdynamic.o
 .debug_frame   0x000004d8       0x3c build/obj/chregistry.o
 .debug_frame   0x00000514      0x140 build/obj/chsem.o
 .debug_frame   0x00000654       0xec build/obj/chmtx.o
 .debug_frame   0x00000740      0x114 build/obj/chcond.o
 .debug_frame   0x00000854      0x1bc build/obj/chevents.o
 .debug_frame   0x00000a10       0x68 build/obj/chmsg.o
 .debug_frame   0x00000a78      0x154 build/obj/chmboxes.o
 .debug_frame   0x00000bcc      0x170 build/obj/chqueues.o
 .debug_frame   0x00000d3c       0x50 build/obj/chmemcore.o
 .debug_frame   0x00000d8c       0x98 build/obj/chheap.o
 .debug_frame   0x00000e24       0x78 build/obj/chmempools.o
 .debug_frame   0x00000e9c      0x1d0 build/obj/test.o
 .debug_frame   0x0000106c       0xc4 build/obj/testthd.o
 .debug_frame   0x00001130      0x13c build/obj/testsem.o
 .debug_frame   0x0000126c      0x39c build/obj/testmtx.o
 .debug_frame   0x00001608       0x48 build/obj/testmsg.o
 .debug_frame   0x00001650       0x48 build/obj/testmbox.o
 .debug_frame   0x00001698      0x110 build/obj/testevt.o
 .debug_frame   0x000017a8       0x44 build/obj/testheap.o
 .debug_frame   0x000017ec       0x4c build/obj/testpools.o
 .debug_frame   0x00001838       0xdc build/obj/testdyn.o
 .debug_frame   0x00001914       0xcc build/obj/testqueues.o
 .debug_frame   0x000019e0      0x2b4 build/obj/testbmk.o
 .debug_frame   0x00001c94       0x2c build/obj/hal.o
 .debug_frame   0x00001cc0       0x48 build/obj/pal.o
 .debug_frame   0x00001d08      0x148 build/obj/serial.o
 .debug_frame   0x00001e50       0x3c build/obj/hal_lld.o
 .debug_frame   0x00001e8c       0x38 build/obj/system_SAM3.o
 .debug_frame   0x00001ec4       0x3c build/obj/pal_lld.o
 .debug_frame   0x00001f00       0xec build/obj/serial_lld.o
 .debug_frame   0x00001fec      0x14c build/obj/atmel_adc.o
 .debug_frame   0x00002138       0x80 build/obj/pio.o
 .debug_frame   0x000021b8       0xe0 build/obj/pmc.o
 .debug_frame   0x00002298      0x194 build/obj/atmel_twi.o
 .debug_frame   0x0000242c       0x9c build/obj/atmel_twid.o
 .debug_frame   0x000024c8      0x158 build/obj/atmel_spi.o
 .debug_frame   0x00002620       0x2c build/obj/atmel_psram.o
 .debug_frame   0x0000264c       0x40 build/obj/board.o
 .debug_frame   0x0000268c       0x64 build/obj/evtimer.o
 .debug_frame   0x000026f0       0xc8 build/obj/syscalls.o
 .debug_frame   0x000027b8       0x6c build/obj/chprintf.o
 .debug_frame   0x00002824       0x50 build/obj/main.o
 .debug_frame   0x00002874       0x44 /usr/local/CodeBench_1802_EABI/bin/../lib/gcc/arm-none-eabi/4.5.2/../../../../arm-none-eabi/lib/thumb2/libc.a(lib_a-assert.o)
 .debug_frame   0x000028b8       0x5c /usr/local/CodeBench_1802_EABI/bin/../lib/gcc/arm-none-eabi/4.5.2/../../../../arm-none-eabi/lib/thumb2/libc.a(lib_a-fiprintf.o)
 .debug_frame   0x00002914       0x2c /usr/local/CodeBench_1802_EABI/bin/../lib/gcc/arm-none-eabi/4.5.2/../../../../arm-none-eabi/lib/thumb2/libc.a(lib_a-memset.o)
 .debug_frame   0x00002940       0x7c /usr/local/CodeBench_1802_EABI/bin/../lib/gcc/arm-none-eabi/4.5.2/../../../../arm-none-eabi/lib/thumb2/libc.a(lib_a-vfiprintf.o)
 .debug_frame   0x000029bc       0x2c /usr/local/CodeBench_1802_EABI/bin/../lib/gcc/arm-none-eabi/4.5.2/../../../../arm-none-eabi/lib/thumb2/libc.a(lib_a-wsetup.o)
 .debug_frame   0x000029e8       0x28 /usr/local/CodeBench_1802_EABI/bin/../lib/gcc/arm-none-eabi/4.5.2/../../../../arm-none-eabi/lib/thumb2/libc.a(lib_a-abort.o)
 .debug_frame   0x00002a10       0x40 /usr/local/CodeBench_1802_EABI/bin/../lib/gcc/arm-none-eabi/4.5.2/../../../../arm-none-eabi/lib/thumb2/libc.a(lib_a-fflush.o)
 .debug_frame   0x00002a50      0x114 /usr/local/CodeBench_1802_EABI/bin/../lib/gcc/arm-none-eabi/4.5.2/../../../../arm-none-eabi/lib/thumb2/libc.a(lib_a-findfp.o)
 .debug_frame   0x00002b64       0x54 /usr/local/CodeBench_1802_EABI/bin/../lib/gcc/arm-none-eabi/4.5.2/../../../../arm-none-eabi/lib/thumb2/libc.a(lib_a-fputwc.o)
 .debug_frame   0x00002bb8       0x50 /usr/local/CodeBench_1802_EABI/bin/../lib/gcc/arm-none-eabi/4.5.2/../../../../arm-none-eabi/lib/thumb2/libc.a(lib_a-freer.o)
 .debug_frame   0x00002c08       0x3c /usr/local/CodeBench_1802_EABI/bin/../lib/gcc/arm-none-eabi/4.5.2/../../../../arm-none-eabi/lib/thumb2/libc.a(lib_a-fvwrite.o)
 .debug_frame   0x00002c44       0x58 /usr/local/CodeBench_1802_EABI/bin/../lib/gcc/arm-none-eabi/4.5.2/../../../../arm-none-eabi/lib/thumb2/libc.a(lib_a-fwalk.o)
 .debug_frame   0x00002c9c       0x98 /usr/local/CodeBench_1802_EABI/bin/../lib/gcc/arm-none-eabi/4.5.2/../../../../arm-none-eabi/lib/thumb2/libc.a(lib_a-locale.o)
 .debug_frame   0x00002d34       0x34 /usr/local/CodeBench_1802_EABI/bin/../lib/gcc/arm-none-eabi/4.5.2/../../../../arm-none-eabi/lib/thumb2/libc.a(lib_a-makebuf.o)
 .debug_frame   0x00002d68       0x3c /usr/local/CodeBench_1802_EABI/bin/../lib/gcc/arm-none-eabi/4.5.2/../../../../arm-none-eabi/lib/thumb2/libc.a(lib_a-mallocr.o)
 .debug_frame   0x00002da4       0x2c /usr/local/CodeBench_1802_EABI/bin/../lib/gcc/arm-none-eabi/4.5.2/../../../../arm-none-eabi/lib/thumb2/libc.a(lib_a-memchr.o)
 .debug_frame   0x00002dd0       0x30 /usr/local/CodeBench_1802_EABI/bin/../lib/gcc/arm-none-eabi/4.5.2/../../../../arm-none-eabi/lib/thumb2/libc.a(lib_a-memcpy.o)
 .debug_frame   0x00002e00       0x2c /usr/local/CodeBench_1802_EABI/bin/../lib/gcc/arm-none-eabi/4.5.2/../../../../arm-none-eabi/lib/thumb2/libc.a(lib_a-memmove.o)
 .debug_frame   0x00002e2c       0x30 /usr/local/CodeBench_1802_EABI/bin/../lib/gcc/arm-none-eabi/4.5.2/../../../../arm-none-eabi/lib/thumb2/libc.a(lib_a-mlock.o)
 .debug_frame   0x00002e5c       0x3c /usr/local/CodeBench_1802_EABI/bin/../lib/gcc/arm-none-eabi/4.5.2/../../../../arm-none-eabi/lib/thumb2/libc.a(lib_a-reallocr.o)
 .debug_frame   0x00002e98       0xc0 /usr/local/CodeBench_1802_EABI/bin/../lib/gcc/arm-none-eabi/4.5.2/../../../../arm-none-eabi/lib/thumb2/libc.a(lib_a-signal.o)
 .debug_frame   0x00002f58       0x3c /usr/local/CodeBench_1802_EABI/bin/../lib/gcc/arm-none-eabi/4.5.2/../../../../arm-none-eabi/lib/thumb2/libc.a(lib_a-signalr.o)
 .debug_frame   0x00002f94       0x80 /usr/local/CodeBench_1802_EABI/bin/../lib/gcc/arm-none-eabi/4.5.2/../../../../arm-none-eabi/lib/thumb2/libc.a(lib_a-stdio.o)
 .debug_frame   0x00003014       0x30 /usr/local/CodeBench_1802_EABI/bin/../lib/gcc/arm-none-eabi/4.5.2/../../../../arm-none-eabi/lib/thumb2/libc.a(lib_a-strcmp.o)
 .debug_frame   0x00003044       0x20 /usr/local/CodeBench_1802_EABI/bin/../lib/gcc/arm-none-eabi/4.5.2/../../../../arm-none-eabi/lib/thumb2/libc.a(lib_a-strlen.o)
 .debug_frame   0x00003064       0x3c /usr/local/CodeBench_1802_EABI/bin/../lib/gcc/arm-none-eabi/4.5.2/../../../../arm-none-eabi/lib/thumb2/libc.a(lib_a-wbuf.o)
 .debug_frame   0x000030a0       0x5c /usr/local/CodeBench_1802_EABI/bin/../lib/gcc/arm-none-eabi/4.5.2/../../../../arm-none-eabi/lib/thumb2/libc.a(lib_a-wcrtomb.o)
 .debug_frame   0x000030fc       0x44 /usr/local/CodeBench_1802_EABI/bin/../lib/gcc/arm-none-eabi/4.5.2/../../../../arm-none-eabi/lib/thumb2/libc.a(lib_a-wctomb_r.o)
 .debug_frame   0x00003140       0x3c /usr/local/CodeBench_1802_EABI/bin/../lib/gcc/arm-none-eabi/4.5.2/../../../../arm-none-eabi/lib/thumb2/libc.a(lib_a-fclose.o)
 .debug_frame   0x0000317c       0x68 /usr/local/CodeBench_1802_EABI/bin/../lib/gcc/arm-none-eabi/4.5.2/../../../../arm-none-eabi/lib/thumb2/libc.a(lib_a-reent.o)
 .debug_frame   0x000031e4       0x50 /usr/local/CodeBench_1802_EABI/bin/../lib/gcc/arm-none-eabi/4.5.2/thumb2/libgcc.a(bpabi.o)
 .debug_frame   0x00003234       0x3c /usr/local/CodeBench_1802_EABI/bin/../lib/gcc/arm-none-eabi/4.5.2/thumb2/libgcc.a(_divdi3.o)
 .debug_frame   0x00003270       0x3c /usr/local/CodeBench_1802_EABI/bin/../lib/gcc/arm-none-eabi/4.5.2/thumb2/libgcc.a(_udivdi3.o)
 .debug_frame   0x000032ac       0x20 /usr/local/CodeBench_1802_EABI/bin/../lib/gcc/arm-none-eabi/4.5.2/thumb2/libgcc.a(_udivsi3.o)

Cross Reference Table

Symbol                                            File
ADC_CfgChannelMode                                build/obj/atmel_adc.o
ADC_CfgLowRes                                     build/obj/atmel_adc.o
ADC_CfgPowerSave                                  build/obj/atmel_adc.o
ADC_CfgTiming                                     build/obj/atmel_adc.o
ADC_CfgTrigering                                  build/obj/atmel_adc.o
ADC_GetConvertedData                              build/obj/atmel_adc.o
ADC_Initialize                                    build/obj/atmel_adc.o
ADC_IsChannelInterruptStatusSet                   build/obj/atmel_adc.o
ADC_IsInterruptMasked                             build/obj/atmel_adc.o
ADC_IsStatusSet                                   build/obj/atmel_adc.o
ADC_ReadBuffer                                    build/obj/atmel_adc.o
ADC_SetCompareChannel                             build/obj/atmel_adc.o
ADC_SetCompareMode                                build/obj/atmel_adc.o
ADC_SetComparisonWindow                           build/obj/atmel_adc.o
ADC_cfgFrequency                                  build/obj/atmel_adc.o
ADC_check                                         build/obj/atmel_adc.o
BOARD_ConfigurePSRAM                              build/obj/atmel_psram.o
                                                  build/obj/main.o
BusFaultVector                                    build/obj/vectors.o
ConfigurePck                                      build/obj/pmc.o
DebugMonitorVector                                build/obj/vectors.o
HardFaultVector                                   build/obj/vectors.o
MemManageVector                                   build/obj/vectors.o
NMIVector                                         build/obj/vectors.o
PIO_Clear                                         build/obj/pio.o
PIO_Configure                                     build/obj/pio.o
                                                  build/obj/main.o
PIO_Get                                           build/obj/pio.o
PIO_GetOutputDataStatus                           build/obj/pio.o
PIO_Set                                           build/obj/pio.o
PIO_SetDebounceFilter                             build/obj/pio.o
PMC_DisableAllPeripherals                         build/obj/pmc.o
PMC_DisablePeripheral                             build/obj/pmc.o
PMC_EnableAllPeripherals                          build/obj/pmc.o
PMC_EnablePeripheral                              build/obj/pmc.o
                                                  build/obj/atmel_psram.o
                                                  build/obj/atmel_spi.o
                                                  build/obj/pio.o
PMC_IsPeriphEnabled                               build/obj/pmc.o
PendSVVector                                      build/obj/vectors.o
PmcConfigurePllClock                              build/obj/pmc.o
PmcMainClockSwitchMainOsc                         build/obj/pmc.o
PmcMasterClockSelection                           build/obj/pmc.o
ResetHandler                                      build/obj/crt0.o
                                                  build/obj/vectors.o
SD1                                               build/obj/serial_lld.o
                                                  build/obj/main.o
SD2                                               build/obj/serial_lld.o
                                                  build/obj/atmel_adc.o
SPI_Configure                                     build/obj/atmel_spi.o
SPI_ConfigureNPCS                                 build/obj/atmel_spi.o
SPI_Disable                                       build/obj/atmel_spi.o
SPI_DisableIt                                     build/obj/atmel_spi.o
SPI_Enable                                        build/obj/atmel_spi.o
SPI_EnableIt                                      build/obj/atmel_spi.o
SPI_GetStatus                                     build/obj/atmel_spi.o
SPI_IsFinished                                    build/obj/atmel_spi.o
SPI_PCS                                           build/obj/atmel_spi.o
SPI_PdcDisableRx                                  build/obj/atmel_spi.o
SPI_PdcDisableTx                                  build/obj/atmel_spi.o
SPI_PdcEnableRx                                   build/obj/atmel_spi.o
SPI_PdcEnableTx                                   build/obj/atmel_spi.o
SPI_PdcSetRx                                      build/obj/atmel_spi.o
SPI_PdcSetTx                                      build/obj/atmel_spi.o
SPI_Read                                          build/obj/atmel_spi.o
SPI_ReadBuffer                                    build/obj/atmel_spi.o
SPI_Write                                         build/obj/atmel_spi.o
SPI_WriteBuffer                                   build/obj/atmel_spi.o
SVCallVector                                      build/obj/chcore_v7m.o
                                                  build/obj/vectors.o
SysTickVector                                     build/obj/chcore_v7m.o
                                                  build/obj/vectors.o
SystemCoreClock                                   build/obj/system_SAM3.o
                                                  build/obj/serial_lld.o
                                                  build/obj/hal_lld.o
SystemCoreClockUpdate                             build/obj/system_SAM3.o
                                                  build/obj/serial_lld.o
                                                  build/obj/hal_lld.o
SystemInit                                        build/obj/system_SAM3.o
                                                  build/obj/hal_lld.o
TWID_Handler                                      build/obj/atmel_twid.o
TWID_Initialize                                   build/obj/atmel_twid.o
TWID_Read                                         build/obj/atmel_twid.o
TWID_Write                                        build/obj/atmel_twid.o
TWI_ByteReceived                                  build/obj/atmel_twi.o
                                                  build/obj/atmel_twid.o
TWI_ByteSent                                      build/obj/atmel_twi.o
                                                  build/obj/atmel_twid.o
TWI_ConfigureMaster                               build/obj/atmel_twi.o
TWI_ConfigureSlave                                build/obj/atmel_twi.o
TWI_DisableIt                                     build/obj/atmel_twi.o
                                                  build/obj/atmel_twid.o
TWI_EnableIt                                      build/obj/atmel_twi.o
                                                  build/obj/atmel_twid.o
TWI_GetMaskedStatus                               build/obj/atmel_twi.o
                                                  build/obj/atmel_twid.o
TWI_GetStatus                                     build/obj/atmel_twi.o
TWI_ReadByte                                      build/obj/atmel_twi.o
                                                  build/obj/atmel_twid.o
TWI_SendSTOPCondition                             build/obj/atmel_twi.o
                                                  build/obj/atmel_twid.o
TWI_StartRead                                     build/obj/atmel_twi.o
                                                  build/obj/atmel_twid.o
TWI_StartWrite                                    build/obj/atmel_twi.o
                                                  build/obj/atmel_twid.o
TWI_Stop                                          build/obj/atmel_twi.o
                                                  build/obj/atmel_twid.o
TWI_TransferComplete                              build/obj/atmel_twi.o
                                                  build/obj/atmel_twid.o
TWI_WriteByte                                     build/obj/atmel_twi.o
                                                  build/obj/atmel_twid.o
TestThread                                        build/obj/test.o
UsageFaultVector                                  build/obj/vectors.o
Vector1C                                          build/obj/vectors.o
Vector20                                          build/obj/vectors.o
Vector24                                          build/obj/vectors.o
Vector28                                          build/obj/vectors.o
Vector34                                          build/obj/vectors.o
Vector40                                          build/obj/vectors.o
Vector44                                          build/obj/vectors.o
Vector48                                          build/obj/vectors.o
Vector4C                                          build/obj/vectors.o
Vector50                                          build/obj/vectors.o
Vector54                                          build/obj/vectors.o
Vector58                                          build/obj/vectors.o
Vector5C                                          build/obj/vectors.o
Vector60                                          build/obj/serial_lld.o
                                                  build/obj/vectors.o
Vector64                                          build/obj/serial_lld.o
                                                  build/obj/vectors.o
Vector68                                          build/obj/vectors.o
Vector6C                                          build/obj/vectors.o
Vector70                                          build/obj/vectors.o
Vector74                                          build/obj/vectors.o
Vector78                                          build/obj/vectors.o
Vector7C                                          build/obj/vectors.o
Vector80                                          build/obj/vectors.o
Vector84                                          build/obj/vectors.o
Vector88                                          build/obj/vectors.o
Vector8C                                          build/obj/vectors.o
Vector90                                          build/obj/vectors.o
Vector94                                          build/obj/vectors.o
Vector98                                          build/obj/vectors.o
Vector9C                                          build/obj/vectors.o
VectorA0                                          build/obj/vectors.o
VectorA4                                          build/obj/vectors.o
VectorA8                                          build/obj/vectors.o
VectorAC                                          build/obj/vectors.o
VectorB0                                          build/obj/vectors.o
VectorB4                                          build/obj/vectors.o
VectorB8                                          build/obj/vectors.o
VectorBC                                          build/obj/vectors.o
VectorC0                                          build/obj/vectors.o
VectorC4                                          build/obj/vectors.o
VectorC8                                          build/obj/vectors.o
VectorCC                                          build/obj/vectors.o
_PathLocale                                       /usr/local/CodeBench_1802_EABI/bin/../lib/gcc/arm-none-eabi/4.5.2/../../../../arm-none-eabi/lib/thumb2/libc.a(lib_a-locale.o)
__aeabi_idiv0                                     /usr/local/CodeBench_1802_EABI/bin/../lib/gcc/arm-none-eabi/4.5.2/thumb2/libgcc.a(_dvmd_tls.o)
                                                  /usr/local/CodeBench_1802_EABI/bin/../lib/gcc/arm-none-eabi/4.5.2/thumb2/libgcc.a(_udivsi3.o)
__aeabi_ldiv0                                     /usr/local/CodeBench_1802_EABI/bin/../lib/gcc/arm-none-eabi/4.5.2/thumb2/libgcc.a(_dvmd_tls.o)
                                                  /usr/local/CodeBench_1802_EABI/bin/../lib/gcc/arm-none-eabi/4.5.2/thumb2/libgcc.a(_aeabi_uldivmod.o)
__aeabi_uidiv                                     /usr/local/CodeBench_1802_EABI/bin/../lib/gcc/arm-none-eabi/4.5.2/thumb2/libgcc.a(_udivsi3.o)
                                                  /usr/local/CodeBench_1802_EABI/bin/../lib/gcc/arm-none-eabi/4.5.2/thumb2/libgcc.a(_udivdi3.o)
                                                  /usr/local/CodeBench_1802_EABI/bin/../lib/gcc/arm-none-eabi/4.5.2/thumb2/libgcc.a(_divdi3.o)
__aeabi_uidivmod                                  /usr/local/CodeBench_1802_EABI/bin/../lib/gcc/arm-none-eabi/4.5.2/thumb2/libgcc.a(_udivsi3.o)
                                                  /usr/local/CodeBench_1802_EABI/bin/../lib/gcc/arm-none-eabi/4.5.2/thumb2/libgcc.a(_udivdi3.o)
                                                  /usr/local/CodeBench_1802_EABI/bin/../lib/gcc/arm-none-eabi/4.5.2/thumb2/libgcc.a(_divdi3.o)
__aeabi_uldivmod                                  /usr/local/CodeBench_1802_EABI/bin/../lib/gcc/arm-none-eabi/4.5.2/thumb2/libgcc.a(_aeabi_uldivmod.o)
                                                  /usr/local/CodeBench_1802_EABI/bin/../lib/gcc/arm-none-eabi/4.5.2/../../../../arm-none-eabi/lib/thumb2/libc.a(lib_a-vfiprintf.o)
__ascii_wctomb                                    /usr/local/CodeBench_1802_EABI/bin/../lib/gcc/arm-none-eabi/4.5.2/../../../../arm-none-eabi/lib/thumb2/libc.a(lib_a-wctomb_r.o)
__assert                                          /usr/local/CodeBench_1802_EABI/bin/../lib/gcc/arm-none-eabi/4.5.2/../../../../arm-none-eabi/lib/thumb2/libc.a(lib_a-assert.o)
__assert_func                                     /usr/local/CodeBench_1802_EABI/bin/../lib/gcc/arm-none-eabi/4.5.2/../../../../arm-none-eabi/lib/thumb2/libc.a(lib_a-assert.o)
                                                  build/obj/atmel_twid.o
                                                  build/obj/atmel_twi.o
                                                  build/obj/pmc.o
                                                  build/obj/atmel_adc.o
__divdi3                                          /usr/local/CodeBench_1802_EABI/bin/../lib/gcc/arm-none-eabi/4.5.2/thumb2/libgcc.a(_divdi3.o)
                                                  /usr/local/CodeBench_1802_EABI/bin/../lib/gcc/arm-none-eabi/4.5.2/thumb2/libgcc.a(bpabi.o)
__early_init                                      build/obj/board.o
                                                  build/obj/crt0.o
__fini_array_end                                  build/obj/crt0.o
__fini_array_start                                build/obj/crt0.o
__fp_lock_all                                     /usr/local/CodeBench_1802_EABI/bin/../lib/gcc/arm-none-eabi/4.5.2/../../../../arm-none-eabi/lib/thumb2/libc.a(lib_a-findfp.o)
__fp_unlock_all                                   /usr/local/CodeBench_1802_EABI/bin/../lib/gcc/arm-none-eabi/4.5.2/../../../../arm-none-eabi/lib/thumb2/libc.a(lib_a-findfp.o)
__gnu_ldivmod_helper                              /usr/local/CodeBench_1802_EABI/bin/../lib/gcc/arm-none-eabi/4.5.2/thumb2/libgcc.a(bpabi.o)
__gnu_uldivmod_helper                             /usr/local/CodeBench_1802_EABI/bin/../lib/gcc/arm-none-eabi/4.5.2/thumb2/libgcc.a(bpabi.o)
                                                  /usr/local/CodeBench_1802_EABI/bin/../lib/gcc/arm-none-eabi/4.5.2/thumb2/libgcc.a(_aeabi_uldivmod.o)
__heap_base__                                     build/obj/chmemcore.o
__heap_end__                                      build/obj/chmemcore.o
__init_array_end                                  build/obj/crt0.o
__init_array_start                                build/obj/crt0.o
__late_init                                       build/obj/crt0.o
__locale_charset                                  /usr/local/CodeBench_1802_EABI/bin/../lib/gcc/arm-none-eabi/4.5.2/../../../../arm-none-eabi/lib/thumb2/libc.a(lib_a-locale.o)
                                                  /usr/local/CodeBench_1802_EABI/bin/../lib/gcc/arm-none-eabi/4.5.2/../../../../arm-none-eabi/lib/thumb2/libc.a(lib_a-wctomb_r.o)
                                                  /usr/local/CodeBench_1802_EABI/bin/../lib/gcc/arm-none-eabi/4.5.2/../../../../arm-none-eabi/lib/thumb2/libc.a(lib_a-wcrtomb.o)
__locale_cjk_lang                                 /usr/local/CodeBench_1802_EABI/bin/../lib/gcc/arm-none-eabi/4.5.2/../../../../arm-none-eabi/lib/thumb2/libc.a(lib_a-locale.o)
__locale_mb_cur_max                               /usr/local/CodeBench_1802_EABI/bin/../lib/gcc/arm-none-eabi/4.5.2/../../../../arm-none-eabi/lib/thumb2/libc.a(lib_a-locale.o)
                                                  /usr/local/CodeBench_1802_EABI/bin/../lib/gcc/arm-none-eabi/4.5.2/../../../../arm-none-eabi/lib/thumb2/libc.a(lib_a-fputwc.o)
__locale_msgcharset                               /usr/local/CodeBench_1802_EABI/bin/../lib/gcc/arm-none-eabi/4.5.2/../../../../arm-none-eabi/lib/thumb2/libc.a(lib_a-locale.o)
__main_stack_base__                               build/obj/crt0.o
__main_stack_end__                                build/obj/crt0.o
__malloc_av_                                      /usr/local/CodeBench_1802_EABI/bin/../lib/gcc/arm-none-eabi/4.5.2/../../../../arm-none-eabi/lib/thumb2/libc.a(lib_a-mallocr.o)
                                                  /usr/local/CodeBench_1802_EABI/bin/../lib/gcc/arm-none-eabi/4.5.2/../../../../arm-none-eabi/lib/thumb2/libc.a(lib_a-reallocr.o)
                                                  /usr/local/CodeBench_1802_EABI/bin/../lib/gcc/arm-none-eabi/4.5.2/../../../../arm-none-eabi/lib/thumb2/libc.a(lib_a-freer.o)
__malloc_current_mallinfo                         /usr/local/CodeBench_1802_EABI/bin/../lib/gcc/arm-none-eabi/4.5.2/../../../../arm-none-eabi/lib/thumb2/libc.a(lib_a-mallocr.o)
                                                  /usr/local/CodeBench_1802_EABI/bin/../lib/gcc/arm-none-eabi/4.5.2/../../../../arm-none-eabi/lib/thumb2/libc.a(lib_a-freer.o)
__malloc_lock                                     /usr/local/CodeBench_1802_EABI/bin/../lib/gcc/arm-none-eabi/4.5.2/../../../../arm-none-eabi/lib/thumb2/libc.a(lib_a-mlock.o)
                                                  /usr/local/CodeBench_1802_EABI/bin/../lib/gcc/arm-none-eabi/4.5.2/../../../../arm-none-eabi/lib/thumb2/libc.a(lib_a-reallocr.o)
                                                  /usr/local/CodeBench_1802_EABI/bin/../lib/gcc/arm-none-eabi/4.5.2/../../../../arm-none-eabi/lib/thumb2/libc.a(lib_a-mallocr.o)
                                                  /usr/local/CodeBench_1802_EABI/bin/../lib/gcc/arm-none-eabi/4.5.2/../../../../arm-none-eabi/lib/thumb2/libc.a(lib_a-freer.o)
__malloc_max_sbrked_mem                           /usr/local/CodeBench_1802_EABI/bin/../lib/gcc/arm-none-eabi/4.5.2/../../../../arm-none-eabi/lib/thumb2/libc.a(lib_a-mallocr.o)
__malloc_max_total_mem                            /usr/local/CodeBench_1802_EABI/bin/../lib/gcc/arm-none-eabi/4.5.2/../../../../arm-none-eabi/lib/thumb2/libc.a(lib_a-mallocr.o)
__malloc_sbrk_base                                /usr/local/CodeBench_1802_EABI/bin/../lib/gcc/arm-none-eabi/4.5.2/../../../../arm-none-eabi/lib/thumb2/libc.a(lib_a-mallocr.o)
                                                  /usr/local/CodeBench_1802_EABI/bin/../lib/gcc/arm-none-eabi/4.5.2/../../../../arm-none-eabi/lib/thumb2/libc.a(lib_a-freer.o)
__malloc_top_pad                                  /usr/local/CodeBench_1802_EABI/bin/../lib/gcc/arm-none-eabi/4.5.2/../../../../arm-none-eabi/lib/thumb2/libc.a(lib_a-mallocr.o)
                                                  /usr/local/CodeBench_1802_EABI/bin/../lib/gcc/arm-none-eabi/4.5.2/../../../../arm-none-eabi/lib/thumb2/libc.a(lib_a-freer.o)
__malloc_trim_threshold                           /usr/local/CodeBench_1802_EABI/bin/../lib/gcc/arm-none-eabi/4.5.2/../../../../arm-none-eabi/lib/thumb2/libc.a(lib_a-mallocr.o)
                                                  /usr/local/CodeBench_1802_EABI/bin/../lib/gcc/arm-none-eabi/4.5.2/../../../../arm-none-eabi/lib/thumb2/libc.a(lib_a-freer.o)
__malloc_unlock                                   /usr/local/CodeBench_1802_EABI/bin/../lib/gcc/arm-none-eabi/4.5.2/../../../../arm-none-eabi/lib/thumb2/libc.a(lib_a-mlock.o)
                                                  /usr/local/CodeBench_1802_EABI/bin/../lib/gcc/arm-none-eabi/4.5.2/../../../../arm-none-eabi/lib/thumb2/libc.a(lib_a-reallocr.o)
                                                  /usr/local/CodeBench_1802_EABI/bin/../lib/gcc/arm-none-eabi/4.5.2/../../../../arm-none-eabi/lib/thumb2/libc.a(lib_a-mallocr.o)
                                                  /usr/local/CodeBench_1802_EABI/bin/../lib/gcc/arm-none-eabi/4.5.2/../../../../arm-none-eabi/lib/thumb2/libc.a(lib_a-freer.o)
__mb_cur_max                                      /usr/local/CodeBench_1802_EABI/bin/../lib/gcc/arm-none-eabi/4.5.2/../../../../arm-none-eabi/lib/thumb2/libc.a(lib_a-locale.o)
__mlocale_changed                                 /usr/local/CodeBench_1802_EABI/bin/../lib/gcc/arm-none-eabi/4.5.2/../../../../arm-none-eabi/lib/thumb2/libc.a(lib_a-locale.o)
__nlocale_changed                                 /usr/local/CodeBench_1802_EABI/bin/../lib/gcc/arm-none-eabi/4.5.2/../../../../arm-none-eabi/lib/thumb2/libc.a(lib_a-locale.o)
__process_stack_base__                            build/obj/crt0.o
__process_stack_end__                             build/obj/crt0.o
__ram_end__                                       build/obj/vectors.o
__sclose                                          /usr/local/CodeBench_1802_EABI/bin/../lib/gcc/arm-none-eabi/4.5.2/../../../../arm-none-eabi/lib/thumb2/libc.a(lib_a-stdio.o)
                                                  /usr/local/CodeBench_1802_EABI/bin/../lib/gcc/arm-none-eabi/4.5.2/../../../../arm-none-eabi/lib/thumb2/libc.a(lib_a-findfp.o)
__seofread                                        /usr/local/CodeBench_1802_EABI/bin/../lib/gcc/arm-none-eabi/4.5.2/../../../../arm-none-eabi/lib/thumb2/libc.a(lib_a-stdio.o)
__sf_fake_stderr                                  /usr/local/CodeBench_1802_EABI/bin/../lib/gcc/arm-none-eabi/4.5.2/../../../../arm-none-eabi/lib/thumb2/libc.a(lib_a-findfp.o)
                                                  /usr/local/CodeBench_1802_EABI/bin/../lib/gcc/arm-none-eabi/4.5.2/../../../../arm-none-eabi/lib/thumb2/libc.a(lib_a-fclose.o)
                                                  /usr/local/CodeBench_1802_EABI/bin/../lib/gcc/arm-none-eabi/4.5.2/../../../../arm-none-eabi/lib/thumb2/libc.a(lib_a-wbuf.o)
                                                  /usr/local/CodeBench_1802_EABI/bin/../lib/gcc/arm-none-eabi/4.5.2/../../../../arm-none-eabi/lib/thumb2/libc.a(lib_a-fputwc.o)
                                                  /usr/local/CodeBench_1802_EABI/bin/../lib/gcc/arm-none-eabi/4.5.2/../../../../arm-none-eabi/lib/thumb2/libc.a(lib_a-fflush.o)
                                                  /usr/local/CodeBench_1802_EABI/bin/../lib/gcc/arm-none-eabi/4.5.2/../../../../arm-none-eabi/lib/thumb2/libc.a(lib_a-wsetup.o)
                                                  /usr/local/CodeBench_1802_EABI/bin/../lib/gcc/arm-none-eabi/4.5.2/../../../../arm-none-eabi/lib/thumb2/libc.a(lib_a-vfiprintf.o)
                                                  /usr/local/CodeBench_1802_EABI/bin/../lib/gcc/arm-none-eabi/4.5.2/../../../../arm-none-eabi/lib/thumb2/libc.a(lib_a-impure.o)
__sf_fake_stdin                                   /usr/local/CodeBench_1802_EABI/bin/../lib/gcc/arm-none-eabi/4.5.2/../../../../arm-none-eabi/lib/thumb2/libc.a(lib_a-findfp.o)
                                                  /usr/local/CodeBench_1802_EABI/bin/../lib/gcc/arm-none-eabi/4.5.2/../../../../arm-none-eabi/lib/thumb2/libc.a(lib_a-fclose.o)
                                                  /usr/local/CodeBench_1802_EABI/bin/../lib/gcc/arm-none-eabi/4.5.2/../../../../arm-none-eabi/lib/thumb2/libc.a(lib_a-wbuf.o)
                                                  /usr/local/CodeBench_1802_EABI/bin/../lib/gcc/arm-none-eabi/4.5.2/../../../../arm-none-eabi/lib/thumb2/libc.a(lib_a-fputwc.o)
                                                  /usr/local/CodeBench_1802_EABI/bin/../lib/gcc/arm-none-eabi/4.5.2/../../../../arm-none-eabi/lib/thumb2/libc.a(lib_a-fflush.o)
                                                  /usr/local/CodeBench_1802_EABI/bin/../lib/gcc/arm-none-eabi/4.5.2/../../../../arm-none-eabi/lib/thumb2/libc.a(lib_a-wsetup.o)
                                                  /usr/local/CodeBench_1802_EABI/bin/../lib/gcc/arm-none-eabi/4.5.2/../../../../arm-none-eabi/lib/thumb2/libc.a(lib_a-vfiprintf.o)
                                                  /usr/local/CodeBench_1802_EABI/bin/../lib/gcc/arm-none-eabi/4.5.2/../../../../arm-none-eabi/lib/thumb2/libc.a(lib_a-impure.o)
__sf_fake_stdout                                  /usr/local/CodeBench_1802_EABI/bin/../lib/gcc/arm-none-eabi/4.5.2/../../../../arm-none-eabi/lib/thumb2/libc.a(lib_a-findfp.o)
                                                  /usr/local/CodeBench_1802_EABI/bin/../lib/gcc/arm-none-eabi/4.5.2/../../../../arm-none-eabi/lib/thumb2/libc.a(lib_a-fclose.o)
                                                  /usr/local/CodeBench_1802_EABI/bin/../lib/gcc/arm-none-eabi/4.5.2/../../../../arm-none-eabi/lib/thumb2/libc.a(lib_a-wbuf.o)
                                                  /usr/local/CodeBench_1802_EABI/bin/../lib/gcc/arm-none-eabi/4.5.2/../../../../arm-none-eabi/lib/thumb2/libc.a(lib_a-fputwc.o)
                                                  /usr/local/CodeBench_1802_EABI/bin/../lib/gcc/arm-none-eabi/4.5.2/../../../../arm-none-eabi/lib/thumb2/libc.a(lib_a-fflush.o)
                                                  /usr/local/CodeBench_1802_EABI/bin/../lib/gcc/arm-none-eabi/4.5.2/../../../../arm-none-eabi/lib/thumb2/libc.a(lib_a-wsetup.o)
                                                  /usr/local/CodeBench_1802_EABI/bin/../lib/gcc/arm-none-eabi/4.5.2/../../../../arm-none-eabi/lib/thumb2/libc.a(lib_a-vfiprintf.o)
                                                  /usr/local/CodeBench_1802_EABI/bin/../lib/gcc/arm-none-eabi/4.5.2/../../../../arm-none-eabi/lib/thumb2/libc.a(lib_a-impure.o)
__sfmoreglue                                      /usr/local/CodeBench_1802_EABI/bin/../lib/gcc/arm-none-eabi/4.5.2/../../../../arm-none-eabi/lib/thumb2/libc.a(lib_a-findfp.o)
__sfp                                             /usr/local/CodeBench_1802_EABI/bin/../lib/gcc/arm-none-eabi/4.5.2/../../../../arm-none-eabi/lib/thumb2/libc.a(lib_a-findfp.o)
__sfp_lock_acquire                                /usr/local/CodeBench_1802_EABI/bin/../lib/gcc/arm-none-eabi/4.5.2/../../../../arm-none-eabi/lib/thumb2/libc.a(lib_a-findfp.o)
                                                  /usr/local/CodeBench_1802_EABI/bin/../lib/gcc/arm-none-eabi/4.5.2/../../../../arm-none-eabi/lib/thumb2/libc.a(lib_a-fclose.o)
                                                  /usr/local/CodeBench_1802_EABI/bin/../lib/gcc/arm-none-eabi/4.5.2/../../../../arm-none-eabi/lib/thumb2/libc.a(lib_a-fwalk.o)
__sfp_lock_release                                /usr/local/CodeBench_1802_EABI/bin/../lib/gcc/arm-none-eabi/4.5.2/../../../../arm-none-eabi/lib/thumb2/libc.a(lib_a-findfp.o)
                                                  /usr/local/CodeBench_1802_EABI/bin/../lib/gcc/arm-none-eabi/4.5.2/../../../../arm-none-eabi/lib/thumb2/libc.a(lib_a-fclose.o)
                                                  /usr/local/CodeBench_1802_EABI/bin/../lib/gcc/arm-none-eabi/4.5.2/../../../../arm-none-eabi/lib/thumb2/libc.a(lib_a-fwalk.o)
__sfvwrite_r                                      /usr/local/CodeBench_1802_EABI/bin/../lib/gcc/arm-none-eabi/4.5.2/../../../../arm-none-eabi/lib/thumb2/libc.a(lib_a-fvwrite.o)
                                                  /usr/local/CodeBench_1802_EABI/bin/../lib/gcc/arm-none-eabi/4.5.2/../../../../arm-none-eabi/lib/thumb2/libc.a(lib_a-vfiprintf.o)
__sigtramp                                        /usr/local/CodeBench_1802_EABI/bin/../lib/gcc/arm-none-eabi/4.5.2/../../../../arm-none-eabi/lib/thumb2/libc.a(lib_a-signal.o)
__sigtramp_r                                      /usr/local/CodeBench_1802_EABI/bin/../lib/gcc/arm-none-eabi/4.5.2/../../../../arm-none-eabi/lib/thumb2/libc.a(lib_a-signal.o)
__sinit                                           /usr/local/CodeBench_1802_EABI/bin/../lib/gcc/arm-none-eabi/4.5.2/../../../../arm-none-eabi/lib/thumb2/libc.a(lib_a-findfp.o)
                                                  /usr/local/CodeBench_1802_EABI/bin/../lib/gcc/arm-none-eabi/4.5.2/../../../../arm-none-eabi/lib/thumb2/libc.a(lib_a-fclose.o)
                                                  /usr/local/CodeBench_1802_EABI/bin/../lib/gcc/arm-none-eabi/4.5.2/../../../../arm-none-eabi/lib/thumb2/libc.a(lib_a-wbuf.o)
                                                  /usr/local/CodeBench_1802_EABI/bin/../lib/gcc/arm-none-eabi/4.5.2/../../../../arm-none-eabi/lib/thumb2/libc.a(lib_a-fputwc.o)
                                                  /usr/local/CodeBench_1802_EABI/bin/../lib/gcc/arm-none-eabi/4.5.2/../../../../arm-none-eabi/lib/thumb2/libc.a(lib_a-fflush.o)
                                                  /usr/local/CodeBench_1802_EABI/bin/../lib/gcc/arm-none-eabi/4.5.2/../../../../arm-none-eabi/lib/thumb2/libc.a(lib_a-wsetup.o)
                                                  /usr/local/CodeBench_1802_EABI/bin/../lib/gcc/arm-none-eabi/4.5.2/../../../../arm-none-eabi/lib/thumb2/libc.a(lib_a-vfiprintf.o)
__sinit_lock_acquire                              /usr/local/CodeBench_1802_EABI/bin/../lib/gcc/arm-none-eabi/4.5.2/../../../../arm-none-eabi/lib/thumb2/libc.a(lib_a-findfp.o)
__sinit_lock_release                              /usr/local/CodeBench_1802_EABI/bin/../lib/gcc/arm-none-eabi/4.5.2/../../../../arm-none-eabi/lib/thumb2/libc.a(lib_a-findfp.o)
__smakebuf_r                                      /usr/local/CodeBench_1802_EABI/bin/../lib/gcc/arm-none-eabi/4.5.2/../../../../arm-none-eabi/lib/thumb2/libc.a(lib_a-makebuf.o)
                                                  /usr/local/CodeBench_1802_EABI/bin/../lib/gcc/arm-none-eabi/4.5.2/../../../../arm-none-eabi/lib/thumb2/libc.a(lib_a-wsetup.o)
__sprint_r                                        /usr/local/CodeBench_1802_EABI/bin/../lib/gcc/arm-none-eabi/4.5.2/../../../../arm-none-eabi/lib/thumb2/libc.a(lib_a-vfiprintf.o)
__sread                                           /usr/local/CodeBench_1802_EABI/bin/../lib/gcc/arm-none-eabi/4.5.2/../../../../arm-none-eabi/lib/thumb2/libc.a(lib_a-stdio.o)
                                                  /usr/local/CodeBench_1802_EABI/bin/../lib/gcc/arm-none-eabi/4.5.2/../../../../arm-none-eabi/lib/thumb2/libc.a(lib_a-findfp.o)
__sseek                                           /usr/local/CodeBench_1802_EABI/bin/../lib/gcc/arm-none-eabi/4.5.2/../../../../arm-none-eabi/lib/thumb2/libc.a(lib_a-stdio.o)
                                                  /usr/local/CodeBench_1802_EABI/bin/../lib/gcc/arm-none-eabi/4.5.2/../../../../arm-none-eabi/lib/thumb2/libc.a(lib_a-makebuf.o)
                                                  /usr/local/CodeBench_1802_EABI/bin/../lib/gcc/arm-none-eabi/4.5.2/../../../../arm-none-eabi/lib/thumb2/libc.a(lib_a-findfp.o)
__swbuf                                           /usr/local/CodeBench_1802_EABI/bin/../lib/gcc/arm-none-eabi/4.5.2/../../../../arm-none-eabi/lib/thumb2/libc.a(lib_a-wbuf.o)
__swbuf_r                                         /usr/local/CodeBench_1802_EABI/bin/../lib/gcc/arm-none-eabi/4.5.2/../../../../arm-none-eabi/lib/thumb2/libc.a(lib_a-wbuf.o)
                                                  /usr/local/CodeBench_1802_EABI/bin/../lib/gcc/arm-none-eabi/4.5.2/../../../../arm-none-eabi/lib/thumb2/libc.a(lib_a-fputwc.o)
__swrite                                          /usr/local/CodeBench_1802_EABI/bin/../lib/gcc/arm-none-eabi/4.5.2/../../../../arm-none-eabi/lib/thumb2/libc.a(lib_a-stdio.o)
                                                  /usr/local/CodeBench_1802_EABI/bin/../lib/gcc/arm-none-eabi/4.5.2/../../../../arm-none-eabi/lib/thumb2/libc.a(lib_a-findfp.o)
__swsetup_r                                       /usr/local/CodeBench_1802_EABI/bin/../lib/gcc/arm-none-eabi/4.5.2/../../../../arm-none-eabi/lib/thumb2/libc.a(lib_a-wsetup.o)
                                                  /usr/local/CodeBench_1802_EABI/bin/../lib/gcc/arm-none-eabi/4.5.2/../../../../arm-none-eabi/lib/thumb2/libc.a(lib_a-wbuf.o)
                                                  /usr/local/CodeBench_1802_EABI/bin/../lib/gcc/arm-none-eabi/4.5.2/../../../../arm-none-eabi/lib/thumb2/libc.a(lib_a-fvwrite.o)
                                                  /usr/local/CodeBench_1802_EABI/bin/../lib/gcc/arm-none-eabi/4.5.2/../../../../arm-none-eabi/lib/thumb2/libc.a(lib_a-vfiprintf.o)
__udivdi3                                         /usr/local/CodeBench_1802_EABI/bin/../lib/gcc/arm-none-eabi/4.5.2/thumb2/libgcc.a(_udivdi3.o)
                                                  /usr/local/CodeBench_1802_EABI/bin/../lib/gcc/arm-none-eabi/4.5.2/thumb2/libgcc.a(bpabi.o)
__udivsi3                                         /usr/local/CodeBench_1802_EABI/bin/../lib/gcc/arm-none-eabi/4.5.2/thumb2/libgcc.a(_udivsi3.o)
__wctomb                                          /usr/local/CodeBench_1802_EABI/bin/../lib/gcc/arm-none-eabi/4.5.2/../../../../arm-none-eabi/lib/thumb2/libc.a(lib_a-wctomb_r.o)
                                                  /usr/local/CodeBench_1802_EABI/bin/../lib/gcc/arm-none-eabi/4.5.2/../../../../arm-none-eabi/lib/thumb2/libc.a(lib_a-wcrtomb.o)
_bss_end                                          build/obj/crt0.o
_bss_start                                        build/obj/crt0.o
_cleanup                                          /usr/local/CodeBench_1802_EABI/bin/../lib/gcc/arm-none-eabi/4.5.2/../../../../arm-none-eabi/lib/thumb2/libc.a(lib_a-findfp.o)
_cleanup_r                                        /usr/local/CodeBench_1802_EABI/bin/../lib/gcc/arm-none-eabi/4.5.2/../../../../arm-none-eabi/lib/thumb2/libc.a(lib_a-findfp.o)
                                                  /usr/local/CodeBench_1802_EABI/bin/../lib/gcc/arm-none-eabi/4.5.2/../../../../arm-none-eabi/lib/thumb2/libc.a(lib_a-makebuf.o)
_close_r                                          build/obj/syscalls.o
                                                  /usr/local/CodeBench_1802_EABI/bin/../lib/gcc/arm-none-eabi/4.5.2/../../../../arm-none-eabi/lib/thumb2/libc.a(lib_a-stdio.o)
_core_init                                        build/obj/chmemcore.o
                                                  build/obj/chsys.o
_data                                             build/obj/crt0.o
_default_exit                                     build/obj/crt0.o
_edata                                            build/obj/crt0.o
_exit                                             build/obj/syscalls.o
                                                  /usr/local/CodeBench_1802_EABI/bin/../lib/gcc/arm-none-eabi/4.5.2/../../../../arm-none-eabi/lib/thumb2/libc.a(lib_a-abort.o)
_fclose_r                                         /usr/local/CodeBench_1802_EABI/bin/../lib/gcc/arm-none-eabi/4.5.2/../../../../arm-none-eabi/lib/thumb2/libc.a(lib_a-fclose.o)
_fflush_r                                         /usr/local/CodeBench_1802_EABI/bin/../lib/gcc/arm-none-eabi/4.5.2/../../../../arm-none-eabi/lib/thumb2/libc.a(lib_a-fflush.o)
                                                  /usr/local/CodeBench_1802_EABI/bin/../lib/gcc/arm-none-eabi/4.5.2/../../../../arm-none-eabi/lib/thumb2/libc.a(lib_a-fclose.o)
                                                  /usr/local/CodeBench_1802_EABI/bin/../lib/gcc/arm-none-eabi/4.5.2/../../../../arm-none-eabi/lib/thumb2/libc.a(lib_a-wbuf.o)
                                                  /usr/local/CodeBench_1802_EABI/bin/../lib/gcc/arm-none-eabi/4.5.2/../../../../arm-none-eabi/lib/thumb2/libc.a(lib_a-fvwrite.o)
                                                  /usr/local/CodeBench_1802_EABI/bin/../lib/gcc/arm-none-eabi/4.5.2/../../../../arm-none-eabi/lib/thumb2/libc.a(lib_a-vfiprintf.o)
_fiprintf_r                                       /usr/local/CodeBench_1802_EABI/bin/../lib/gcc/arm-none-eabi/4.5.2/../../../../arm-none-eabi/lib/thumb2/libc.a(lib_a-fiprintf.o)
_fputwc_r                                         /usr/local/CodeBench_1802_EABI/bin/../lib/gcc/arm-none-eabi/4.5.2/../../../../arm-none-eabi/lib/thumb2/libc.a(lib_a-fputwc.o)
                                                  /usr/local/CodeBench_1802_EABI/bin/../lib/gcc/arm-none-eabi/4.5.2/../../../../arm-none-eabi/lib/thumb2/libc.a(lib_a-vfiprintf.o)
_free_r                                           /usr/local/CodeBench_1802_EABI/bin/../lib/gcc/arm-none-eabi/4.5.2/../../../../arm-none-eabi/lib/thumb2/libc.a(lib_a-freer.o)
                                                  /usr/local/CodeBench_1802_EABI/bin/../lib/gcc/arm-none-eabi/4.5.2/../../../../arm-none-eabi/lib/thumb2/libc.a(lib_a-reent.o)
                                                  /usr/local/CodeBench_1802_EABI/bin/../lib/gcc/arm-none-eabi/4.5.2/../../../../arm-none-eabi/lib/thumb2/libc.a(lib_a-fclose.o)
                                                  /usr/local/CodeBench_1802_EABI/bin/../lib/gcc/arm-none-eabi/4.5.2/../../../../arm-none-eabi/lib/thumb2/libc.a(lib_a-reallocr.o)
                                                  /usr/local/CodeBench_1802_EABI/bin/../lib/gcc/arm-none-eabi/4.5.2/../../../../arm-none-eabi/lib/thumb2/libc.a(lib_a-mallocr.o)
                                                  /usr/local/CodeBench_1802_EABI/bin/../lib/gcc/arm-none-eabi/4.5.2/../../../../arm-none-eabi/lib/thumb2/libc.a(lib_a-fvwrite.o)
                                                  /usr/local/CodeBench_1802_EABI/bin/../lib/gcc/arm-none-eabi/4.5.2/../../../../arm-none-eabi/lib/thumb2/libc.a(lib_a-fflush.o)
                                                  /usr/local/CodeBench_1802_EABI/bin/../lib/gcc/arm-none-eabi/4.5.2/../../../../arm-none-eabi/lib/thumb2/libc.a(lib_a-wsetup.o)
_fstat_r                                          build/obj/syscalls.o
                                                  /usr/local/CodeBench_1802_EABI/bin/../lib/gcc/arm-none-eabi/4.5.2/../../../../arm-none-eabi/lib/thumb2/libc.a(lib_a-makebuf.o)
_fwalk                                            /usr/local/CodeBench_1802_EABI/bin/../lib/gcc/arm-none-eabi/4.5.2/../../../../arm-none-eabi/lib/thumb2/libc.a(lib_a-fwalk.o)
                                                  /usr/local/CodeBench_1802_EABI/bin/../lib/gcc/arm-none-eabi/4.5.2/../../../../arm-none-eabi/lib/thumb2/libc.a(lib_a-findfp.o)
_fwalk_reent                                      /usr/local/CodeBench_1802_EABI/bin/../lib/gcc/arm-none-eabi/4.5.2/../../../../arm-none-eabi/lib/thumb2/libc.a(lib_a-fwalk.o)
                                                  /usr/local/CodeBench_1802_EABI/bin/../lib/gcc/arm-none-eabi/4.5.2/../../../../arm-none-eabi/lib/thumb2/libc.a(lib_a-fflush.o)
_getpid                                           build/obj/syscalls.o
                                                  /usr/local/CodeBench_1802_EABI/bin/../lib/gcc/arm-none-eabi/4.5.2/../../../../arm-none-eabi/lib/thumb2/libc.a(lib_a-signalr.o)
_getpid_r                                         /usr/local/CodeBench_1802_EABI/bin/../lib/gcc/arm-none-eabi/4.5.2/../../../../arm-none-eabi/lib/thumb2/libc.a(lib_a-signalr.o)
                                                  /usr/local/CodeBench_1802_EABI/bin/../lib/gcc/arm-none-eabi/4.5.2/../../../../arm-none-eabi/lib/thumb2/libc.a(lib_a-signal.o)
_global_impure_ptr                                /usr/local/CodeBench_1802_EABI/bin/../lib/gcc/arm-none-eabi/4.5.2/../../../../arm-none-eabi/lib/thumb2/libc.a(lib_a-impure.o)
                                                  /usr/local/CodeBench_1802_EABI/bin/../lib/gcc/arm-none-eabi/4.5.2/../../../../arm-none-eabi/lib/thumb2/libc.a(lib_a-findfp.o)
                                                  /usr/local/CodeBench_1802_EABI/bin/../lib/gcc/arm-none-eabi/4.5.2/../../../../arm-none-eabi/lib/thumb2/libc.a(lib_a-fflush.o)
_heap_init                                        build/obj/chheap.o
                                                  build/obj/chsys.o
_idle_thread                                      build/obj/chsys.o
_idle_thread_wa                                   build/obj/chsys.o
_impure_ptr                                       /usr/local/CodeBench_1802_EABI/bin/../lib/gcc/arm-none-eabi/4.5.2/../../../../arm-none-eabi/lib/thumb2/libc.a(lib_a-impure.o)
                                                  /usr/local/CodeBench_1802_EABI/bin/../lib/gcc/arm-none-eabi/4.5.2/../../../../arm-none-eabi/lib/thumb2/libc.a(lib_a-reent.o)
                                                  /usr/local/CodeBench_1802_EABI/bin/../lib/gcc/arm-none-eabi/4.5.2/../../../../arm-none-eabi/lib/thumb2/libc.a(lib_a-fclose.o)
                                                  /usr/local/CodeBench_1802_EABI/bin/../lib/gcc/arm-none-eabi/4.5.2/../../../../arm-none-eabi/lib/thumb2/libc.a(lib_a-wcrtomb.o)
                                                  /usr/local/CodeBench_1802_EABI/bin/../lib/gcc/arm-none-eabi/4.5.2/../../../../arm-none-eabi/lib/thumb2/libc.a(lib_a-wbuf.o)
                                                  /usr/local/CodeBench_1802_EABI/bin/../lib/gcc/arm-none-eabi/4.5.2/../../../../arm-none-eabi/lib/thumb2/libc.a(lib_a-signal.o)
                                                  /usr/local/CodeBench_1802_EABI/bin/../lib/gcc/arm-none-eabi/4.5.2/../../../../arm-none-eabi/lib/thumb2/libc.a(lib_a-locale.o)
                                                  /usr/local/CodeBench_1802_EABI/bin/../lib/gcc/arm-none-eabi/4.5.2/../../../../arm-none-eabi/lib/thumb2/libc.a(lib_a-fputwc.o)
                                                  /usr/local/CodeBench_1802_EABI/bin/../lib/gcc/arm-none-eabi/4.5.2/../../../../arm-none-eabi/lib/thumb2/libc.a(lib_a-findfp.o)
                                                  /usr/local/CodeBench_1802_EABI/bin/../lib/gcc/arm-none-eabi/4.5.2/../../../../arm-none-eabi/lib/thumb2/libc.a(lib_a-fflush.o)
                                                  /usr/local/CodeBench_1802_EABI/bin/../lib/gcc/arm-none-eabi/4.5.2/../../../../arm-none-eabi/lib/thumb2/libc.a(lib_a-wsetup.o)
                                                  /usr/local/CodeBench_1802_EABI/bin/../lib/gcc/arm-none-eabi/4.5.2/../../../../arm-none-eabi/lib/thumb2/libc.a(lib_a-vfiprintf.o)
                                                  /usr/local/CodeBench_1802_EABI/bin/../lib/gcc/arm-none-eabi/4.5.2/../../../../arm-none-eabi/lib/thumb2/libc.a(lib_a-fiprintf.o)
                                                  /usr/local/CodeBench_1802_EABI/bin/../lib/gcc/arm-none-eabi/4.5.2/../../../../arm-none-eabi/lib/thumb2/libc.a(lib_a-assert.o)
_init_signal                                      /usr/local/CodeBench_1802_EABI/bin/../lib/gcc/arm-none-eabi/4.5.2/../../../../arm-none-eabi/lib/thumb2/libc.a(lib_a-signal.o)
_init_signal_r                                    /usr/local/CodeBench_1802_EABI/bin/../lib/gcc/arm-none-eabi/4.5.2/../../../../arm-none-eabi/lib/thumb2/libc.a(lib_a-signal.o)
_isatty_r                                         build/obj/syscalls.o
                                                  /usr/local/CodeBench_1802_EABI/bin/../lib/gcc/arm-none-eabi/4.5.2/../../../../arm-none-eabi/lib/thumb2/libc.a(lib_a-makebuf.o)
_kill                                             build/obj/syscalls.o
                                                  /usr/local/CodeBench_1802_EABI/bin/../lib/gcc/arm-none-eabi/4.5.2/../../../../arm-none-eabi/lib/thumb2/libc.a(lib_a-signalr.o)
_kill_r                                           /usr/local/CodeBench_1802_EABI/bin/../lib/gcc/arm-none-eabi/4.5.2/../../../../arm-none-eabi/lib/thumb2/libc.a(lib_a-signalr.o)
                                                  /usr/local/CodeBench_1802_EABI/bin/../lib/gcc/arm-none-eabi/4.5.2/../../../../arm-none-eabi/lib/thumb2/libc.a(lib_a-signal.o)
_localeconv_r                                     /usr/local/CodeBench_1802_EABI/bin/../lib/gcc/arm-none-eabi/4.5.2/../../../../arm-none-eabi/lib/thumb2/libc.a(lib_a-locale.o)
_lseek_r                                          build/obj/syscalls.o
                                                  /usr/local/CodeBench_1802_EABI/bin/../lib/gcc/arm-none-eabi/4.5.2/../../../../arm-none-eabi/lib/thumb2/libc.a(lib_a-stdio.o)
_malloc_r                                         /usr/local/CodeBench_1802_EABI/bin/../lib/gcc/arm-none-eabi/4.5.2/../../../../arm-none-eabi/lib/thumb2/libc.a(lib_a-mallocr.o)
                                                  /usr/local/CodeBench_1802_EABI/bin/../lib/gcc/arm-none-eabi/4.5.2/../../../../arm-none-eabi/lib/thumb2/libc.a(lib_a-signal.o)
                                                  /usr/local/CodeBench_1802_EABI/bin/../lib/gcc/arm-none-eabi/4.5.2/../../../../arm-none-eabi/lib/thumb2/libc.a(lib_a-reallocr.o)
                                                  /usr/local/CodeBench_1802_EABI/bin/../lib/gcc/arm-none-eabi/4.5.2/../../../../arm-none-eabi/lib/thumb2/libc.a(lib_a-makebuf.o)
                                                  /usr/local/CodeBench_1802_EABI/bin/../lib/gcc/arm-none-eabi/4.5.2/../../../../arm-none-eabi/lib/thumb2/libc.a(lib_a-fvwrite.o)
                                                  /usr/local/CodeBench_1802_EABI/bin/../lib/gcc/arm-none-eabi/4.5.2/../../../../arm-none-eabi/lib/thumb2/libc.a(lib_a-findfp.o)
_malloc_trim_r                                    /usr/local/CodeBench_1802_EABI/bin/../lib/gcc/arm-none-eabi/4.5.2/../../../../arm-none-eabi/lib/thumb2/libc.a(lib_a-freer.o)
_pal_lld_init                                     build/obj/pal_lld.o
                                                  build/obj/hal.o
_pal_lld_setgroupmode                             build/obj/pal_lld.o
                                                  build/obj/board.o
                                                  build/obj/pal.o
_port_init                                        build/obj/chcore_v7m.o
                                                  build/obj/chsys.o
_port_irq_epilogue                                build/obj/chcore_v7m.o
                                                  build/obj/serial_lld.o
_port_switch                                      build/obj/chcore_v7m.o
                                                  build/obj/chschd.o
_port_switch_from_isr                             build/obj/chcore_v7m.o
_port_thread_start                                build/obj/chcore_v7m.o
                                                  build/obj/chthreads.o
_raise_r                                          /usr/local/CodeBench_1802_EABI/bin/../lib/gcc/arm-none-eabi/4.5.2/../../../../arm-none-eabi/lib/thumb2/libc.a(lib_a-signal.o)
_read_r                                           build/obj/syscalls.o
                                                  /usr/local/CodeBench_1802_EABI/bin/../lib/gcc/arm-none-eabi/4.5.2/../../../../arm-none-eabi/lib/thumb2/libc.a(lib_a-stdio.o)
_realloc_r                                        /usr/local/CodeBench_1802_EABI/bin/../lib/gcc/arm-none-eabi/4.5.2/../../../../arm-none-eabi/lib/thumb2/libc.a(lib_a-reallocr.o)
                                                  /usr/local/CodeBench_1802_EABI/bin/../lib/gcc/arm-none-eabi/4.5.2/../../../../arm-none-eabi/lib/thumb2/libc.a(lib_a-fvwrite.o)
_reclaim_reent                                    /usr/local/CodeBench_1802_EABI/bin/../lib/gcc/arm-none-eabi/4.5.2/../../../../arm-none-eabi/lib/thumb2/libc.a(lib_a-reent.o)
_sbrk_r                                           build/obj/syscalls.o
                                                  /usr/local/CodeBench_1802_EABI/bin/../lib/gcc/arm-none-eabi/4.5.2/../../../../arm-none-eabi/lib/thumb2/libc.a(lib_a-mallocr.o)
                                                  /usr/local/CodeBench_1802_EABI/bin/../lib/gcc/arm-none-eabi/4.5.2/../../../../arm-none-eabi/lib/thumb2/libc.a(lib_a-freer.o)
_scheduler_init                                   build/obj/chschd.o
                                                  build/obj/chsys.o
_setlocale_r                                      /usr/local/CodeBench_1802_EABI/bin/../lib/gcc/arm-none-eabi/4.5.2/../../../../arm-none-eabi/lib/thumb2/libc.a(lib_a-locale.o)
_signal_r                                         /usr/local/CodeBench_1802_EABI/bin/../lib/gcc/arm-none-eabi/4.5.2/../../../../arm-none-eabi/lib/thumb2/libc.a(lib_a-signal.o)
_test_assert                                      build/obj/test.o
                                                  build/obj/testqueues.o
                                                  build/obj/testdyn.o
                                                  build/obj/testpools.o
                                                  build/obj/testheap.o
                                                  build/obj/testevt.o
                                                  build/obj/testmbox.o
                                                  build/obj/testmtx.o
                                                  build/obj/testsem.o
                                                  build/obj/testthd.o
_test_assert_sequence                             build/obj/test.o
                                                  build/obj/testqueues.o
                                                  build/obj/testdyn.o
                                                  build/obj/testevt.o
                                                  build/obj/testmbox.o
                                                  build/obj/testmsg.o
                                                  build/obj/testmtx.o
                                                  build/obj/testsem.o
                                                  build/obj/testthd.o
_test_assert_time_window                          build/obj/test.o
                                                  build/obj/testevt.o
                                                  build/obj/testmtx.o
                                                  build/obj/testsem.o
                                                  build/obj/testthd.o
_test_fail                                        build/obj/test.o
_textdata                                         build/obj/crt0.o
_thread_init                                      build/obj/chthreads.o
                                                  build/obj/chsys.o
_unhandled_exception                              build/obj/vectors.o
_vectors                                          build/obj/vectors.o
_vfiprintf_r                                      /usr/local/CodeBench_1802_EABI/bin/../lib/gcc/arm-none-eabi/4.5.2/../../../../arm-none-eabi/lib/thumb2/libc.a(lib_a-vfiprintf.o)
                                                  /usr/local/CodeBench_1802_EABI/bin/../lib/gcc/arm-none-eabi/4.5.2/../../../../arm-none-eabi/lib/thumb2/libc.a(lib_a-fiprintf.o)
_vt_init                                          build/obj/chvt.o
                                                  build/obj/chsys.o
_wcrtomb_r                                        /usr/local/CodeBench_1802_EABI/bin/../lib/gcc/arm-none-eabi/4.5.2/../../../../arm-none-eabi/lib/thumb2/libc.a(lib_a-wcrtomb.o)
                                                  /usr/local/CodeBench_1802_EABI/bin/../lib/gcc/arm-none-eabi/4.5.2/../../../../arm-none-eabi/lib/thumb2/libc.a(lib_a-fputwc.o)
_wctomb_r                                         /usr/local/CodeBench_1802_EABI/bin/../lib/gcc/arm-none-eabi/4.5.2/../../../../arm-none-eabi/lib/thumb2/libc.a(lib_a-wctomb_r.o)
_wrapup_reent                                     /usr/local/CodeBench_1802_EABI/bin/../lib/gcc/arm-none-eabi/4.5.2/../../../../arm-none-eabi/lib/thumb2/libc.a(lib_a-reent.o)
_write_r                                          build/obj/syscalls.o
                                                  /usr/local/CodeBench_1802_EABI/bin/../lib/gcc/arm-none-eabi/4.5.2/../../../../arm-none-eabi/lib/thumb2/libc.a(lib_a-stdio.o)
abort                                             /usr/local/CodeBench_1802_EABI/bin/../lib/gcc/arm-none-eabi/4.5.2/../../../../arm-none-eabi/lib/thumb2/libc.a(lib_a-abort.o)
                                                  /usr/local/CodeBench_1802_EABI/bin/../lib/gcc/arm-none-eabi/4.5.2/../../../../arm-none-eabi/lib/thumb2/libc.a(lib_a-assert.o)
at91sam3_clock_init                               build/obj/hal_lld.o
                                                  build/obj/board.o
boardInit                                         build/obj/board.o
                                                  build/obj/hal.o
chCondBroadcast                                   build/obj/chcond.o
                                                  build/obj/testmtx.o
chCondBroadcastI                                  build/obj/chcond.o
chCondInit                                        build/obj/chcond.o
                                                  build/obj/testmtx.o
chCondSignal                                      build/obj/chcond.o
                                                  build/obj/testmtx.o
chCondSignalI                                     build/obj/chcond.o
                                                  build/obj/testmtx.o
chCondWait                                        build/obj/chcond.o
                                                  build/obj/testmtx.o
chCondWaitS                                       build/obj/chcond.o
chCondWaitTimeout                                 build/obj/chcond.o
                                                  build/obj/testmtx.o
chCondWaitTimeoutS                                build/obj/chcond.o
chCoreAlloc                                       build/obj/chmemcore.o
                                                  build/obj/syscalls.o
                                                  build/obj/chheap.o
chCoreAllocI                                      build/obj/chmemcore.o
chCoreStatus                                      build/obj/chmemcore.o
                                                  build/obj/testheap.o
chEvtAddFlags                                     build/obj/chevents.o
                                                  build/obj/testevt.o
chEvtBroadcastFlags                               build/obj/chevents.o
                                                  build/obj/testevt.o
chEvtBroadcastFlagsI                              build/obj/chevents.o
                                                  build/obj/evtimer.o
                                                  build/obj/serial_lld.o
                                                  build/obj/serial.o
chEvtClearFlags                                   build/obj/chevents.o
                                                  build/obj/testevt.o
chEvtDispatch                                     build/obj/chevents.o
                                                  build/obj/testevt.o
chEvtRegisterMask                                 build/obj/chevents.o
                                                  build/obj/testevt.o
chEvtSignalFlags                                  build/obj/chevents.o
                                                  build/obj/testevt.o
chEvtSignalFlagsI                                 build/obj/chevents.o
chEvtUnregister                                   build/obj/chevents.o
                                                  build/obj/testevt.o
chEvtWaitAll                                      build/obj/chevents.o
                                                  build/obj/testevt.o
chEvtWaitAllTimeout                               build/obj/chevents.o
                                                  build/obj/testevt.o
chEvtWaitAny                                      build/obj/chevents.o
                                                  build/obj/testevt.o
chEvtWaitAnyTimeout                               build/obj/chevents.o
                                                  build/obj/testevt.o
chEvtWaitOne                                      build/obj/chevents.o
                                                  build/obj/testevt.o
chEvtWaitOneTimeout                               build/obj/chevents.o
                                                  build/obj/testevt.o
chHeapAlloc                                       build/obj/chheap.o
                                                  build/obj/testdyn.o
                                                  build/obj/testheap.o
                                                  build/obj/chdynamic.o
chHeapFree                                        build/obj/chheap.o
                                                  build/obj/testdyn.o
                                                  build/obj/testheap.o
                                                  build/obj/chdynamic.o
chHeapInit                                        build/obj/chheap.o
                                                  build/obj/testdyn.o
                                                  build/obj/testheap.o
chHeapStatus                                      build/obj/chheap.o
                                                  build/obj/testdyn.o
                                                  build/obj/testheap.o
chIQGetTimeout                                    build/obj/chqueues.o
                                                  build/obj/serial.o
                                                  build/obj/testbmk.o
                                                  build/obj/testqueues.o
chIQInit                                          build/obj/chqueues.o
                                                  build/obj/serial.o
                                                  build/obj/testbmk.o
                                                  build/obj/testqueues.o
chIQPutI                                          build/obj/chqueues.o
                                                  build/obj/serial.o
                                                  build/obj/testbmk.o
                                                  build/obj/testqueues.o
chIQReadTimeout                                   build/obj/chqueues.o
                                                  build/obj/serial.o
                                                  build/obj/testqueues.o
chIQResetI                                        build/obj/chqueues.o
                                                  build/obj/serial.o
                                                  build/obj/testqueues.o
chMBFetch                                         build/obj/chmboxes.o
                                                  build/obj/testmbox.o
chMBFetchI                                        build/obj/chmboxes.o
                                                  build/obj/testmbox.o
chMBFetchS                                        build/obj/chmboxes.o
chMBInit                                          build/obj/chmboxes.o
                                                  build/obj/testmbox.o
chMBPost                                          build/obj/chmboxes.o
                                                  build/obj/testmbox.o
chMBPostAhead                                     build/obj/chmboxes.o
                                                  build/obj/testmbox.o
chMBPostAheadI                                    build/obj/chmboxes.o
                                                  build/obj/testmbox.o
chMBPostAheadS                                    build/obj/chmboxes.o
chMBPostI                                         build/obj/chmboxes.o
                                                  build/obj/testmbox.o
chMBPostS                                         build/obj/chmboxes.o
chMBReset                                         build/obj/chmboxes.o
                                                  build/obj/testmbox.o
chMsgRelease                                      build/obj/chmsg.o
                                                  build/obj/testbmk.o
                                                  build/obj/testmsg.o
chMsgSend                                         build/obj/chmsg.o
                                                  build/obj/testbmk.o
                                                  build/obj/testmsg.o
chMsgWait                                         build/obj/chmsg.o
                                                  build/obj/testbmk.o
                                                  build/obj/testmsg.o
chMtxInit                                         build/obj/chmtx.o
                                                  build/obj/testbmk.o
                                                  build/obj/testmtx.o
                                                  build/obj/chheap.o
chMtxLock                                         build/obj/chmtx.o
                                                  build/obj/testbmk.o
                                                  build/obj/testmtx.o
                                                  build/obj/chheap.o
chMtxLockS                                        build/obj/chmtx.o
                                                  build/obj/chcond.o
chMtxTryLock                                      build/obj/chmtx.o
                                                  build/obj/testmtx.o
chMtxTryLockS                                     build/obj/chmtx.o
chMtxUnlock                                       build/obj/chmtx.o
                                                  build/obj/testbmk.o
                                                  build/obj/testmtx.o
                                                  build/obj/chheap.o
chMtxUnlockAll                                    build/obj/chmtx.o
                                                  build/obj/testmtx.o
chMtxUnlockS                                      build/obj/chmtx.o
                                                  build/obj/testmtx.o
                                                  build/obj/chcond.o
chOQGetI                                          build/obj/chqueues.o
                                                  build/obj/serial_lld.o
                                                  build/obj/serial.o
                                                  build/obj/testqueues.o
chOQInit                                          build/obj/chqueues.o
                                                  build/obj/serial.o
                                                  build/obj/testqueues.o
chOQPutTimeout                                    build/obj/chqueues.o
                                                  build/obj/serial.o
                                                  build/obj/testqueues.o
chOQResetI                                        build/obj/chqueues.o
                                                  build/obj/serial.o
                                                  build/obj/testqueues.o
chOQWriteTimeout                                  build/obj/chqueues.o
                                                  build/obj/serial.o
                                                  build/obj/testqueues.o
chPoolAlloc                                       build/obj/chmempools.o
                                                  build/obj/testdyn.o
                                                  build/obj/testpools.o
                                                  build/obj/chdynamic.o
chPoolAllocI                                      build/obj/chmempools.o
chPoolFree                                        build/obj/chmempools.o
                                                  build/obj/testdyn.o
                                                  build/obj/testpools.o
                                                  build/obj/chdynamic.o
chPoolFreeI                                       build/obj/chmempools.o
chPoolInit                                        build/obj/chmempools.o
                                                  build/obj/testdyn.o
                                                  build/obj/testpools.o
chRegFirstThread                                  build/obj/chregistry.o
                                                  build/obj/testdyn.o
chRegNextThread                                   build/obj/chregistry.o
                                                  build/obj/testdyn.o
chSchDoReschedule                                 build/obj/chschd.o
                                                  build/obj/chthreads.o
                                                  build/obj/chcore_v7m.o
chSchGoSleepS                                     build/obj/chschd.o
                                                  build/obj/testbmk.o
                                                  build/obj/chmsg.o
                                                  build/obj/chevents.o
                                                  build/obj/chcond.o
                                                  build/obj/chmtx.o
                                                  build/obj/chsem.o
                                                  build/obj/chthreads.o
chSchGoSleepTimeoutS                              build/obj/chschd.o
                                                  build/obj/chqueues.o
                                                  build/obj/chevents.o
                                                  build/obj/chcond.o
                                                  build/obj/chsem.o
                                                  build/obj/chthreads.o
chSchReadyI                                       build/obj/chschd.o
                                                  build/obj/chqueues.o
                                                  build/obj/chmsg.o
                                                  build/obj/chevents.o
                                                  build/obj/chcond.o
                                                  build/obj/chmtx.o
                                                  build/obj/chsem.o
                                                  build/obj/chthreads.o
chSchRescheduleS                                  build/obj/chschd.o
                                                  build/obj/serial.o
                                                  build/obj/testmtx.o
                                                  build/obj/testsem.o
                                                  build/obj/chmboxes.o
                                                  build/obj/chevents.o
                                                  build/obj/chcond.o
                                                  build/obj/chmtx.o
                                                  build/obj/chsem.o
                                                  build/obj/chthreads.o
chSchWakeupS                                      build/obj/chschd.o
                                                  build/obj/testbmk.o
                                                  build/obj/chmsg.o
                                                  build/obj/chcond.o
                                                  build/obj/chmtx.o
                                                  build/obj/chsem.o
                                                  build/obj/chdynamic.o
                                                  build/obj/chthreads.o
chSemAddCounterI                                  build/obj/chsem.o
                                                  build/obj/testsem.o
chSemInit                                         build/obj/chsem.o
                                                  build/obj/testbmk.o
                                                  build/obj/testsem.o
                                                  build/obj/chmboxes.o
chSemReset                                        build/obj/chsem.o
                                                  build/obj/testbmk.o
                                                  build/obj/testsem.o
chSemResetI                                       build/obj/chsem.o
                                                  build/obj/chmboxes.o
chSemSignal                                       build/obj/chsem.o
                                                  build/obj/testbmk.o
                                                  build/obj/testsem.o
chSemSignalI                                      build/obj/chsem.o
                                                  build/obj/testsem.o
                                                  build/obj/chmboxes.o
chSemSignalWait                                   build/obj/chsem.o
                                                  build/obj/testsem.o
chSemWait                                         build/obj/chsem.o
                                                  build/obj/testbmk.o
                                                  build/obj/testsem.o
chSemWaitS                                        build/obj/chsem.o
chSemWaitTimeout                                  build/obj/chsem.o
                                                  build/obj/testsem.o
chSemWaitTimeoutS                                 build/obj/chsem.o
                                                  build/obj/chmboxes.o
chSysInit                                         build/obj/chsys.o
                                                  build/obj/main.o
chSysTimerHandlerI                                build/obj/chsys.o
                                                  build/obj/chcore_v7m.o
chThdAddRef                                       build/obj/chdynamic.o
                                                  build/obj/testdyn.o
chThdCreateFromHeap                               build/obj/chdynamic.o
                                                  build/obj/testdyn.o
chThdCreateFromMemoryPool                         build/obj/chdynamic.o
                                                  build/obj/testdyn.o
chThdCreateI                                      build/obj/chthreads.o
                                                  build/obj/testthd.o
                                                  build/obj/chdynamic.o
chThdCreateStatic                                 build/obj/chthreads.o
                                                  build/obj/main.o
                                                  build/obj/testbmk.o
                                                  build/obj/testqueues.o
                                                  build/obj/testevt.o
                                                  build/obj/testmsg.o
                                                  build/obj/testmtx.o
                                                  build/obj/testsem.o
                                                  build/obj/testthd.o
                                                  build/obj/chsys.o
chThdExit                                         build/obj/chthreads.o
                                                  build/obj/chcore_v7m.o
chThdExitS                                        build/obj/chthreads.o
chThdRelease                                      build/obj/chdynamic.o
                                                  build/obj/testdyn.o
                                                  build/obj/chregistry.o
                                                  build/obj/chthreads.o
chThdResume                                       build/obj/chthreads.o
                                                  build/obj/testthd.o
chThdSetPriority                                  build/obj/chthreads.o
                                                  build/obj/testthd.o
chThdSleep                                        build/obj/chthreads.o
                                                  build/obj/main.o
                                                  build/obj/testbmk.o
                                                  build/obj/testdyn.o
                                                  build/obj/testevt.o
                                                  build/obj/testmtx.o
                                                  build/obj/testsem.o
                                                  build/obj/testthd.o
                                                  build/obj/test.o
chThdSleepUntil                                   build/obj/chthreads.o
                                                  build/obj/testthd.o
chThdTerminate                                    build/obj/chthreads.o
                                                  build/obj/test.o
chThdWait                                         build/obj/chthreads.o
                                                  build/obj/testbmk.o
                                                  build/obj/test.o
chThdYield                                        build/obj/chthreads.o
                                                  build/obj/testbmk.o
chTimeIsWithin                                    build/obj/chvt.o
                                                  build/obj/test.o
chVTResetI                                        build/obj/chvt.o
                                                  build/obj/evtimer.o
                                                  build/obj/testbmk.o
                                                  build/obj/chschd.o
chVTSetI                                          build/obj/chvt.o
                                                  build/obj/evtimer.o
                                                  build/obj/testbmk.o
                                                  build/obj/test.o
                                                  build/obj/chschd.o
chprintf                                          build/obj/chprintf.o
                                                  build/obj/main.o
                                                  build/obj/atmel_adc.o
cleanup_glue                                      /usr/local/CodeBench_1802_EABI/bin/../lib/gcc/arm-none-eabi/4.5.2/../../../../arm-none-eabi/lib/thumb2/libc.a(lib_a-reent.o)
errno                                             /usr/local/CodeBench_1802_EABI/bin/../lib/gcc/arm-none-eabi/4.5.2/../../../../arm-none-eabi/lib/thumb2/libc.a(lib_a-reent.o)
                                                  /usr/local/CodeBench_1802_EABI/bin/../lib/gcc/arm-none-eabi/4.5.2/../../../../arm-none-eabi/lib/thumb2/libc.a(lib_a-signalr.o)
evtStart                                          build/obj/evtimer.o
evtStop                                           build/obj/evtimer.o
fclose                                            /usr/local/CodeBench_1802_EABI/bin/../lib/gcc/arm-none-eabi/4.5.2/../../../../arm-none-eabi/lib/thumb2/libc.a(lib_a-fclose.o)
                                                  /usr/local/CodeBench_1802_EABI/bin/../lib/gcc/arm-none-eabi/4.5.2/../../../../arm-none-eabi/lib/thumb2/libc.a(lib_a-findfp.o)
fflush                                            /usr/local/CodeBench_1802_EABI/bin/../lib/gcc/arm-none-eabi/4.5.2/../../../../arm-none-eabi/lib/thumb2/libc.a(lib_a-fflush.o)
fiprintf                                          /usr/local/CodeBench_1802_EABI/bin/../lib/gcc/arm-none-eabi/4.5.2/../../../../arm-none-eabi/lib/thumb2/libc.a(lib_a-fiprintf.o)
                                                  /usr/local/CodeBench_1802_EABI/bin/../lib/gcc/arm-none-eabi/4.5.2/../../../../arm-none-eabi/lib/thumb2/libc.a(lib_a-assert.o)
fputwc                                            /usr/local/CodeBench_1802_EABI/bin/../lib/gcc/arm-none-eabi/4.5.2/../../../../arm-none-eabi/lib/thumb2/libc.a(lib_a-fputwc.o)
halInit                                           build/obj/hal.o
                                                  build/obj/main.o
hal_lld_init                                      build/obj/hal_lld.o
                                                  build/obj/hal.o
localeconv                                        /usr/local/CodeBench_1802_EABI/bin/../lib/gcc/arm-none-eabi/4.5.2/../../../../arm-none-eabi/lib/thumb2/libc.a(lib_a-locale.o)
main                                              build/obj/main.o
                                                  build/obj/crt0.o
memchr                                            /usr/local/CodeBench_1802_EABI/bin/../lib/gcc/arm-none-eabi/4.5.2/../../../../arm-none-eabi/lib/thumb2/libc.a(lib_a-memchr.o)
                                                  /usr/local/CodeBench_1802_EABI/bin/../lib/gcc/arm-none-eabi/4.5.2/../../../../arm-none-eabi/lib/thumb2/libc.a(lib_a-fvwrite.o)
                                                  /usr/local/CodeBench_1802_EABI/bin/../lib/gcc/arm-none-eabi/4.5.2/../../../../arm-none-eabi/lib/thumb2/libc.a(lib_a-vfiprintf.o)
memcpy                                            /usr/local/CodeBench_1802_EABI/bin/../lib/gcc/arm-none-eabi/4.5.2/../../../../arm-none-eabi/lib/thumb2/libc.a(lib_a-memcpy.o)
                                                  /usr/local/CodeBench_1802_EABI/bin/../lib/gcc/arm-none-eabi/4.5.2/../../../../arm-none-eabi/lib/thumb2/libc.a(lib_a-fvwrite.o)
memmove                                           /usr/local/CodeBench_1802_EABI/bin/../lib/gcc/arm-none-eabi/4.5.2/../../../../arm-none-eabi/lib/thumb2/libc.a(lib_a-memmove.o)
                                                  /usr/local/CodeBench_1802_EABI/bin/../lib/gcc/arm-none-eabi/4.5.2/../../../../arm-none-eabi/lib/thumb2/libc.a(lib_a-reallocr.o)
                                                  /usr/local/CodeBench_1802_EABI/bin/../lib/gcc/arm-none-eabi/4.5.2/../../../../arm-none-eabi/lib/thumb2/libc.a(lib_a-fvwrite.o)
memset                                            /usr/local/CodeBench_1802_EABI/bin/../lib/gcc/arm-none-eabi/4.5.2/../../../../arm-none-eabi/lib/thumb2/libc.a(lib_a-memset.o)
                                                  /usr/local/CodeBench_1802_EABI/bin/../lib/gcc/arm-none-eabi/4.5.2/../../../../arm-none-eabi/lib/thumb2/libc.a(lib_a-findfp.o)
                                                  build/obj/syscalls.o
nvicDisableVector                                 build/obj/nvic.o
                                                  build/obj/serial_lld.o
nvicEnableVector                                  build/obj/nvic.o
                                                  build/obj/serial_lld.o
nvicSetSystemHandlerPriority                      build/obj/nvic.o
                                                  build/obj/hal_lld.o
                                                  build/obj/chcore_v7m.o
palReadBus                                        build/obj/pal.o
palSetBusMode                                     build/obj/pal.o
palWriteBus                                       build/obj/pal.o
pal_default_config                                build/obj/board.o
                                                  build/obj/hal.o
patternbmk                                        build/obj/testbmk.o
                                                  build/obj/test.o
patterndyn                                        build/obj/testdyn.o
                                                  build/obj/test.o
patternevt                                        build/obj/testevt.o
                                                  build/obj/test.o
patternheap                                       build/obj/testheap.o
                                                  build/obj/test.o
patternmbox                                       build/obj/testmbox.o
                                                  build/obj/test.o
patternmsg                                        build/obj/testmsg.o
                                                  build/obj/test.o
patternmtx                                        build/obj/testmtx.o
                                                  build/obj/test.o
patternpools                                      build/obj/testpools.o
                                                  build/obj/test.o
patternqueues                                     build/obj/testqueues.o
                                                  build/obj/test.o
patternsem                                        build/obj/testsem.o
                                                  build/obj/test.o
patternthd                                        build/obj/testthd.o
                                                  build/obj/test.o
pinPsram                                          build/obj/main.o
port_halt                                         build/obj/chcore.o
raise                                             /usr/local/CodeBench_1802_EABI/bin/../lib/gcc/arm-none-eabi/4.5.2/../../../../arm-none-eabi/lib/thumb2/libc.a(lib_a-signal.o)
                                                  /usr/local/CodeBench_1802_EABI/bin/../lib/gcc/arm-none-eabi/4.5.2/../../../../arm-none-eabi/lib/thumb2/libc.a(lib_a-abort.o)
rlist                                             build/obj/chschd.o
                                                  build/obj/testbmk.o
                                                  build/obj/testqueues.o
                                                  build/obj/testdyn.o
                                                  build/obj/testevt.o
                                                  build/obj/testmsg.o
                                                  build/obj/testmtx.o
                                                  build/obj/testsem.o
                                                  build/obj/testthd.o
                                                  build/obj/test.o
                                                  build/obj/chqueues.o
                                                  build/obj/chmsg.o
                                                  build/obj/chevents.o
                                                  build/obj/chcond.o
                                                  build/obj/chmtx.o
                                                  build/obj/chsem.o
                                                  build/obj/chregistry.o
                                                  build/obj/chthreads.o
                                                  build/obj/chsys.o
                                                  build/obj/chcore_v7m.o
sdIncomingDataI                                   build/obj/serial.o
                                                  build/obj/serial_lld.o
sdInit                                            build/obj/serial.o
                                                  build/obj/hal.o
sdObjectInit                                      build/obj/serial.o
                                                  build/obj/serial_lld.o
sdRequestDataI                                    build/obj/serial.o
sdStart                                           build/obj/serial.o
                                                  build/obj/main.o
sdStop                                            build/obj/serial.o
sd_lld_init                                       build/obj/serial_lld.o
                                                  build/obj/serial.o
sd_lld_start                                      build/obj/serial_lld.o
                                                  build/obj/serial.o
sd_lld_stop                                       build/obj/serial_lld.o
                                                  build/obj/serial.o
setlocale                                         /usr/local/CodeBench_1802_EABI/bin/../lib/gcc/arm-none-eabi/4.5.2/../../../../arm-none-eabi/lib/thumb2/libc.a(lib_a-locale.o)
signal                                            /usr/local/CodeBench_1802_EABI/bin/../lib/gcc/arm-none-eabi/4.5.2/../../../../arm-none-eabi/lib/thumb2/libc.a(lib_a-signal.o)
strcmp                                            /usr/local/CodeBench_1802_EABI/bin/../lib/gcc/arm-none-eabi/4.5.2/../../../../arm-none-eabi/lib/thumb2/libc.a(lib_a-strcmp.o)
                                                  /usr/local/CodeBench_1802_EABI/bin/../lib/gcc/arm-none-eabi/4.5.2/../../../../arm-none-eabi/lib/thumb2/libc.a(lib_a-locale.o)
strlen                                            /usr/local/CodeBench_1802_EABI/bin/../lib/gcc/arm-none-eabi/4.5.2/../../../../arm-none-eabi/lib/thumb2/libc.a(lib_a-strlen.o)
                                                  /usr/local/CodeBench_1802_EABI/bin/../lib/gcc/arm-none-eabi/4.5.2/../../../../arm-none-eabi/lib/thumb2/libc.a(lib_a-vfiprintf.o)
test                                              build/obj/test.o
                                                  build/obj/testqueues.o
                                                  build/obj/testdyn.o
                                                  build/obj/testheap.o
                                                  build/obj/testmbox.o
test_cpu_pulse                                    build/obj/test.o
                                                  build/obj/testmtx.o
test_emit_token                                   build/obj/test.o
                                                  build/obj/testqueues.o
                                                  build/obj/testdyn.o
                                                  build/obj/testevt.o
                                                  build/obj/testmbox.o
                                                  build/obj/testmsg.o
                                                  build/obj/testmtx.o
                                                  build/obj/testsem.o
                                                  build/obj/testthd.o
test_print                                        build/obj/test.o
                                                  build/obj/testbmk.o
test_println                                      build/obj/test.o
                                                  build/obj/testbmk.o
test_printn                                       build/obj/test.o
                                                  build/obj/testbmk.o
test_start_timer                                  build/obj/test.o
                                                  build/obj/testbmk.o
test_terminate_threads                            build/obj/test.o
                                                  build/obj/testbmk.o
test_timer_done                                   build/obj/test.o
                                                  build/obj/testbmk.o
test_wait_threads                                 build/obj/test.o
                                                  build/obj/testbmk.o
                                                  build/obj/testqueues.o
                                                  build/obj/testdyn.o
                                                  build/obj/testevt.o
                                                  build/obj/testmtx.o
                                                  build/obj/testsem.o
                                                  build/obj/testthd.o
test_wait_tick                                    build/obj/test.o
                                                  build/obj/testbmk.o
                                                  build/obj/testevt.o
                                                  build/obj/testmtx.o
                                                  build/obj/testsem.o
                                                  build/obj/testthd.o
testbmk1                                          build/obj/testbmk.o
testbmk10                                         build/obj/testbmk.o
testbmk11                                         build/obj/testbmk.o
testbmk12                                         build/obj/testbmk.o
testbmk13                                         build/obj/testbmk.o
testbmk2                                          build/obj/testbmk.o
testbmk3                                          build/obj/testbmk.o
testbmk4                                          build/obj/testbmk.o
testbmk5                                          build/obj/testbmk.o
testbmk6                                          build/obj/testbmk.o
testbmk7                                          build/obj/testbmk.o
testbmk8                                          build/obj/testbmk.o
testbmk9                                          build/obj/testbmk.o
testdyn1                                          build/obj/testdyn.o
testdyn2                                          build/obj/testdyn.o
testdyn3                                          build/obj/testdyn.o
testevt1                                          build/obj/testevt.o
testevt2                                          build/obj/testevt.o
testevt3                                          build/obj/testevt.o
testheap1                                         build/obj/testheap.o
testmbox1                                         build/obj/testmbox.o
testmsg1                                          build/obj/testmsg.o
testmtx1                                          build/obj/testmtx.o
testmtx2                                          build/obj/testmtx.o
testmtx3                                          build/obj/testmtx.o
testmtx4                                          build/obj/testmtx.o
testmtx5                                          build/obj/testmtx.o
testmtx6                                          build/obj/testmtx.o
testmtx7                                          build/obj/testmtx.o
testmtx8                                          build/obj/testmtx.o
testpools1                                        build/obj/testpools.o
testqueues1                                       build/obj/testqueues.o
testqueues2                                       build/obj/testqueues.o
testsem1                                          build/obj/testsem.o
testsem2                                          build/obj/testsem.o
testsem3                                          build/obj/testsem.o
testsem4                                          build/obj/testsem.o
testthd1                                          build/obj/testthd.o
testthd2                                          build/obj/testthd.o
testthd3                                          build/obj/testthd.o
testthd4                                          build/obj/testthd.o
thread4                                           build/obj/testbmk.o
threads                                           build/obj/test.o
                                                  build/obj/testbmk.o
                                                  build/obj/testqueues.o
                                                  build/obj/testdyn.o
                                                  build/obj/testevt.o
                                                  build/obj/testmsg.o
                                                  build/obj/testmtx.o
                                                  build/obj/testsem.o
                                                  build/obj/testthd.o
vfiprintf                                         /usr/local/CodeBench_1802_EABI/bin/../lib/gcc/arm-none-eabi/4.5.2/../../../../arm-none-eabi/lib/thumb2/libc.a(lib_a-vfiprintf.o)
vtlist                                            build/obj/chvt.o
                                                  build/obj/testevt.o
                                                  build/obj/testmtx.o
                                                  build/obj/testsem.o
                                                  build/obj/testthd.o
                                                  build/obj/test.o
                                                  build/obj/chthreads.o
                                                  build/obj/chsys.o
wa                                                build/obj/test.o
                                                  build/obj/testbmk.o
                                                  build/obj/testqueues.o
                                                  build/obj/testdyn.o
                                                  build/obj/testpools.o
                                                  build/obj/testevt.o
                                                  build/obj/testmsg.o
                                                  build/obj/testmtx.o
                                                  build/obj/testsem.o
                                                  build/obj/testthd.o
wcrtomb                                           /usr/local/CodeBench_1802_EABI/bin/../lib/gcc/arm-none-eabi/4.5.2/../../../../arm-none-eabi/lib/thumb2/libc.a(lib_a-wcrtomb.o)
